:100000000C9467010C94450E0C941E0E0C94F70D85
:100010000C94D00D0C948F010C948F010C94A90DAD
:100020000C948F010C9465110C946C0E0C94DB0EE7
:100030000C948F010C948F010C948F010C948F0100
:100040000C948F010C948F010C948F010C948F01F0
:100050000C948F010C948F010C948F010C945F0D04
:100060000C948F010C9433110C940D110C948F018E
:100070000C948F010C948F010C948F010C948F01C0
:100080000C948F010C948F010C948F010C948F01B0
:100090000C94E1110C948F010C948F010C948F013E
:1000A0000C948F010C948F010C948F0105A84CCDFA
:1000B000B2D44EB93836A9020C50B9918688083CA2
:1000C000A6AAAA2ABE000000803F00407A10F35A78
:1000D00000A0724E18090010A5D4E80000E8764888
:1000E000170000E40B54020000CA9A3B000000E134
:1000F000F505000080969800000040420F000000C7
:10010000A08601000000102700000000E8030000A6
:1001100000006400000000000A0000000000010070
:10012000000000002C76D888DC674F0823DFC1DF91
:10013000AE59E1B1B796E5E3E453C63AE651997694
:1001400096E8E6C28426EB898C9B62ED407C6FFCCE
:10015000EFBC9C9F40F2BAA56FA5F490055A2AF710
:100160005C936B6CF9676DC11BFCE0E40D47FEF519
:1001700020E6B500D0ED902E030094357705008081
:10018000841E080000204E0A000000C80C333333E0
:10019000330F986E12831141EF8D2114893BE65580
:1001A00016CFFEE6DB18D1844B381BF77C1D901D63
:1001B000A4BBE424203284725E228100C9F124ECC5
:1001C000A1E53D2700000000240027002A002D00A3
:1001D0003000000000002300260029002C002F0022
:1001E000080B0002020200000904000001020200E4
:1001F0000005240010010524010101042402060564
:1002000024060001070581031000400904010002D3
:100210000A000000070502024000000705830240B3
:1002200000000403090412010002EF020140FB1F59
:100230000023000101020301506F6C6F6C752043B5
:100240006F72706F726174696F6E00506F6C6F6C5B
:100250007520412D537461722033325534000000F3
:100260000000250028002B002E00310004040404A7
:10027000040304050202020204030202020206064B
:100280000606060604040202020404040802011021
:1002900040804010204080408008020401804020BF
:1002A00010020110801020404020000000020009D0
:1002B0000F0000030401000C00000000000000001B
:1002C00000000000000000000000FC127B1511245B
:1002D0001FBECFEFDAE0DEBFCDBF23E0A6EBB1E07B
:1002E00001C01D92AA38B207E1F711E0A0E0B1E029
:1002F000E6ECF9E302C005900D92A63BB107D9F7F1
:1003000011E0C6E6D1E004C02197FE010E942F193A
:10031000C536D107C9F70E945E130C94D61C0C9405
:100320000000FC0180915C02882311F13FB7F89432
:1003300082E08093E9002091F200822F90E018166D
:10034000190614F481E090E0882339F0289844E6F7
:1003500040935B024091F1004083222339F02091C9
:10036000F200211103C02BE62093E8003FBF08955F
:100370008FEF9FEF08952FB7F89483E08093E90003
:100380009091E800892F807295FF04C09091F2004F
:1003900080E4891B2FBF08958091530281110DC005
:1003A00082E080934F0284E08093500210925202C8
:1003B0001092510281E0809353028FE492E00895FD
:1003C00081508F3008F047C0E82FF0E0E651FE4F33
:1003D0000C942F1907020B02F901FF0103022B02F3
:1003E0002B022B020E02140218021C0222022B0204
:1003F0002602809180008F778093800008958091FD
:1004000080008F7DF9CF80918000877FF5CF84B504
:100410008F7784BD089584B58F7DFBCF8091900048
:100420008F77809390000895809190008F7DF9CF11
:1004300080919000877FF5CF8091C0008F77809367
:10044000C00008958091C0008F7DF9CF8091C200D7
:10045000877F8093C20008951F93CF93DF93282F47
:1004600030E0F901E655FD4F8491F901E557FD4F64
:10047000D491F901E459FD4FC491CC23A9F0162F72
:1004800081110E94E001EC2FF0E0EE0FFF1FE25A15
:10049000FD4FA591B4918FB7F894EC91111108C05C
:1004A000D095DE23DC938FBFDF91CF911F9108950C
:1004B000DE2BF8CF3FB7F89480914B0290914C021D
:1004C000A0914D02B0914E0226B5A89B05C02F3FCA
:1004D00019F00196A11DB11D3FBFBA2FA92F982F6A
:1004E0008827BC01CD01620F711D811D911D42E065
:1004F000660F771F881F991F4A95D1F708958F922D
:100500009F92AF92BF92CF92DF92EF92FF924B01F8
:100510005C010E945A026B017C010E945A026C1914
:100520007D098E099F09683E734081059105A8F3F6
:1005300021E0821A9108A108B10888EEC80E83E074
:10054000D81EE11CF11C81149104A104B10429F707
:10055000FF90EF90DF90CF90BF90AF909F908F90E3
:1005600008952FB7F89460914702709148028091E6
:10057000490290914A022FBF08950895089540912D
:1005800040025091410220913E0230913F024217B9
:100590005307B4F49091E8009570E1F39091E8006E
:1005A00092FD19C08093F100809140029091410228
:1005B00001968F739927892B19F48EEF8093E800A9
:1005C0008091400290914102019690934102809364
:1005D000400281E0089580E00895EF92FF920F932A
:1005E0001F93CF93DF93F82E192FE62E042F81E06F
:1005F000860F880F0E94BF0283E00E94BF02CF2DAA
:10060000D12FEC0EFD2EF11CCE15DF05B9F007FF42
:1006100013C0FE0184910E94BF02182F80E00E9447
:10062000BF02812321968111EFCFDF91CF911F91DE
:100630000F91FF90EF9008958881EDCF81E0F5CF85
:10064000DF92EF92FF920F931F93CF93DF93D82EF9
:100650008A01EB017B01E40EF51ECE15DF0559F092
:10066000D7FE12C0FE0184910E94BF022196811123
:10067000F4CF0FEF1FEFC801DF91CF911F910F91C2
:10068000FF90EF90DF9008958881EECF0F931F9336
:10069000CF93DF931F92CDB7DEB782E0898342E428
:1006A00050E060EE71E080E80E9420030E94CC01DF
:1006B000DC0112960D911C910115110589F0D801EC
:1006C000ED91FC910280F381E02DBE016F5F7F4FC1
:1006D000C801099597FD04C0F80100851185ECCF8C
:1006E00089810F90DF91CF911F910F9108956150F3
:1006F00030F02091F100FC0120830196F8CF28987A
:1007000084E680935B020895AF92BF92CF92DF920E
:10071000EF92FF920F931F93CF93DF936C017B01B6
:100720008B01040F151FEB015E01AE18BF08C01747
:10073000D10759F06991D601ED91FC910190F081BA
:10074000E02DC6010995892B79F7C501DF91CF917D
:100750001F910F91FF90EF90DF90CF90BF90AF90DF
:100760000895FC01538D448D252F30E0842F90E0B7
:10077000821B930B541710F0CF960895019708959C
:10078000FC01918D828D981761F0A28DAE0FBF2F65
:10079000B11D5D968C91928D9F5F9F73928F90E0BB
:1007A00008958FEF9FEF0895FC01918D828D98172A
:1007B00031F0828DE80FF11D858D90E008958FEF67
:1007C0009FEF0895FC01918D228D892F90E0805C30
:1007D0009F4F821B91098F73992708958EE692E0AF
:1007E0000E94E20321E0892B09F420E0822F089582
:1007F00080E090E0892B29F00E94EE0381110C9497
:1008000000000895FC01A48DA80FB92FB11DA35AB3
:10081000BF4F2C91848D90E001968F739927848F20
:10082000A689B7892C93A089B1898C9182748C9305
:10083000938D848D981306C00288F389E02D808102
:100840008F7D80830895EF92FF920F931F93CF9334
:10085000DF93EC0181E0888F9B8D8C8D981319C0FC
:10086000E889F989808185FF14C09FB7F894EE89E3
:10087000FF896083E889F9898081827480839FBFC2
:1008800081E090E0DF91CF911F910F91FF90EF9069
:100890000895F62E0B8D10E00F5F1F4F0F73112779
:1008A000E02E8C8D8E110CC00FB607FCFACFE889B4
:1008B000F989808185FFF5CFCE010E940204F1CF36
:1008C000EB8DEC0FFD2FF11DE35AFF4FF0829FB728
:1008D000F8940B8FEA89FB8980818062CFCFCF9318
:1008E000DF93EC01888D8823B9F0AA89BB89E88958
:1008F000F9898C9185FD03C0808186FD0DC00FB6FE
:1009000007FCF7CF8C9185FFF2CF808185FFEDCF7B
:10091000CE010E940204E9CFDF91CF9108958F921A
:100920009F92AF92BF92CF92DF92EF92FF920F937E
:100930001F93CF93DF936C017B018A0180910B01A0
:10094000882309F45CC080915C02882309F457C0B5
:100950008091440280FF05C08091E0008260809316
:10096000E000E801B12C8AEFA82E93E0892E2AE35B
:10097000922E209711F4BB20D9F10E94BB01811166
:100980000AC0AA94AA20D9F161E070E080E090E06A
:100990000E947F02EECF8C171D0611F00CF08C2FF9
:1009A0009FB7F8948092E9002091E80025FD02C0ED
:1009B0009FBFDFCF282F30E0C21BD30BF701815040
:1009C00020F041914093F100FACFE20EF31EBB20DC
:1009D00021F09092E800B12CEBCF8091E80085FDEA
:1009E000E7CF9092E800BB24B394209709F3F3CFAC
:1009F0005D9884E680934302101611063CF081E076
:100A000090E0F6019383828310E000E0C801DF915B
:100A1000CF911F910F91FF90EF90DF90CF90BF90FB
:100A2000AF909F908F900895CF93DF931F92CDB793
:100A3000DEB76983DC01ED91FC910280F381E02D4A
:100A400041E050E0BE016F5F7F4F09950F90DF914D
:100A5000CF91089583E08093E9008091F20088238C
:100A600019F08AE38093E80008950E94BB0190E0AA
:100A70000895CF93DF931F92CDB7DEB7FC01848535
:100A8000958597FD08C02FEF3FEF358724870F909E
:100A9000DF91CF910895CE0101960E9491010197B7
:100AA00019F4898190E0F3CF8FEF9FEFF0CF0F9390
:100AB0001F93CF93DF931F92CDB7DEB78C01FC015C
:100AC0008485958597FF0BC0CE0101960E94910108
:100AD000019771F4898190E0F80195878487F80186
:100AE000848595850F90DF91CF911F910F91089587
:100AF0008FEF9FEFF1CFFC018485958597FD0BC0AB
:100B00009FB7F89482E08093E9008091F2009FBF44
:100B100090E0019608959FB7F89482E08093E900F1
:100B20008091F2009FBF90E008952E98269A2D980C
:100B3000259A2A98229A2998219A2F98279A8AEA00
:100B40008093800089E18093810084EA91E0909312
:100B5000870080938600109289001092880010927E
:100B60008B0010928A0010928D0010928C000895D4
:100B7000CF93DF93EC0180912D02811105C081E0BC
:100B800080932D020E94950580E0D7FF04C0D19587
:100B9000C195D10981E0CD3291E0D90714F0CCE2C2
:100BA000D1E0D0938900C0938800882329F0299A46
:100BB000219ADF91CF9108952998FACFCF93DF93AF
:100BC000EC0180912D02811105C081E080932D02FE
:100BD0000E94950580E0D7FF04C0D195C195D10949
:100BE00081E0CD3291E0D90714F0CCE2D1E0D0938E
:100BF0008B00C0938A00882329F02A9A229ADF91D9
:100C0000CF9108952A98FACFECE3F1E0108611868F
:100C100012861386148615861686178690E080E065
:100C20000E94DE0590E080E00E94B8050E94B102BB
:100C3000ECE5F3E0648775878687978710821182D9
:100C400012821382148215821682178210861186F0
:100C50001286138608958CB1282F30E0359527959C
:100C600035952795422F417083B190E054E09595DA
:100C700087955A95E1F78227817020912B029091F8
:100C80002C02609160027091610224279827291B31
:100C9000330B260F371F309361022093600220919F
:100CA0002B0290912C02281729F0941719F091E04B
:100CB00090932A0280932B0240932C0208959FB1B7
:100CC00091708CB186FB882780F9892720912802B2
:100CD0003091290240915D0250915E022927382708
:100CE000231B330B240F351F30935E0220935D02CC
:100CF0003091280220912902381729F0291719F07C
:100D000021E02093270280932802909329020895DE
:100D100024982C9A6A98729A6E98769A8098889AF3
:100D2000F89491E090936800EBE6F0E080818061B8
:100D300080832BE236E030933702209336029BBB50
:100D400080915B038F7E80935B0383B190915B0303
:100D50008071892B80935B0378948FE596E0909364
:100D6000150180931401EAE6F0E080818F7C8061B8
:100D70008083EE9A8CB182FB882780F980932C02C5
:100D800093B180912C0292959170892780932B02C8
:100D9000109261021092600210922A028FB181704B
:100DA000809329029CB18091290296FB992790F9A2
:100DB00089278093280210925E0210925D021092A1
:100DC000270208950F931F93CF93DF93EC0188853B
:100DD00081112FC0898590E0FC01E557FD4F8459B2
:100DE0009D4F21E028872A85222309F44CC02491B5
:100DF000FC0184918823C9F090E0880F991FFC01C1
:100E0000EC53FE4F45915491FC01E25AFD4FA591E0
:100E1000B4919FB7F894FA013081822F8095832393
:100E20008083EC91E22BEC939FBF8FE090E00197E1
:100E3000F1F7298530E0F901E655FD4F8491F9017C
:100E4000E557FD4F0491F901E459FD4F1491112329
:100E500009F437C081110E94E001E12FF0E0EE0FAC
:100E6000FF1FEE52FE4FA591B491EC910E2331E09D
:100E700009F430E0832F2B8582278170DF91CF9199
:100E80001F910F9108952491FC018491882309F406
:100E9000CCCF90E0880F991FFC01EC53FE4F459199
:100EA0005491FC01E25AFD4FA591B4919FB7F8947B
:100EB000FA0180812095822380838C91E22FE823A0
:100EC000B2CF80E0D8CFCF93DF938AE793E00E9440
:100ED000E206D1E0C82FCD270E94B10220917F0306
:100EE000213099F030F0223011F1233041F1C0E08F
:100EF00008C0C111FCCF7093810360938003D0932D
:100F00007F038C2FDF91CF910895CC2319F010929D
:100F10007F03EDCF2091800330918103621B730B1F
:100F20006F30710570F382E080937F03E0CFCC23B4
:100F300041F3709381036093800383E0F5CFCC236A
:100F400091F32091800330918103621B730B6F300A
:100F5000710568F210927F03D4CF2091DD01260F36
:100F60003327331F21323105ECF420910102FC01BB
:100F700090E080E0243069F082E00895A091DD01E6
:100F80002191AC0143545E4FA40FB52FB11D2C939A
:100F90000196861798F38091DD01680F6093DD015B
:100FA00080E0089581E008958FEF9FEF08958FEF1F
:100FB0009FEF08958091B60190E0919581959109F8
:100FC0000895CF93DF93CB01EA01642F0E94AD0710
:100FD000CE01DF91CF910895CF93DF931F92CDB7CC
:100FE000DEB7698361E0CE0101960E94AD0781E022
:100FF00090E00F90DF91CF91089590E080E0089508
:10100000FB0101900020E9F73197AF01461B570B18
:10101000DC01ED91FC910280F381E02D0994CF93E6
:10102000DF93EC0188819981009711F00E94801B69
:10103000198218821D821C821B821A82DF91CF9135
:101040000895FC0180819181009711F00C94801B20
:1010500008950F931F93CF93DF93EC0188819981BB
:10106000009759F02A813B812617370730F081E03D
:10107000DF91CF911F910F9108958B016F5F7F4F8B
:101080000E94091C009759F0998388831B830A8367
:101090002C813D81232B59F7FC011082E8CF80E0A1
:1010A000E7CFEF92FF920F931F93CF93DF93EC0163
:1010B000FB01E080F180E114F10411F1048115815C
:1010C00001151105A9F08C819D81080F191FB80128
:1010D000CE010E942908882399F0288139818C81CA
:1010E0009D81B701820F931F0E94CF1C1D830C832B
:1010F000CE01DF91CF911F910F91FF90EF90089556
:10110000CE010E940F08F4CFEF92FF920F931F932E
:10111000CF93DF93EC017B018A01BA010E94290879
:1011200081110BC0CE010E940F08CE01DF91CF913B
:101130001F910F91FF90EF9008951D830C83B701CD
:10114000888199810E94CF1CF0CFEF92FF920F937C
:101150001F93CF93DF93CDB7DEB7A1970FB6F89467
:10116000DEBF0FBECDBF7C01CB01BA01F7011182FA
:10117000108213821282158214828E010F5F1F4F1C
:1011800022E044E00E947F150097C9F0FC01019025
:101190000020E9F73197AF01481B590BBC01C7018B
:1011A0000E948408A1960FB6F894DEBF0FBECDBF93
:1011B000DF91CF911F910F91FF90EF900895C7019C
:1011C0000E940F08EFCFCF92DF92EF92FF920F9322
:1011D0001F93CF93DF93CDB7DEB72C970FB6F8945C
:1011E000DEBF0FBECDBF7C016B011A8219821C824B
:1011F0001B821E821D828AE38F8318868E01095FFF
:101200001F4FF80101900020E9F73197AF01401B13
:10121000510BB801CE0101960E94840818861F82E6
:101220001A8619861C861B86F701608171816115FB
:10123000710529F044815581C8010E948408BE01CE
:101240006F5F7F4FC8010E945108B6010E9451088C
:10125000FC0144815581608171818EE692E00E949B
:10126000840365E871E08EE692E00E940008C80100
:101270000E942108CE0101960E9421082C960FB6EB
:10128000F894DEBF0FBECDBFDF91CF911F910F91BC
:10129000FF90EF90DF90CF900895FC0111821082B3
:1012A0001382128215821482FB0101900020E9F75B
:1012B0003197AF01461B570B0C9484084F925F92F5
:1012C0006F927F928F929F92AF92BF92CF92DF9256
:1012D000EF92FF920F931F93CF93DF93CDB7DEB7BB
:1012E000AC970FB6F894DEBF0FBECDBF6D877E877B
:1012F0008F87988B2D8F3E8F4F8F58A30E94B102FE
:101300004B015C0180916A0290916B02A0916C028A
:10131000B0916D02B501A401481B590B6A0B7B0B00
:1013200080913A0190913B01092E000CAA0BBB0B56
:10133000481759076A077B0708F448C2809168027A
:101340009091690290936702809366028091640293
:1013500090916502909363028093620280915F0294
:10136000811105C081E080935F020E948806F89495
:1013700080916002909161027894909369028093C9
:10138000680280915F02811105C081E080935F0255
:101390000E948806F89400915D0210915E02789494
:1013A00010936502009364020E94B10280926A0267
:1013B00090926B02A0926C02B0926D0220912E016D
:1013C00030912F01409130015091310160913601EF
:1013D0007091370180913801909139010E94A719CD
:1013E0006B017C0160913A0170913B01072E000C6A
:1013F000880B990B0E94DB1720E030E04AE754E4A9
:101400000E94A7194B015C0160916802709169020A
:101410008091660290916702681B790B072E000C81
:10142000880B990B0E94DB17A70196010E943A18BE
:10143000A50194010E94A7199B01AC016D857E85D1
:101440008F8598890E9435192B013C018091620299
:1014500090916302B801681B790B072E000C880B72
:10146000990B0E94DB17A70196010E943A18A5016B
:1014700094010E94A7199B01AC016D8D7E8D8F8D0B
:1014800098A10E9435196B017C0120914401309193
:1014900045014091460150914701C301B2010E94AC
:1014A00036194B015C018092440190924501A09253
:1014B0004601B09247012091480130914901409185
:1014C0004A0150914B01C701B6010E943619698F3C
:1014D0007A8F8B8F9C8F6093480170934901809322
:1014E0004A0190934B0120913C0130913D01409184
:1014F0003E0150913F01298B3A8B4B8B5C8B809145
:10150000400190914101A0914201B09143018D8B26
:101510009E8BAF8BB88FC301B2010E943A182B018A
:101520003C012D893E894F89588DC501B4010E9427
:101530003A189B01AC01C301B2010E9436190E9406
:10154000191ACB010E94DE0529893A894B895C89E9
:10155000C701B6010E943A186B017C012D893E89B2
:101560004F89588D698D7A8D8B8D9C8D0E943A188C
:101570009B01AC01C701B6010E9436190E94191ADD
:10158000CB010E94B8050E94B102698B7A8B8B8BCC
:101590009C8B60936C0370936D0380936E039093A8
:1015A0006F038091680390916903A0916A03B091E1
:1015B0006B0329893A894B895C89281B390B4A0BB3
:1015C0005B0BCA01B901623371058105910508F40D
:1015D000FDC00E94D91720E030E04AE754E40E94A1
:1015E000A7192B013C012D8D3E8D4F8D58A16D8586
:1015F0007E858F8598890E9436196B017C018091C8
:101600005C0390915D03A0915E03B0915F0389A399
:101610009AA3ABA3BCA38090640390906503A090B1
:101620006603B0906703C501B4010E94931A6D8BE5
:101630007E8B8F8B988F2091600330916103409156
:101640006203509163032DA33EA34FA358A7C50186
:10165000B4010E94A21969A77AA78BA79CA72D8D18
:101660003E8D4F8D58A16D857E858F8598890E940E
:10167000D4178111C2C020E030E040E05FE3C70131
:10168000B6010E943A186B017C0129A53AA54BA529
:101690005CA50E943A18A30192010E943A1829A160
:1016A0003AA14BA15CA10E94361960935C03709330
:1016B0005D0380935E0390935F03A70196016D899C
:1016C0007E898F89988D0E943A18A30192010E9409
:1016D0003A182DA13EA14FA158A50E94361960933A
:1016E000600370936103809362039093630389891D
:1016F0009A89AB89BC898093680390936903A0930E
:101700006A03B0936B0340915C0350915D03609159
:101710005E0370915F03CE0107960E94A50868E8FA
:1017200071E0CE0101960E944D09BE01695F7F4FB5
:10173000CE0101960E94E308CE0101960E94210885
:10174000CE0107960E9421084091600350916103E9
:101750006091620370916303CE0107960E94A50811
:1017600063E971E0CE0101960E944D09BE01695FF7
:101770007F4FCE0101960E94E308CE0101960E94A0
:101780002108CE0107960E942108409164035091E0
:1017900065036091660370916703CE0107960E940E
:1017A000A5086EE971E0CE0101960E944D09BE01C7
:1017B000695F7F4FCE0101960E94E308CE0101963A
:1017C0000E942108CE0107960E942108AC960FB610
:1017D000F894DEBF0FBECDBFDF91CF911F910F9167
:1017E000FF90EF90DF90CF90BF90AF909F908F9041
:1017F0007F906F905F904F900895809170039091CB
:101800007103A0917203B0917303898F9A8FAB8F8C
:10181000BC8F2D853E854F8558896D8D7E8D8F8D32
:1018200098A10E9435196D877E878F87988B20E05D
:1018300030E040E05FE3698D7A8D8B8D9C8D0E9456
:101840003A18A70196010E943A182D853E854F85CA
:1018500058890E94A7196B017C01298D3A8D4B8D07
:101860005C8D6D857E858F8598890E94A719A3015F
:1018700092010E943A18A50194010E9436196D87C1
:101880007E878F87988B0E94931A2B013C01A701BA
:1018900096016D897E898F89988D0E943A189B01E7
:1018A000AC0169A17AA18BA19CA10E9435194B01C1
:1018B0005C01A3019201C701B6010E943A189B0185
:1018C000AC01C501B4010E94361960935C037093AA
:1018D0005D0380935E0390935F036D857E858F85A6
:1018E00098890E94A2192B013C0129A53AA54BA574
:1018F0005CA5C701B6010E943A182DA13EA14FA1D7
:1019000058A50E9436194B015C01A3019201C70141
:10191000B6010E943A189B01AC01C501B4010E94B6
:101920003519609360037093610380936203909311
:1019300063032D853E854F8558892093640330933A
:1019400065034093660350936703D1CECF92DF9235
:10195000EF92FF92109244011092450110924601BD
:1019600010924701109248011092490110924A01C9
:1019700010924B0190E080E00E94DE0590E080E054
:101980000E94B8050E94B1026B017C010E94B10265
:101990006C197D098E099F09693E73408105910587
:1019A00058F420E030E048E452EC60E070E088E475
:1019B00092E40E945E09EACF90E080E00E94DE059A
:1019C00090E080E00E94B80581E0FF90EF90DF900A
:1019D000CF9008951F93CF93DF9385ED8093BC0044
:1019E0008091B9019091BA01A091BB01B091BC0165
:1019F0000796A11DB11D23E0B695A79597958795EC
:101A00002A95D1F72091BC0024FD03C01092010259
:101A100052C04091B9015091BA016091BB017091DF
:101A2000BC01452B462B472B69F30097A105B10557
:101A300041F025E32A95F1F700000197A109B109CA
:101A4000E1CF8091B801C1E0C093B701882399F13B
:101A5000D091B8001091BA008091BC008A7B80932D
:101A6000BC0060E082E00E942C0260E083E00E9403
:101A70002C0210920102C09303021092020261E054
:101A800082E00E942C0261E083E00E942C0280919F
:101A9000B9008E7F8093B9008091B9008D7F8093CB
:101AA000B90088E48093B80085E48093BC0010936B
:101AB000BA00D093B800DF91CF911F9108951F9283
:101AC0000F920FB60F9211242F933F938F939F93F2
:101AD000AF93BF938091470290914802A091490231
:101AE000B0914A023091460223E0230F2D3758F57A
:101AF0000196A11DB11D2093460280934702909349
:101B00004802A0934902B0934A0280914B029091FF
:101B10004C02A0914D02B0914E020196A11DB11D43
:101B200080934B0290934C02A0934D02B0934E02CF
:101B3000BF91AF919F918F913F912F910F900FBEC9
:101B40000F901F90189526E8230F0296A11DB11D36
:101B5000D2CF1F920F920FB60F9211242F933F9363
:101B60004F935F936F937F938F939F93AF93BF93A5
:101B7000EF93FF93E0911401F09115010995FF9106
:101B8000EF91BF91AF919F918F917F916F915F91F5
:101B90004F913F912F910F900FBE0F901F9018956E
:101BA0001F920F920FB60F9211242F933F934F93D2
:101BB0005F936F937F938F939F93AF93BF93EF93B5
:101BC000FF93E0911201F09113010995FF91EF91BC
:101BD000BF91AF919F918F917F916F915F914F9145
:101BE0003F912F910F900FBE0F901F9018951F924D
:101BF0000F920FB60F9211242F933F934F935F9341
:101C00006F937F938F939F93AF93BF93EF93FF93C4
:101C1000E0911001F09111010995FF91EF91BF91B1
:101C2000AF919F918F917F916F915F914F913F9174
:101C30002F910F900FBE0F901F9018951F920F922B
:101C40000FB60F9211242F933F934F935F936F938F
:101C50007F938F939F93AF93BF93EF93FF93E09105
:101C60000E01F0910F010995FF91EF91BF91AF9196
:101C70009F918F917F916F915F914F913F912F91A4
:101C80000F900FBE0F901F9018951F920F920FB6D6
:101C90000F9211242F933F934F935F936F937F93F2
:101CA0008F939F93AF93BF93EF93FF93E0910C01BA
:101CB000F0910D010995FF91EF91BF91AF919F9127
:101CC0008F917F916F915F914F913F912F910F90E5
:101CD0000FBE0F901F9018951F920F920FB60F9284
:101CE00011248F939F938091E1009091E100937F65
:101CF0009093E10083FF0FC01092E90091E0909370
:101D0000EB001092EC0092E39093ED0010925C02D5
:101D100098E09093F00082FF22C093E09093E90056
:101D20009091F200992319F09AE39093E800909132
:101D30004302992341F090914302915090934302C2
:101D4000911101C05D9A90915B02992341F09091AD
:101D50005B02915090935B02911101C0289A84FF1D
:101D600018C08091E2008E7E81608093E2008091B5
:101D7000E1008F7E8093E100809144028E7E80613D
:101D8000809344029F918F910F900FBE0F901F90F0
:101D9000189580FFF7CF8091E2008E7E806180935E
:101DA000E2008091E1008E7E8093E1008091440208
:101DB0008E7E8160E5CF1F920F920FB60F92112495
:101DC000CF92DF92EF92FF920F931F932F933F9347
:101DD0004F935F936F937F938F939F93AF93BF9333
:101DE000EF93FF93CF93DF93CDB7DEB76C97DEBF52
:101DF000CDBF1092E9008091E80083FF25C068E024
:101E0000CE0145960E94770382EF8093E8008D898A
:101E100087FF39C09091E80090FFFCCF982F907613
:101E200009F034C19E894F89588D2F89F88C911102
:101E300031C0803861F5809145028093F1001092A5
:101E4000F1008EEF8093E8006C960FB6F894DEBF39
:101E50000FBECDBFDF91CF91FF91EF91BF91AF91B9
:101E60009F918F917F916F915F914F913F912F91B2
:101E70001F910F91FF90EF90DF90CF900F900FBECA
:101E80000F901F9018959EEF9093E800C7CF109287
:101E9000F100D5CF913059F48111D3CF41305105A4
:101EA00081F6809145028D7F80934502CACF9330A1
:101EB00049F48111C6CF4130510519F68091450290
:101EC0008260F2CF953041F48091E80080FFFCCF32
:101ED00020682093E300B5CF963009F0A9C00B8DA0
:101EE0001C8D22E01092E9001092410210924002F3
:101EF000F2122EC010923F0210923E020E94460340
:101F00001F8299E09983FA8291E09E8390EA9887F4
:101F10009AEF99872091400230914102275F3F4F0D
:101F20003C832B838D831092E90010924102109222
:101F3000400210933F0200933E0249E050E0BE0190
:101F40006F5F7F4F80E00E9420030E94460379CF9D
:101F500010933F0200933E020E94CC01DC011296D6
:101F60000D911C910115110509F451C1D801ED9194
:101F7000FC910480F581E02DBE016B5E7F4FC801AE
:101F80000995009709F03EC1F80100851185EACF57
:101F9000F3E0FF120EC08F89882309F440C082301D
:101FA00061F440E862E18BE492E00E94ED0281116D
:101FB00048CF81E28093EB0047CF813029F440E89D
:101FC00062E188E392E0F1CF833099F70E94CC017F
:101FD000DC011296ED90FC908E010F5F1F4F68019F
:101FE000E114F10479F0D701ED91FC910680F781BD
:101FF000E02DB801C7010995080F111DF701E08414
:10200000F184EECFD8011C92F60101900020E9F78F
:102010003197BF016C197D0940E0C601C6CF62E26D
:1020200072E0FB01449150E080E80E94200309CF58
:10203000973009F4BECF983021F481E08093F1000D
:1020400000CF993009F0FDCE837009F0B2CFE5E5FD
:10205000F1E081E031E096E32191222371F0809359
:10206000E9003093EB00DF0111972C912093EC00F5
:102070009093ED008F5F873079F78EE78093EA00C9
:102080001092EA008F8980935C02DBCE8B8D9C8D51
:102090001092E900109241021092400290933F0288
:1020A00080933E02898D811192C08E899D89913ADB
:1020B00049F4813209F07DCF47E050E064E071E0FF
:1020C00080E0B3CF913209F074CF833269F48F8905
:1020D000988DB0E0A0E08093000190930101A0935F
:1020E0000201B0930301ADCE803269F48091E80023
:1020F00082FFFCCF67E084E091E00E9477038BEFE2
:102100008093E8009ECE823209F09BCE8F89809327
:102110000B01EEEFFFE7859194918B3F9C4D51F1C0
:10212000E0E0F8E08091040190910501A0910601A2
:10213000B0910701803B9440A105B105F1F4809175
:102140000B0180FD1AC0EE3F8AE0F80789F587E7AA
:1021500097E791838083809160008093420288E1B9
:102160009BE00FB6F894A895809360000FBE909303
:10217000600067CEEEEFFAE0D5CF8081918187379E
:10218000974709F05ECEA8958091600088618093A2
:1021900060008091420280936000EE3F2AE0F207E7
:1021A00089F08091FE0A9091FF0A9183808349CE45
:1021B000808191818737980751F29093FF0A80932D
:1021C000FE0AC5CF1092FF0A1092FE0A3ACE0E9474
:1021D000CC01DC0112960D911C910115110509F439
:1021E000E8CED801ED91FC910190F081E02DBE0187
:1021F0006B5E7F4FC8010995811123CEF8010085E0
:102200001185EBCF181619060CF41BCED2CEF1E0D7
:10221000FF12BECE66E272E004CF1F920F920FB69D
:102220000F9211242F933F934F935F936F937F935C
:102230008F939F93AF93BF93EF93FF938EE692E0BC
:102240000E940204FF91EF91BF91AF919F918F91F6
:102250007F916F915F914F913F912F910F900FBEA2
:102260000F901F9018951F920F920FB60F92112486
:102270002F938F939F93EF93FF93E0917E02F091C2
:102280007F028081E0918402F091850282FD1BC073
:102290009081809187028F5F8F73209188028217CF
:1022A00041F0E0918702F0E0E259FD4F958F809375
:1022B0008702FF91EF919F918F912F910F900FBE09
:1022C0000F901F9018958081F4CF1F920F920FB638
:1022D0000F9211242F933F934F935F936F937F93AC
:1022E0008F939F93AF93BF93EF93FF93CF93DF931E
:1022F00000D01F92CDB7DEB783B1898389819091D9
:102300005B0389278A8380916B009A8189238B8361
:102310008B8180FF05C0E0912E02F0912F0209957C
:102320008B8181FF05C0E0913002F0913102099567
:102330008B8182FF05C0E0913202F0913302099552
:102340008B8183FF05C0E0913402F091350209953D
:102350008B8184FF05C0E0913602F0913702099528
:102360008B8185FF05C0E0913802F0913902099513
:102370008B8186FF05C0E0913A02F0913B020995FE
:102380008B8187FF05C0E0913C02F0913D020995E9
:10239000898180935B030F900F900F90DF91CF9115
:1023A000FF91EF91BF91AF919F918F917F916F912D
:1023B0005F914F913F912F910F900FBE0F901F9003
:1023C00018951F920F920FB60F9211242F933F93DF
:1023D0004F935F936F937F938F939F93AF93BF932D
:1023E000EF93FF938091B900887F803609F44AC04B
:1023F000F0F5883209F4A5C018F5803109F499C0C8
:10240000B8F4882309F4F5C0883009F492C0FF912C
:10241000EF91BF91AF919F918F917F916F915F915C
:102420004F913F912F910F900FBE0F901F901895D5
:10243000883109F486C0803251F78093000214C0BD
:10244000803409F49BC040F48033B9F38833F9F643
:102450008093000285ECAEC0803509F483C08835D6
:1024600009F494C0883499F60E94EA0CD0CF8839D8
:1024700009F48AC038F5883729F050F4883611F00D
:10248000803729F683E0809301021092FF0155C046
:10249000883809F479C0803919F0803809F0B7CF4D
:1024A0008091FF01803208F06FC0E091FF0181E070
:1024B0008E0F8093FF018091BB00F0E0E152FE4F50
:1024C00080833BC0803B39F0D0F4803A09F477C078
:1024D000883A09F09CCF84E0809301021092DE01DB
:1024E0001092DD01F0E0E0E009958091DD018111BD
:1024F0000FC081E08093DD011092BD0109C0803CD6
:1025000009F4A8CF883C09F4A5CF883B09F07FCF18
:10251000E091DE0181E08E0F8093DE01F0E0E35474
:10252000FE4F80818093BB009091DE018091DD01A0
:1025300029C0809126028093BB0085EC8093BC006B
:1025400066CF9091250280912402981758F5E0916A
:10255000250281E08E0F80932502F0E0EC5FFD4FB5
:102560008081E9CFE091250281E08E0F80932502E2
:102570008091BB00F0E0EC5FFD4F808390912502DD
:10258000809124029817C8F285E8D8CFE0912502FF
:1025900081E08E0F809325028091BB00F0E0EC5F1C
:1025A000FD4F80838091030281115ECF81E0809393
:1025B000020284EA8093BC001092010228CF85ECCD
:1025C0008093BC00109201028091FF01803230F4B0
:1025D000E091FF01F0E0E152FE4F10826091FF01B7
:1025E00070E08FED91E0F0E0E0E009951092FF01DE
:1025F0000ECF1092000238CFEEE6F2E01382128284
:1026000088EE93E0A0E0B0E084839583A683B7834F
:102610002FE531E0318320832DEC30E035872487AE
:102620002CEC30E03787268728EC30E0318B208B8C
:1026300029EC30E0338B228B2AEC30E0358B248B75
:102640002EEC30E0378B268B118E128E138E148E6B
:10265000EBE0F3E01382128284839583A683B78331
:1026600081E791E0918380838FEF9FEF9587848747
:1026700083B180935B0380E090EEAEE0B3E480939F
:10268000700390937103A0937203B093730367E890
:1026900071E084E793E00E944D090E94B102EAE7ED
:1026A000F3E01282158210868EE0818781E08287B6
:1026B000838783E891E0918380830895789484B53B
:1026C000826084BD84B5816084BD85B5826085BD2E
:1026D00085B5816085BD80916E00816080936E00BC
:1026E00010928100809181008260809381008091AE
:1026F000810081608093810080918000816080935F
:10270000800080919100826080939100809191007F
:10271000816080939100809190008160809390000F
:102720008091C10084608093C1008091C10082606B
:102730008093C1008091C10081608093C10080912D
:10274000C30081608093C3008091C0008260809349
:10275000C0008091C20081608093C20080917A00A5
:10276000846080937A0080917A00826080937A00FE
:1027700080917A00816080937A0080917A008068ED
:1027800080937A0010925C021092450210924402EB
:102790008091D70081608093D70080EA8093D80031
:1027A00089B5806189BD89B5826089BD09B400FEA3
:1027B000FDCF61E070E080E090E00E947F028091B8
:1027C000D8008F7C80618093D8008091E000807F6A
:1027D0008093E0008091E1008E7E8093E1008DE0A7
:1027E0008093E200559A209A0E94B1026093680398
:1027F0007093690380936A0390936B0310925C0358
:1028000010925D0310925E0310925F0310926003BA
:10281000109261031092620310926303109264039A
:102820001092650310926603109267038FEF9FEF7B
:10283000909318038093170364E670E080E090E0C3
:102840000E947F026EEA71E08BE093E00E94000834
:1028500065E871E08BE093E00E940008E0917E0261
:10286000F0917F0282E08083E0917A02F0917B0216
:102870001082E0917C02F0917D0280E180831092D1
:102880008602E0918202F091830286E08083E091EB
:102890008002F0918102808180618083E0918002DA
:1028A000F0918102808188608083E0918002F091C4
:1028B0008102808180688083E0918002F0918102B2
:1028C00080818F7D808361E080E00E942C026DEA30
:1028D00071E08BE093E00E94000865E871E08BE016
:1028E00093E00E94000880E0282E80E0382EC5E0AA
:1028F000D0E088248394912C04E010E023E0E22EC1
:10290000F12C32E0C32ED12CAA24AA94BA2CE09147
:102910001601F0911701E730F10508F085C0ED567A
:10292000FB4E0C942F199A14A914F5142015511567
:10293000691576150E946307882321F0B09219016A
:10294000A092180110921701109216010E9404061D
:102950006BC0109228011092290110922A01109246
:102960002B01D0932D01C0932C010E94630781118C
:10297000E9CF409028015090290160902A01709081
:102980002B0120E030E040E251E4C301B2010E949B
:10299000D41787FF0DC080912C0190912D010397D2
:1029A00089F2D0921701C09216010E94A60CCECFD8
:1029B00020E030E044E352E4C301B2010E94D417A6
:1029C00087FF0AC020E030E04CE552E4C301B201C9
:1029D0000E948E1A18162CF320E030E048EC52E4E6
:1029E000CA01B9010E945E091FC010922001109215
:1029F00021011092220110922301D0932D01C09346
:102A00002C018091180190911901059729F41093D8
:102A10001701009316019ACF0E94A60C0E9404068B
:102A2000F0921701E09216012114310409F46FCFDE
:102A30000E94EE03882309F46ACF0E94000067CF4A
:102A40001092240110922501109226011092270164
:102A5000D0932D01C0932C01809118019091190100
:102A60000597A9F220E030E0A90160912001709162
:102A7000210180912201909123010E948E1A181643
:102A80004CF40E94A60C0E940406909217018092BA
:102A900016015CCF10921701109216010E940406D5
:102AA00055CF20E030E048E453E4CA01B9010E9468
:102AB0005E09D0931701C09316010E94040680910D
:102AC0001A0190911B01019690931B0180931A01AA
:102AD000ABCF109228011092290110922A01109276
:102AE0002B0120E030E048EC52EC7ACF10921F012D
:102AF00010921E0199CF84E793E00C942108EF9285
:102B00000F931F93CF93DF93E80134E047FD34E147
:102B1000042E000C550B57FF03C0519541955109E8
:102B2000E32E022F242FAE010E949D15CE01DF91CE
:102B3000CF911F910F91EF900895A9E0B0E0E3EAE3
:102B4000F5E10C94FE186A01F22EB02E102FFBE373
:102B5000AF2EA01608F41BE31F5F012F27E0AE0184
:102B60004F5F5F4F0E94FC16BC018981982F9970BE
:102B7000913009F43FC09BE2E1FC04C09E2D9170AE
:102B8000E0FC3AC05E2D5071E82FE87083FF46C02C
:102B900084E0911101C083E0EF2DE81B8F1508F050
:102BA000E0E0D6018E2F20E2552351F1992329F040
:102BB000D6019C93C60101966C0196012D5F3F4F93
:102BC000E2FE24C08EE4D6018C9391E411969C938E
:102BD000119712968C93D9018E2F90E281111BC010
:102BE000E20FF32FF11D10828EEF9FEF2996ECE09C
:102BF0000C941A199DE2C6CF90E2C4CF2D93815058
:102C00008111FCCFCE0ED11CE0E0D0CF8EE6D601F4
:102C10008C9391E6DBCF9D938150E0CF482F447099
:102C200082FF3DC084E0911101C083E08F1510F454
:102C3000EF2DE81BD6018E2F20E2552309F19923B1
:102C400029F0D6019C93C60101966C0196012D5F77
:102C50003F4FE2FE1BC089E4D6018C938EE41196AF
:102C60008C93119786E412968C93D9018E2F90E263
:102C7000882309F4B5CF9D938150FACF2D938150CD
:102C80008111FCCFCE0ED11CE0E0D9CF89E6D60170
:102C90008C938EE611968C93119786E6E4CF9B0178
:102CA00077FF02C030E020E0A1E0B0E0911102C067
:102CB000B0E0A0E0F9013196AE0FBF1F8B2C912C34
:102CC000BB2009F461C05401EFEFAE1ABE0AAA0D91
:102CD000BB1DFA161B0619F014F04F2D4A1B51119B
:102CE00088C0E3FC59C07601A42FB0E2A1114FC007
:102CF000C40ED11C992309F45BC040E0D6011196A3
:102D0000F60190836D01552309F448C0012F060F89
:102D10009A81582F507184FF03C0913309F40150F8
:102D200010160CF047C0093008F008E0EEE2FE2E65
:102D30005B01A01AB10885019194819491082F3FFD
:102D4000320729F4D601FC92F60131966F01621721
:102D5000730794F1021713077CF5DB01A21BB30B79
:102D6000AA24A394B12CAC0EBD1EAA0DBB1D1196B6
:102D70008C9121503109D601119628153905F4F0AE
:102D8000F60180836D01DBCFB12CA12CA0CFF70120
:102D9000B1937F01A150AACF9111B0CFD601942F4A
:102DA00050E302C05D9391509111FCCFC40ED11C31
:102DB00040E0ACCF01E0BACF80E3DBCF621773070E
:102DC00031F4963388F4953311F4552369F0F60104
:102DD0008083FD01842F90E2811108C0A40FB11DF2
:102DE0001C9290E080E002CF81E3F1CF919381507B
:102DF000F3CF911183CF8ACF283008F027E0332713
:102E0000DA01990F311D87FD91600096610571050A
:102E100039F432602E5F3D9330E32A95E1F708954F
:102E20009F3F30F080387105610509F03C5F3C5FE1
:102E30003D93913008F08068911DDF93CF931F93ED
:102E40000F93FF92EF92192F987F9695E92F969501
:102E50009695E90FFF27EC5DFE4F99273327EE2467
:102E6000FF24A701E70105900894079428F4360F82
:102E7000E71EF81E491F511D660F771F881F991FF7
:102E80000694A1F70590079428F4E70EF81E491F51
:102E9000561FC11D770F881F991F661F0694A1F743
:102EA0000590079428F4F80E491F561FC71FD11D1F
:102EB000880F991F661F771F0694A1F70590079446
:102EC00020F4490F561FC71FD81F990F661F771F81
:102ED000881F0694A9F784911095177041F0D69534
:102EE000C79557954795F794E7941A95C1F7EAEC7B
:102EF000F0E0689415901591359165919591059044
:102F00007FE27395E118F10A430B560BC90BD00908
:102F1000C0F7E10CF11E431F561FC91FD01D7EF4E0
:102F2000703311F48A95E6CFE894015030F0080F21
:102F30000AF40027021708F4202F2395022F7A3372
:102F400028F079E37D932A95E9F710C07D932A95BF
:102F500089F6069497956795379517951794E11814
:102F6000F10A430B560BC90BD00998F023957E91BB
:102F700073957A3308F070E37C932013B8F77E9151
:102F800070617D9330F0839571E37D9370E32A95B2
:102F9000E1F71124EF90FF900F911F91CF91DF91F6
:102FA000992787FD909508950E94161808F481E0EE
:102FB0000895E89409C097FB3EF49095809570952C
:102FC00061957F4F8F4F9F4F9923A9F0F92F96E975
:102FD000BB279395F695879577956795B795F111EA
:102FE000F8CFFAF4BB0F11F460FF1BC06F5F7F4F87
:102FF0008F4F9F4F16C0882311F096E911C0772399
:1030000021F09EE8872F762F05C0662371F096E8A1
:10301000862F70E060E02AF09A95660F771F881F70
:10302000DAF7880F9695879597F90895990F000814
:10303000550FAA0BE0E8FEEF16161706E807F9078A
:10304000C0F012161306E407F50798F0621B730B25
:10305000840B950B39F40A2661F0232B242B252BA6
:1030600021F408950A2609F4A140A6958FEF811D49
:10307000811D08950E944D180C94BE180E94B0182E
:1030800038F00E94B71820F0952311F00C94A7187F
:103090000C94AD1811240C94F2180E94CF1870F300
:1030A000959FC1F3950F50E0551F629FF001729FED
:1030B000BB27F00DB11D639FAA27F00DB11DAA1FFC
:1030C000649F6627B00DA11D661F829F2227B00D49
:1030D000A11D621F739FB00DA11D621F839FA00DD4
:1030E000611D221F749F3327A00D611D231F849F24
:1030F000600D211D822F762F6A2F11249F5750407B
:103100009AF0F1F088234AF0EE0FFF1FBB1F661FF5
:10311000771F881F91505040A9F79E3F510580F0BE
:103120000C94A7180C94F2185F3FE4F3983ED4F384
:10313000869577956795B795F795E7959F5FC1F762
:10314000FE2B880F911D9695879597F9089597F90D
:103150009F6780E870E060E008959FEF80EC08953D
:1031600000240A9416161706180609060895002466
:103170000A9412161306140605060895092E0394E0
:10318000000C11F4882352F0BB0F40F4BF2B11F454
:1031900060FF04C06F5F7F4F8F4F9F4F089557FDB3
:1031A0009058440F551F59F05F3F71F04795880FB5
:1031B00097FB991F61F09F3F79F08795089512164C
:1031C00013061406551FF2CF4695F1DF08C01616F8
:1031D00017061806991FF1CF8695710561050894A9
:1031E0000895E894BB2766277727CB0197F90895C0
:1031F0002F923F924F925F926F927F928F929F9207
:10320000AF92BF92CF92DF92EF92FF920F931F93F4
:10321000CF93DF93CDB7DEB7CA1BDB0B0FB6F894A5
:10322000DEBF0FBECDBF09942A88398848885F84E5
:103230006E847D848C849B84AA84B984C884DF8056
:10324000EE80FD800C811B81AA81B981CE0FD11D3A
:103250000FB6F894DEBF0FBECDBFED010895EE0F9F
:10326000FF1F0590F491E02D09945058BB27AA2721
:103270000E944D190C94BE180E94B01838F00E949C
:10328000B71820F039F49F3F19F426F40C94AD18C8
:103290000EF4E095E7FB0C94A718E92F0E94CF18D5
:1032A00058F3BA17620773078407950720F079F47B
:1032B000A6F50C94F1180EF4E0950B2EBA2FA02D64
:1032C0000B01B90190010C01CA01A0011124FF27D3
:1032D000591B99F0593F50F4503E68F11A16F040CE
:1032E000A22F232F342F4427585FF3CF46953795CD
:1032F0002795A795F0405395C9F77EF41F16BA0B92
:10330000620B730B840BBAF09150A1F0FF0FBB1F3F
:10331000661F771F881FC2F70EC0BA0F621F731F88
:10332000841F48F4879577956795B795F7959E3FE5
:1033300008F0B0CF9395880F08F09927EE0F979576
:10334000879508950E94511AE3950C947A1A0E9469
:10335000BB190C94BE180E94B71858F00E94B01800
:1033600040F029F45F3F29F00C94A71851110C94F8
:10337000F2180C94AD180E94CF1868F39923B1F39A
:10338000552391F3951B550BBB27AA27621773078B
:10339000840738F09F5F5F4F220F331F441FAA1F1F
:1033A000A9F335D00E2E3AF0E0E832D091505040DB
:1033B000E695001CCAF72BD0FE2F29D0660F771F89
:1033C000881FBB1F261737074807AB07B0E809F06F
:1033D000BB0B802DBF01FF2793585F4F3AF09E3FF4
:1033E000510578F00C94A7180C94F2185F3FE4F3A1
:1033F000983ED4F3869577956795B795F7959F5F37
:10340000C9F7880F911D9695879597F90895E1E082
:10341000660F771F881FBB1F621773078407BA07E1
:1034200020F0621B730B840BBA0BEE1F88F7E0953C
:1034300008950E94201A6894B1110C94F21808950E
:103440000E94D71888F09F5798F0B92F9927B75145
:10345000B0F0E1F0660F771F881F991F1AF0BA9538
:10346000C9F714C0B13091F00E94F118B1E008958D
:103470000C94F118672F782F8827B85F39F0B93F7F
:10348000CCF3869577956795B395D9F73EF49095EB
:103490008095709561957F4F8F4F9F4F08950C9445
:1034A000AD180E94D718D8F3E894E0E0BB279F57E7
:1034B000F0F02AED3FE049EC06C0EE0FBB0F661FAF
:1034C000771F881F28F0B23A62077307840728F035
:1034D000B25A620B730B840BE3959A9572F780389E
:1034E00030F49A95BB0F661F771F881FD2F790485C
:1034F0000C949D1AEF93E0FF07C0A2EA2AED3FE08B
:1035000049EC5FEB0E944D190E94BE180F90039486
:1035100001FC9058ECEAF0E00C94A91A0E941618ED
:1035200008F48FEF08959F930E94511A0F9007FCA3
:10353000EE5F0C947A1A9F3F31F0915020F48795FA
:1035400077956795B795880F911D9695879597F90B
:1035500008959F938F937F936F93FF93EF939B01B6
:10356000AC010E943A18EF91FF910E94BD1A2F9171
:103570003F914F915F910C943A18DF93CF931F9333
:103580000F93FF92EF92DF927B018C01689406C04B
:10359000DA2EEF010E944D18FE01E894A5912591C5
:1035A000359145915591A6F3EF010E944D19FE0109
:1035B0009701A801DA9469F7DF90EF90FF900F91DF
:1035C0001F91CF91DF9108950F931F93CF93DF93B6
:1035D0008230910510F482E090E0E0918803F09150
:1035E000890330E020E0B0E0A0E0309799F42115A5
:1035F000310509F44AC0281B390B24303105D8F5B0
:103600008A819B816115710589F1FB019383828316
:10361000FE0111C040815181028113814817590771
:10362000E0F04817590799F4109761F012960C933F
:10363000129713961C933296CF01DF91CF911F9171
:103640000F9108950093880310938903F4CF2115F7
:10365000310551F04217530738F0A901DB019A01F7
:10366000BD01DF01F801C1CFEF01F9CF90938903CC
:1036700080938803CDCFFE01E20FF31F81939193D6
:103680002250310939832883D7CF20918603309186
:103690008703232B41F42091500130915101309345
:1036A00087032093860320914E0130914F0121150D
:1036B000310541F42DB73EB740915201509153016D
:1036C000241B350BE0918603F0918703E217F30783
:1036D000A0F42E1B3F0B2817390778F0AC014E5F82
:1036E0005F4F2417350748F04E0F5F1F5093870335
:1036F00040938603819391939FCFF0E0E0E09CCFCD
:10370000CF93DF930097E9F0FC0132971382128286
:10371000A0918803B0918903ED0130E020E010977B
:10372000A1F420813181820F931F20918603309173
:1037300087032817390709F061C0F0938703E093E6
:103740008603DF91CF910895EA01CE17DF07E8F5F0
:103750004A815B819E0141155105B1F7E901FB8367
:10376000EA8349915991C40FD51FEC17FD0761F405
:10377000808191810296840F951FE9019983888346
:10378000828193819B838A83F0E0E0E012968D91A1
:103790009C9113970097B9F52D913C911197CD010C
:1037A0000296820F931F209186033091870328177A
:1037B000390739F6309751F5109289031092880332
:1037C000B0938703A0938603BCCFD383C283408189
:1037D0005181840F951FC817D90761F44E5F5F4F61
:1037E00088819981480F591F518340838A819B8129
:1037F000938382832115310509F0B0CFF0938903BB
:10380000E09388039ECFFD01DC01C0CF13821282BA
:10381000D7CFB0E0A0E0EFE0FCE10C94FA188C0107
:10382000009751F4CB010E94E41A8C01C801CDB776
:10383000DEB7E0E10C941619FC01E60FF71F9C01BE
:1038400022503109E217F30708F49DC0D901CD9148
:10385000DC911197C617D70798F0C530D10530F322
:10386000CE0104978617970708F3C61BD70B22973C
:10387000C193D1936D937C93CF010E94801BD6CFCF
:103880005B01AC1ABD0A4C018C0E9D1EA0918803F1
:10389000B0918903512C412CF12CE12C109731F57A
:1038A00080918603909187038815990509F05CC083
:1038B0004616570608F058C080914E0190914F016E
:1038C000009741F48DB79EB740915201509153013A
:1038D000841B950BE817F90708F055C0F093870390
:1038E000E0938603F90171836083A0CF8D919C9151
:1038F000119712966C90129713967C901397A815B7
:10390000B90559F56C0142E0C40ED11CCA14DB04A0
:1039100020F1AC014A195B09DA011296159780F083
:103920006282738251834083D9016D937C93E11449
:10393000F10471F0D7011396FC93EE93129776CFB2
:1039400022968C0F9D1FF90191838083F301EFCFA5
:10395000F0938903E093880369CF4816590608F469
:103960002C017D01D3019ACFCB010E94E41A7C0186
:10397000009749F0AE01B8010E94C61CC8010E9420
:10398000801B870153CF10E000E050CFFB01DC012A
:1039900002C001900D9241505040D8F70895FB01AC
:1039A000DC0101900D920020E1F7089511E0C6E6D8
:1039B000D1E004C0FE010E942F192196C736D1071D
:0639C000C9F7F894FFCFE7
:1039C600FFFFFFFF00E1000000000000BE02BE0294
:1039D600BE02BE02BE020000FFFF000000000000A3
:1039E60000000000000000000000000005000000CC
:1039F600B44400000C4258E95B4332000000003F2B
:103A0600CDCCCC3D0000000000000000A005000069
:103A16008A03800000C180810000000000000023AE
:103A2600048403B1036F04E203C003D4030000005F
:103A36000014058F0435052A057B05390557050051
:103A4600000000E2060D0A00506F736974696F6E1C
:103A56002F7800506F736974696F6E2F7900506FFD
:103A6600736974696F6E2F7468657461002F73656E
:063A7600747570282900A0
:00000001FF
