:100000000C94E9000C94D80A0C94B10A0C948A0A56
:100010000C94630A0C9411010C9411010C943C0A89
:100020000C9411010C94A00D0C94FF0A0C946E0B0F
:100030000C9411010C9411010C9411010C941101F8
:100040000C9411010C9411010C9411010C941101E8
:100050000C9411010C9411010C9411010C94F209EF
:100060000C9411010C9411010C9411010C941101C8
:100070000C9411010C9411010C9411010C941101B8
:100080000C9411010C9411010C9411010C941101A8
:100090000C9411010C9411010C9411010C94110198
:1000A0000C9411010C9411010C94110105A84CCD74
:1000B000B2D44EB93836A9020C50B9918688083CA2
:1000C000A6AAAA2ABE000000803F0000000025006A
:1000D00028002B002E003100000000002400270023
:1000E0002A002D0030000000000023002600290017
:1000F0002C002F000404040404030405020202027D
:1001000004030202020206060606060604040202B0
:100110000204040408020110408040102040804086
:10012000800802040180402010020110801020404D
:1001300040200000000200090F0000030401000C31
:1001400000000000000000000000000000000000AF
:1001500000080B0002020200000904000001020274
:1001600000000524001001052401010104240206F9
:100170000524060001070581031000400904010061
:10018000020A000000070502024000000705830282
:100190004000000403090412010002EF020140FBC9
:1001A0001F0023000101020301506F6C6F6C75206A
:1001B000436F72706F726174696F6E00506F6C6F15
:1001C0006C7520412D537461722033325534000018
:1001D0001C0E11241FBECFEFDAE0DEBFCDBF11E051
:1001E000A0E0B1E0ECEDF5E202C005900D92A4367E
:1001F000B107D9F722E0A4E6B1E001C01D92A23216
:10020000B207E1F710E0C9EED0E004C02197FE018B
:100210000E940E10C83ED107C9F70E94500E0C94E0
:10022000EC120C940000FC0180919B01882311F1D9
:100230003FB7F89482E08093E9002091F200822F8A
:1002400090E01816190614F481E090E0882339F044
:10025000289844E640939A014091F100408322237C
:1002600039F02091F200211103C02BE62093E80021
:100270003FBF08958FEF9FEF08952FB7F89483E065
:100280008093E9009091E800892F807295FF04C067
:100290009091F20080E4891B2FBF08958091920114
:1002A00081110DC082E080938E0184E080938F01E4
:1002B000109291011092900181E0809392018EE85A
:1002C00091E008953FB7F89480918A0190918B0155
:1002D000A0918C01B0918D0126B5A89B05C02F3F40
:1002E00019F00196A11DB11D3FBFBA2FA92F982F5C
:1002F0008827BC01CD01620F711D811D911D42E057
:10030000660F771F881F991F4A95D1F70895CF92DE
:10031000DF92EF92FF920E9462016B017C010E94CA
:1003200062016C197D098E099F09683E7340810541
:100330009105A8F3FF90EF90DF90CF9008952FB72D
:10034000F894609186017091870180918801909165
:1003500089012FBF0895089540917D0150917E013C
:1003600020917B0130917C0142175307B4F49091A6
:10037000E8009570E1F39091E80092FD19C0809338
:10038000F10080917D0190917E0101968F739927F4
:10039000892B19F48EEF8093E80080917D01909174
:1003A0007E01019690937E0180937D0181E0089506
:1003B00080E00895EF92FF920F931F93CF93DF9306
:1003C000F82E192FE62E042F81E0860F880F0E9449
:1003D000AC0183E00E94AC01CF2DD12FEC0EFD2E9D
:1003E000F11CCE15DF05B9F007FF13C0FE018491A3
:1003F0000E94AC01182F80E00E94AC01812321965D
:100400008111EFCFDF91CF911F910F91FF90EF906E
:1004100008958881EDCF81E0F5CFDF92EF92FF92D2
:100420000F931F93CF93DF93D82E8A01EB017B01AB
:10043000E40EF51ECE15DF0559F0D7FE12C0FE0101
:1004400084910E94AC0121968111F4CF0FEF1FEF30
:10045000C801DF91CF911F910F91FF90EF90DF9036
:1004600008958881EECF0F931F93CF93DF931F9250
:10047000CDB7DEB782E0898342E450E061E571E008
:1004800080E80E940D020E944E01DC0112960D913F
:100490001C910115110589F0D801ED91FC910280A4
:1004A000F381E02DBE016F5F7F4FC801099597FD75
:1004B00004C0F80100851185ECCF89810F90DF9190
:1004C000CF911F910F910895615030F02091F1006C
:1004D000FC0120830196F8CF289884E680939A0146
:1004E00008958F929F92AF92BF92CF92DF92EF9238
:1004F000FF920F931F93CF93DF936C017B018A01CF
:1005000080910B01882309F458C080919B018823B6
:1005100009F453C08091810180FF05C08091E00003
:1005200082608093E000E801B12C8AEFA82E93E06E
:10053000892E2AE3922E209711F4BB20B9F10E9454
:100540003D01811106C0AA94AA20B9F10E94870139
:10055000F2CF8C171D0611F00CF08C2F9FB7F8947A
:100560008092E9002091E80025FD02C09FBFE3CF03
:10057000282F30E0C21BD30BF701815020F04191AE
:100580004093F100FACFE20EF31EBB2021F09092CF
:10059000E800B12CEBCF8091E80085FDE7CF909289
:1005A000E800BB24B394209709F3F3CF5D9884E669
:1005B00080938001101611063CF081E090E0F60176
:1005C0009383828310E000E0C801DF91CF911F91F7
:1005D0000F91FF90EF90DF90CF90BF90AF909F90E2
:1005E0008F900895CF93DF931F92CDB7DEB76983C5
:1005F000DC01ED91FC910280F381E02D41E050E0BF
:10060000BE016F5F7F4F09950F90DF91CF910895E5
:10061000682F8DEA91E00C94F20283E08093E90068
:100620008091F200882319F08AE38093E80008950E
:100630000E943D0190E00895CF93DF931F92CDB7C4
:10064000DEB7FC018485958597FD08C02FEF3FEF4D
:10065000358724870F90DF91CF910895CE010196C1
:100660000E941301019719F4898190E0F3CF8FEF75
:100670009FEFF0CF0F931F93CF93DF931F92CDB7D0
:10068000DEB78C01FC018485958597FF0BC0CE01F8
:1006900001960E941301019771F4898190E0F8019D
:1006A00095878487F801848595850F90DF91CF9198
:1006B0001F910F9108958FEF9FEFF1CFFC0184857B
:1006C000958597FD0BC09FB7F89482E08093E90071
:1006D0008091F2009FBF90E0019608959FB7F89433
:1006E00082E08093E9008091F2009FBF90E008953E
:1006F0002E98269A2D98259A2A98229A2998219AF6
:100700002F98279A8AEA8093800089E1809381005C
:1007100084EA91E09093870080938600109289008C
:100720001092880010928B0010928A0010928D0017
:1007300010928C000895CF93DF93EC0180916A01B1
:10074000811105C081E080936A010E94780380E0F6
:10075000D7FF04C0D195C195D10981E0CD3291E098
:10076000D90714F0CCE2D1E0D0938900C09388007F
:10077000882329F0299A219ADF91CF910895299809
:10078000FACFCF93DF93EC0180916A01811105C00C
:1007900081E080936A010E94780380E0D7FF04C063
:1007A000D195C195D10981E0CD3291E0D90714F0FE
:1007B000CCE2D1E0D0938B00C0938A00882329F04B
:1007C0002A9A229ADF91CF9108952A98FACFE6E1EA
:1007D000F1E0108611861286138614861586168619
:1007E000178690E080E00E94C10390E080E00E94C4
:1007F0009B030E949F01EEEFF1E064877587868777
:1008000097871082118212821382148215821682B7
:100810001782108611861286138608958CB1282FB0
:1008200030E03595279535952795422F417083B156
:1008300090E054E0959587955A95E1F7822781706D
:10084000209168019091690160919F017091A001D0
:1008500024279827291B330B260F371F3093A0011D
:1008600020939F012091680190916901281729F038
:10087000941719F091E09093670180936801409379
:10088000690108959FB191708CB186FB882780F92A
:100890008927209165013091660140919C0150911A
:1008A0009D0129273827231B330B240F351F309335
:1008B0009D0120939C0130916501209166013817BC
:1008C00029F0291719F021E0209364018093650134
:1008D00090936601089524982C9A6A98729A6E985B
:1008E000769A8098889AF89491E090936800EBE665
:1008F000F0E08081806180832EE034E030937401E9
:10090000209373019BBB8091FD018F7E8093FD013D
:1009100083B19091FD018071892B8093FD017894C2
:1009200082E494E09093150180931401EAE6F0E0EC
:1009300080818F7C80618083EE9A8CB182FB8827D6
:1009400080F98093690193B18091690192959170CA
:100950008927809368011092A00110929F01109244
:1009600067018FB18170809366019CB180916601AF
:1009700096FB992790F989278093650110929D0134
:1009800010929C01109264010895CF92DF92EF9231
:10099000FF920E949F016B017C018091A1019091C7
:1009A000A201A091A301B091A401B701A601481B27
:1009B000590B6A0B7B0B8091340190913501092E04
:1009C000000CAA0BBB0B481759076A077B0708F4F2
:1009D00046C08091A7019091A8019093A6018093B1
:1009E000A5018091AB019091AC019093AA018093F5
:1009F000A90180919E01811105C081E080939E0133
:100A00000E946B04F89480919F019091A0017894CA
:100A10009093A8018093A70180919E01811105C048
:100A200081E080939E010E946B04F89480919C0168
:100A300090919D0178949093AC018093AB010E94BA
:100A40009F01C092A101D092A201E092A301F09275
:100A5000A40181E0FF90EF90DF90CF90089580E0B7
:100A6000F9CFCF93DF93DC0118968C911897811101
:100A700035C019962C91199730E0F901ED5EFE4FC3
:100A80002C503F4F81E018968C9318971A968C91B2
:100A90001A97882309F451C08491F90124912223E3
:100AA000C9F030E0220F331FF901E852FF4F4591A2
:100AB0005491F901E653FF4FC591D4912FB7F894A3
:100AC000FA013081982F909593239083E881E82B49
:100AD000E8832FBF8FE090E00197F1F719962C91F2
:100AE000199730E0F901EE5CFE4F8491F901ED5E5B
:100AF000FE4F94912C503F4FF9012491222309F489
:100B000083C0882309F43EC081508F3008F03AC07A
:100B1000E82FF0E0E257FA4F0C940E10DF05E305E2
:100B2000BD05D705DB05C205C205C205E605EC0516
:100B3000F005F405FA05C205FE058491F90124913A
:100B4000222309F4C7CF30E0220F331FF901E85206
:100B5000FF4F45915491F901E653FF4FC591D49150
:100B60002FB7F894FA019081382F3095892F83237D
:100B700080838881E32FE823ABCF809180008F773B
:100B800080938000E22FF0E0EE0FFF1FEA51FF4F4D
:100B9000C591D491E8819E2331E009F430E0832FA0
:100BA0001B962C9182278170DF91CF9108958091BF
:100BB00080008F7DE5CF80918000877FE1CF84B575
:100BC0008F7784BDDFCF84B58F7DFBCF8091900080
:100BD0008F7780939000D6CF809190008F7DF9CF52
:100BE00080919000877FF5CF8091C0008F778093B0
:100BF000C000C8CF8091C0008F7DF9CF8091C20026
:100C0000877F8093C200BECF80E0CACFFC010190F5
:100C10000020E9F73197AF01481B590BBC018DEA61
:100C200091E00C9471028F929F92AF92BF920F93BA
:100C30001F93CF93DF93CDB7DEB7A1970FB6F8948C
:100C4000DEBF0FBECDBF19A2423008F44AE08E01CC
:100C50000F5D1F4F842E912CB12CA12CA501940166
:100C60000E94EC0FE62FB901CA01EA30F4F4E05D0E
:100C7000D801EE938D01232B242B252B79F790E0BF
:100C800080E0109719F0CD010E940606A1960FB6DC
:100C9000F894DEBF0FBECDBFDF91CF911F910F91B2
:100CA000BF90AF909F908F900895E95CE1CF4F92F5
:100CB0005F926F927F928F929F92AF92BF92CF92EC
:100CC000DF92EF92FF920F931F93CF936B017C0102
:100CD000742EAC019B010E949E12882399F085E539
:100CE00091E0CF911F910F91FF90EF90DF90CF9007
:100CF000BF90AF909F908F907F906F905F904F903C
:100D00000C94060646015701E894B7F82FEF3FEF21
:100D10004FE75FE7C501B4010E949E1281110DC02B
:100D20002FEF3FEF4FE75FE7C501B4010E9481104D
:100D300018161CF489E591E0D4CF2FEF3FEF4FE771
:100D40005FE4C701B6010E94241218161CF48DE559
:100D500091E0C7CF2FEF3FEF4FE75FECC701B60140
:100D60000E94811087FDF3CF20E030E0A901C70188
:100D7000B6010E94811010E000E087FF08C08DE2FC
:100D80000E9408038C01F7FAF094F7F8F094C0E0A1
:100D900060E070E080E09FE37C1641F020E030E00E
:100DA00040E251E40E948B10CF5FF6CFA70196017D
:100DB0000E9415102B013C010E9404114B015C01A3
:100DC0004AE00E9413067C01E00EF11ECC23B1F133
:100DD000C501B4010E9433119B01AC01C301B201F2
:100DE0000E9414104B015C018EE20E940803E80E81
:100DF000F91EC15018F120E030E040E251E4C50195
:100E0000B4010E9429122B013C010E9404114B01E4
:100E1000B12CA12C4AE0C501B4010E941306E80ED2
:100E2000F91EC501B4010E9433119B01AC01C3013D
:100E3000B2010E9414104B015C01DBCFC701CF91BE
:100E40001F910F91FF90EF90DF90CF90BF90AF90E8
:100E50009F908F907F906F905F904F9008954F92EA
:100E60005F926F927F928F929F92AF92BF92CF923A
:100E7000DF92EF92FF92CF93DF93CDB7DEB7A097CB
:100E80000FB6F894DEBF0FBECDBF69837A838B8324
:100E90009C83298B3A8B4B8B5C8B20912801309162
:100EA000290140912A0150912B01609130017091EC
:100EB000310180913201909133010E948B104B01DE
:100EC0005C016091340170913501072E000C880B94
:100ED000990B0E94351120E030E04AE754E40E946B
:100EE0008B106B017C016091A7017091A80180912A
:100EF000A5019091A601681B790B072E000C880BA9
:100F0000990B0E943511A50194010E942912A70195
:100F100096010E948B109B01AC0169817A818B81C3
:100F20009C810E9414102B013C016091AB017091D7
:100F3000AC018091A9019091AA01681B790B072E41
:100F4000000C880B990B0E943511A50194010E9499
:100F50002912A70196010E948B109B01AC0169899F
:100F60007A898B899C890E9414106B017C012091E5
:100F70001E0130911F014091200150912101C301B8
:100F8000B2010E9415104B015C0180921E019092EB
:100F90001F01A0922001B0922101209122013091E5
:100FA00023014091240150912501C701B6010E94FF
:100FB00015106D877E878F87988B609322017093C1
:100FC00023018093240190932501209116013091F3
:100FD000170140911801509119012D833E834F83D1
:100FE000588780911A0190911B01A0911C01B0912A
:100FF0001D0189879A87AB87BC87C301B2010E9414
:1010000029122B013C0129853A854B855C85C50158
:10101000B4010E9429129B01AC01C301B2010E94DC
:1010200015100E94FD10CB010E94C1032D813E814D
:101030004F815885C701B6010E9429126B017C01BE
:1010400029853A854B855C856D857E858F85988958
:101050000E9429129B01AC01C701B6010E94151024
:101060000E94FD10CB010E949B030E949F016D8393
:101070007E838F83988760930E0270930F02809314
:1010800010029093110280910A0290910B02A0919C
:101090000C02B0910D022D813E814F815885281B95
:1010A000390B4A0B5B0BCA01B9016233710581052B
:1010B000910508F482C10E94331120E030E04AE734
:1010C00054E40E948B102B013C0129893A894B89F9
:1010D0005C8969817A818B819C810E9415106B01EA
:1010E0007C018091FE019091FF01A0910002B091DE
:1010F0000102898F9A8FAB8FBC8F809006029090EF
:101100000702A0900802B0900902C501B4010E9434
:1011100096126D8F7E8F8F8F98A32091020230914F
:10112000030240910402509105022D8B3E8B4F8BA0
:10113000588FC501B4010E9486106D877E878F8706
:10114000988B29893A894B895C8969817A818B815D
:101150009C810E948110811187C020E030E040E036
:101160005FE3C701B6010E9429126B017C012D8546
:101170003E854F8558890E942912A30192010E9441
:101180002912298D3A8D4B8D5C8D0E94151060932C
:10119000FE017093FF0180930002909301022D8D58
:1011A0003E8D4F8D58A1C701B6010E942912A3019F
:1011B00092010E9429122D893E894F89588D0E94E3
:1011C00015106093020270930302809304029093BF
:1011D00005028D819E81AF81B88580930A0290932C
:1011E0000B02A0930C02B0930D026091FE0170916E
:1011F000FF01809100029091010242E00E94570697
:1012000089E00E94080360910202709103028091BC
:1012100004029091050242E00E94570689E00E9474
:101220000803609106027091070280910802909174
:10123000090242E00E94570681E691E0A0960FB6AF
:10124000F894DEBF0FBECDBFDF91CF91FF90EF903E
:10125000DF90CF90BF90AF909F908F907F906F90D6
:101260005F904F900C9406068091120290911302A9
:10127000A0911402B091150289879A87AB87BC8729
:1012800029813A814B815C8169897A898B899C8922
:101290000E94141069837A838B839C8320E030E062
:1012A00040E05FE369857A858B859C850E942912E1
:1012B000A70196010E94291229813A814B815C8104
:1012C0000E948B106B017C0129853A854B855C85DA
:1012D00069817A818B819C810E948B10A30192018C
:1012E0000E942912A50194010E94151069837A8336
:1012F0008B839C830E9496122B013C012D8D3E8D89
:101300004F8D58A1C701B6010E9429129B01AC0163
:10131000698D7A8D8B8D9C8D0E9414104B015C0120
:10132000A3019201C701B6010E9429129B01AC01E1
:10133000C501B4010E9415106093FE017093FF0176
:10134000809300029093010269817A818B819C8154
:101350000E9486102B013C012D853E854F855889C2
:10136000C701B6010E9429122D893E894F89588DE7
:101370000E9415104B015C01A3019201C701B60147
:101380000E9429129B01AC01C501B4010E941410F6
:10139000609302027093030280930402909305020B
:1013A00029813A814B815C812093060230930702A8
:1013B00040930802509309020CCFA0960FB6F89400
:1013C000DEBF0FBECDBFDF91CF91FF90EF90DF90DA
:1013D000CF90BF90AF909F908F907F906F905F90D5
:1013E0004F9008951F920F920FB60F9211242F93D2
:1013F0003F938F939F93AF93BF938091860190917A
:101400008701A0918801B09189013091850123E085
:10141000230F2D3758F50196A11DB11D209385018D
:101420008093860190938701A0938801B0938901EE
:1014300080918A0190918B01A0918C01B0918D01D6
:101440000196A11DB11D80938A0190938B01A093F9
:101450008C01B0938D01BF91AF919F918F913F917E
:101460002F910F900FBE0F901F90189526E8230F15
:101470000296A11DB11DD2CF1F920F920FB60F92EF
:1014800011242F933F934F935F936F937F938F9389
:101490009F93AF93BF93EF93FF93E0911401F0916B
:1014A00015010995FF91EF91BF91AF919F918F9198
:1014B0007F916F915F914F913F912F910F900FBE50
:1014C0000F901F9018951F920F920FB60F92112434
:1014D0002F933F934F935F936F937F938F939F933C
:1014E000AF93BF93EF93FF93E0911201F09113013B
:1014F0000995FF91EF91BF91AF919F918F917F914E
:101500006F915F914F913F912F910F900FBE0F9070
:101510001F9018951F920F920FB60F9211242F93C0
:101520003F934F935F936F937F938F939F93AF936B
:10153000BF93EF93FF93E0911001F0911101099592
:10154000FF91EF91BF91AF919F918F917F916F919B
:101550005F914F913F912F910F900FBE0F901F9071
:1015600018951F920F920FB60F9211242F933F934D
:101570004F935F936F937F938F939F93AF93BF939B
:10158000EF93FF93E0910E01F0910F010995FF9108
:10159000EF91BF91AF919F918F917F916F915F91EB
:1015A0004F913F912F910F900FBE0F901F90189564
:1015B0001F920F920FB60F9211242F933F934F93C8
:1015C0005F936F937F938F939F93AF93BF93EF93AB
:1015D000FF93E0910C01F0910D010995FF91EF91BE
:1015E000BF91AF919F918F917F916F915F914F913B
:1015F0003F912F910F900FBE0F901F9018951F9243
:101600000F920FB60F9211248F939F938091E10058
:101610009091E100937F9093E10083FF0FC01092BF
:10162000E90091E09093EB001092EC0092E390932C
:10163000ED0010929B0198E09093F00082FF22C091
:1016400093E09093E9009091F200992319F09AE3C6
:101650009093E80090918001992341F0909180014E
:10166000915090938001911101C05D9A90919A01DF
:10167000992341F090919A01915090939A01911180
:1016800001C0289A84FF18C08091E2008E7E81609C
:101690008093E2008091E1008F7E8093E100809151
:1016A00081018E7E8061809381019F918F910F9047
:1016B0000FBE0F901F90189580FFF7CF8091E2002A
:1016C0008E7E80618093E2008091E1008E7E809327
:1016D000E100809181018E7E8160E5CF1F920F92A3
:1016E0000FB60F921124CF92DF92EF92FF920F93D9
:1016F0001F932F933F934F935F936F937F938F939A
:101700009F93AF93BF93EF93FF93CF93DF93CDB7A7
:10171000DEB76C97DEBFCDBF1092E9008091E80084
:1017200083FF25C068E0CE0145960E94640282EFE7
:101730008093E8008D8987FF39C09091E80090FF81
:10174000FCCF982F907609F034C19E894F89588D2F
:101750002F89F88C911131C0803861F58091820118
:101760008093F1001092F1008EEF8093E8006C9668
:101770000FB6F894DEBF0FBECDBFDF91CF91FF91C2
:10178000EF91BF91AF919F918F917F916F915F91F9
:101790004F913F912F911F910F91FF90EF90DF900C
:1017A000CF900F900FBE0F901F9018959EEF9093C3
:1017B000E800C7CF1092F100D5CF913059F48111D4
:1017C000D3CF4130510581F6809182018D7F809386
:1017D0008201CACF933049F48111C6CF41305105FF
:1017E00019F6809182018260F2CF953041F48091A8
:1017F000E80080FFFCCF20682093E300B5CF96304F
:1018000009F0A9C00B8D1C8D22E01092E900109206
:101810007E0110927D01F2122EC010927C01109276
:101820007B010E9433021F8299E09983FA8291E042
:101830009E8390EA98879AEF998720917D01309155
:101840007E01275F3F4F3C832B838D831092E900FD
:1018500010927E0110927D0110937C0100937B0118
:1018600049E050E0BE016F5F7F4F80E00E940D02B3
:101870000E94330279CF10937C0100937B010E9478
:101880004E01DC0112960D911C910115110509F410
:1018900051C1D801ED91FC910480F581E02DBE018C
:1018A0006B5E7F4FC8010995009709F03EC1F801B2
:1018B00000851185EACFF3E0FF120EC08F898823DF
:1018C00009F440C0823061F440E862E18CEB91E0C1
:1018D0000E94DA01811148CF81E28093EB0047CF6B
:1018E000813029F440E862E189EA91E0F1CF833068
:1018F00099F70E944E01DC011296ED90FC908E014A
:101900000F5F1F4F6801E114F10479F0D701ED91E9
:10191000FC910680F781E02DB801C7010995080FF9
:10192000111DF701E084F184EECFD8011C92F6017D
:1019300001900020E9F73197BF016C197D0940E063
:10194000C601C6CF63E971E0FB01449150E080E835
:101950000E940D0209CF973009F4BECF983021F4D0
:1019600081E08093F10000CF993009F0FDCE8370C3
:1019700009F0B2CFE7E3F1E081E031E096E32191B5
:10198000222371F08093E9003093EB00DF0111977F
:101990002C912093EC009093ED008F5F873079F7C6
:1019A0008EE78093EA001092EA008F8980939B0172
:1019B000DBCE8B8D9C8D1092E90010927E011092EF
:1019C0007D0190937C0180937B01898D811192C070
:1019D0008E899D89913A49F4813209F07DCF47E0A3
:1019E00050E064E071E080E0B3CF913209F074CF51
:1019F000833269F48F89988DB0E0A0E08093000174
:101A000090930101A0930201B0930301ADCE803207
:101A100069F48091E80082FFFCCF67E084E091E008
:101A20000E9464028BEF8093E8009ECE823209F020
:101A30009BCE8F8980930B01EEEFFFE78591949108
:101A40008B3F9C4D51F1E0E0F8E0809104019091D2
:101A50000501A0910601B0910701803B9440A105CA
:101A6000B105F1F480910B0180FD1AC0EE3F8AE0D0
:101A7000F80789F587E797E7918380838091600075
:101A800080937F0188E19BE00FB6F894A89580933E
:101A900060000FBE9093600067CEEEEFFAE0D5CF06
:101AA000808191818737974709F05ECEA895809114
:101AB000600088618093600080917F018093600066
:101AC000EE3F2AE0F20789F08091FE0A9091FF0A2A
:101AD0009183808349CE808191818737980751F225
:101AE0009093FF0A8093FE0AC5CF1092FF0A1092CE
:101AF000FE0A3ACE0E944E01DC0112960D911C9115
:101B00000115110509F4E8CED801ED91FC91019081
:101B1000F081E02DBE016B5E7F4FC80109958111F8
:101B200023CEF80100851185EBCF181619060CF4A9
:101B30001BCED2CEF1E0FF12BECE67E971E004CF3A
:101B40001F920F920FB60F9211242F933F934F9332
:101B50005F936F937F938F939F93AF93BF93EF9315
:101B6000FF93CF93DF9300D01F92CDB7DEB783B141
:101B7000898389819091FD0189278A8380916B00F7
:101B80009A8189238B838B8180FF05C0E0916B0153
:101B9000F0916C0109958B8181FF05C0E0916D0189
:101BA000F0916E0109958B8182FF05C0E0916F0174
:101BB000F091700109958B8183FF05C0E09171015F
:101BC000F091720109958B8184FF05C0E09173014A
:101BD000F091740109958B8185FF05C0E091750135
:101BE000F091760109958B8186FF05C0E091770120
:101BF000F091780109958B8187FF05C0E09179010B
:101C0000F0917A01099589818093FD010F900F90E1
:101C10000F90DF91CF91FF91EF91BF91AF919F9185
:101C20008F917F916F915F914F913F912F910F9085
:101C30000FBE0F901F901895EDEAF1E0138212820B
:101C400088EE93E0A0E0B0E084839583A683B78319
:101C500081E491E0918380838FEF9FEF9587848764
:101C600083B18093FD0180E090EEAEE0B3E4809319
:101C7000120290931302A0931402B09315020E94D3
:101C80009F01E6E1F2E01282158210868EE08187E4
:101C900081E08287838783E591E091838083089543
:101CA000789484B5826084BD84B5816084BD85B537
:101CB000826085BD85B5816085BD80916E00816043
:101CC00080936E00109281008091810082608093E9
:101CD00081008091810081608093810080918000EB
:101CE0008160809380008091910082608093910058
:101CF000809191008160809391008091900081603B
:101D0000809390008091C10084608093C100809195
:101D1000C10082608093C1008091C1008160809386
:101D2000C1008091C30081608093C3008091C00096
:101D300082608093C0008091C20081608093C20065
:101D400080917A00846080937A0080917A0082602A
:101D500080937A0080917A00816080937A008091EC
:101D60007A00806880937A0010929B011092820121
:101D7000109281018091D70081608093D70080EA22
:101D80008093D80089B5806189BD89B5826089BD9D
:101D900009B400FEFDCF0E9487018091D8008F7C9E
:101DA00080618093D8008091E000807F8093E00084
:101DB0008091E1008E7E8093E1008DE08093E200CF
:101DC000559A209A0E949F0160930A0270930B0219
:101DD00080930C0290930D021092FE011092FF016D
:101DE000109200021092010210920202109203025D
:101DF000109204021092050210920602109207023D
:101E00001092080210920902EE24E394C0E0D0E0A0
:101E1000DD24D39482E0C82E93E0B92E01E010E0D7
:101E20008091830190918401009741F0019709F41A
:101E300052C02097A9F30E940000F2CF86E192E001
:101E40000E943105F82EFE240E949F0120911B0262
:101E5000213099F048F0223009F1233041F11092FD
:101E600084011092830134C0F110F9CF70931D02E8
:101E700060931C02D0921B02F2CFFF2019F0109247
:101E80001B02EDCF20911C0230911D02621B730BCF
:101E90006F30710520F3C0921B02E1CFFF20F9F2F1
:101EA00070931D0260931C02B0921B02D8CFFF20DA
:101EB00091F320911C0230911D02621B730B6F3055
:101EC000710568F210921B02109384010093830144
:101ED0000E94E703AECF10921E0110921F011092D4
:101EE00020011092210110922201109223011092E0
:101EF00024011092250190E080E00E94C10390E04F
:101F000080E00E949B030E949F012B013C010E94E4
:101F10009F01641975098609970961317742810526
:101F2000910568F40E94C504882389F320E030E01D
:101F300048EC52E4CA01B9010E942F07E8CF90E0B3
:101F400080E00E94C10390E080E00E949B03109219
:101F50001E0110921F011092200110922101109277
:101F6000220110922301109224011092250190E089
:101F700080E00E94C10390E080E00E949B030E94E9
:101F80009F012B013C010E949F016419750986097C
:101F90009709613177428105910578F40E94C50463
:101FA000882389F320E030E044EE52E460E070E002
:101FB0008AEA92E40E942F07E6CF90E080E00E9438
:101FC000C10390E080E00E949B030E94E70310920F
:101FD0008401109283012DCFA1E21A2EAA1BBB1BF4
:101FE000FD010DC0AA1FBB1FEE1FFF1FA217B307E5
:101FF000E407F50720F0A21BB30BE40BF50B661FFB
:10200000771F881F991F1A9469F7609570958095BE
:1020100090959B01AC01BD01CF010895EE0FFF1F0C
:102020000590F491E02D09945058BB27AA270E94EF
:102030002C100C94D6110E949D1138F00E94A4110E
:1020400020F039F49F3F19F426F40C949A110EF401
:10205000E095E7FB0C949411E92F0E94FB1158F3D3
:10206000BA17620773078407950720F079F4A6F57D
:102070000C941D120EF4E0950B2EBA2FA02D0B011F
:10208000B90190010C01CA01A0011124FF27591BBD
:1020900099F0593F50F4503E68F11A16F040A22FC3
:1020A000232F342F4427585FF3CF46953795279534
:1020B000A795F0405395C9F77EF41F16BA0B620B33
:1020C000730B840BBAF09150A1F0FF0FBB1F661F7A
:1020D000771F881FC2F70EC0BA0F621F731F841FBD
:1020E00048F4879577956795B795F7959E3F08F0E3
:1020F000B0CF9395880F08F09927EE0F97958795A5
:1021000008950E94701108F481E008950E94AD11B5
:10211000E3950C94E7110E949F100C94D6110E9435
:10212000A41158F00E949D1140F029F45F3F29F05E
:102130000C94941151110C941E120C949A110E943B
:10214000FB1168F39923B1F3552391F3951B550BBC
:10215000BB27AA2762177307840738F09F5F5F4F7A
:10216000220F331F441FAA1FA9F335D00E2E3AF0B9
:10217000E0E832D091505040E695001CCAF72BD0D1
:10218000FE2F29D0660F771F881FBB1F2617370722
:102190004807AB07B0E809F0BB0B802DBF01FF2754
:1021A00093585F4F3AF09E3F510578F00C9494118C
:1021B0000C941E125F3FE4F3983ED4F38695779516
:1021C0006795B795F7959F5FC9F7880F911D96950D
:1021D000879597F90895E1E0660F771F881FBB1F69
:1021E000621773078407BA0720F0621B730B840B16
:1021F000BA0BEE1F88F7E09508950E9404116894C9
:10220000B1110C941E1208950E94031288F09F577A
:1022100098F0B92F9927B751B0F0E1F0660F771F0A
:10222000881F991F1AF0BA95C9F714C0B13091F000
:102230000E941D12B1E008950C941D12672F782F93
:102240008827B85F39F0B93FCCF3869577956795C5
:10225000B395D9F73EF490958095709561957F4F31
:102260008F4F9F4F0895E89409C097FB3EF49095D7
:102270008095709561957F4F8F4F9F4F9923A9F05F
:10228000F92F96E9BB279395F695879577956795EE
:10229000B795F111F8CFFAF4BB0F11F460FF1BC032
:1022A0006F5F7F4F8F4F9F4F16C0882311F096E9C5
:1022B00011C0772321F09EE8872F762F05C0662373
:1022C00071F096E8862F70E060E02AF09A95660F2C
:1022D000771F881FDAF7880F9695879597F90895E5
:1022E000990F0008550FAA0BE0E8FEEF1616170627
:1022F000E807F907C0F012161306E407F50798F08F
:10230000621B730B840B950B39F40A2661F0232BA7
:10231000242B252B21F408950A2609F4A140A69523
:102320008FEF811D811D089597F99F6780E870E008
:1023300060E008959FEF80EC089500240A9416163B
:10234000170618060906089500240A9412161306A3
:102350001406050608950C949A110E940312D8F3EE
:10236000E894E0E0BB279F57F0F02AED3FE049EC0E
:1023700006C0EE0FBB0F661F771F881F28F0B23A0A
:1023800062077307840728F0B25A620B730B840B41
:10239000E3959A9572F7803830F49A95BB0F661FD3
:1023A000771F881FD2F790480C94A512092E03942A
:1023B000000C11F4882352F0BB0F40F4BF2B11F432
:1023C00060FF04C06F5F7F4F8F4F9F4F0895EF9363
:1023D000E0FF07C0A2EA2AED3FE049EC5FEB0E9474
:1023E0002C100E94D6110F90039401FC9058ECEA37
:1023F000F0E00C94B11257FD9058440F551F59F05E
:102400005F3F71F04795880F97FB991F61F09F3FE1
:1024100079F087950895121613061406551FF2CF0A
:102420004695F1DF08C0161617061806991FF1CF5A
:1024300086957105610508940895E894BB27662781
:102440007727CB0197F908950E94701108F48FEF58
:1024500008950E943C120C94D6110E949D1138F0F0
:102460000E94A41120F0952311F00C9494110C9467
:102470009A1111240C941E120E94FB1170F3959F67
:10248000C1F3950F50E0551F629FF001729FBB276B
:10249000F00DB11D639FAA27F00DB11DAA1F649F07
:1024A0006627B00DA11D661F829F2227B00DA11DBA
:1024B000621F739FB00DA11D621F839FA00D611D40
:1024C000221F749F3327A00D611D231F849F600D61
:1024D000211D822F762F6A2F11249F5750409AF08A
:1024E000F1F088234AF0EE0FFF1FBB1F661F771F16
:1024F000881F91505040A9F79E3F510580F00C94E1
:1025000094110C941E125F3FE4F3983ED4F3869529
:1025100077956795B795F795E7959F5FC1F7FE2B80
:10252000880F911D9695879597F908959F930E941E
:10253000AD110F9007FCEE5F0C94E7110E94701133
:10254000880B990B08959F3F31F0915020F48795A7
:1025500077956795B795880F911D9695879597F90B
:1025600008959F938F937F936F93FF93EF939B01B6
:10257000AC010E942912EF91FF910E94C5122F9188
:102580003F914F915F910C942912DF93CF931F934A
:102590000F93FF92EF92DF927B018C01689406C04B
:1025A000DA2EEF010E943C12FE01E894A5912591DC
:1025B000359145915591A6F3EF010E942C10FE0133
:1025C0009701A801DA9469F7DF90EF90FF900F91DF
:0C25D0001F91CF91DF910895F894FFCF88
:1025DC00FFFFFFFF00E1000000000000AB01AB01BA
:1025EC00AB01AB01AB010000003FCDCCCC3D0000FA
:1025FC00000000000000A0050000B44400000C42E4
:10260C0058E95B43320000C18081000000000000EB
:10261C0000F202710218030D035E031C033A03005F
:10262C0000000031056E616E00696E66006F7666A3
:04263C00000D0A0083
:00000001FF
