:100000000C94E0000C9422060C94FB050C94D4058F
:100010000C94AD050C9408010C9408010C94860511
:100020000C9408010C94EA080C9449060C94B80648
:100030000C9408010C9408010C9408010C9408011C
:100040000C9408010C9408010C9408010C9408010C
:100050000C9408010C9408010C9408010C943C05C4
:100060000C9408010C9408010C9408010C940801EC
:100070000C9408010C9408010C9408010C940801DC
:100080000C9408010C9408010C9408010C940801CC
:100090000C9408010C9408010C9408010C940801BC
:1000A0000C9408010C9408010C9408010000000055
:1000B0002300260029002C002F0000000002000968
:1000C0000F0000030401000C00000000000000000D
:1000D000000000000000000000080B000202020007
:1000E00000090400000102020000052400100105BF
:1000F00024010101042402060524060001070581EC
:100100000310004009040100020A00000007050274
:1001100002400000070583024000000403090412A6
:10012000010002EF020140FB1F0023000101020356
:1001300001506F6C6F6C7520436F72706F726174D9
:10014000696F6E00506F6C6F6C7520412D53746138
:1001500072203332553400070605040100080A0BEB
:100160000C0D0900000000250028002B002E003196
:100170000000000000240027002A002D00300004A9
:10018000040404040304050202020204030202023E
:100190000206060606060604040202020404040817
:1001A000020110408040102040804080080204017D
:1001B000804020100201108010204040200056098D
:1001C00011241FBECFEFDAE0DEBFCDBF11E0A0E00B
:1001D000B1E0E6EAFBE102C005900D92A436B1075A
:1001E000D9F722E0A4E6B1E001C01D92A530B20724
:1001F000E1F710E0C0EED0E004C02197FE010E94BC
:100200008F0BCF3DD107C9F70E9493090C94D10DF4
:100210000C940000FC0180918A01882311F13FB702
:10022000F89482E08093E9002091F200822F90E020
:100230001816190614F481E090E0882339F0289804
:1002400044E6409389014091F1004083222339F034
:100250002091F200211103C02BE62093E8003FBF5C
:1002600008958FEF9FEF08952FB7F89483E0809360
:10027000E9009091E800892F807295FF04C0909169
:10028000F20080E4891B2FBF0895809181018111C4
:100290000DC082E080937D0184E080937E01109206
:1002A000800110927F0181E0809381018DE791E0D0
:1002B0000895CF93DF9390E0FC01E256FE4F249126
:1002C00081589E4FFC0184918823C9F090E0880FEB
:1002D000991FFC01EF58FE4FA591B491FC01ED5917
:1002E000FE4FC591D49161110DC09FB7F8948C91C8
:1002F000209582238C938881282328839FBFDF91B8
:10030000CF910895623051F49FB7F8943C91822FB9
:10031000809583238C93E8812E2BEFCF8FB7F894B1
:10032000EC912E2B2C938FBFEACF3FB7F89480919E
:10033000790190917A01A0917B01B0917C0126B561
:10034000A89B05C02F3F19F00196A11DB11D3FBF0D
:10035000BA2FA92F982F8827BC01CD01620F711DDC
:10036000811D911D42E0660F771F881F991F4A95D6
:10037000D1F70895CF92DF92EF92FF920E949501FC
:100380006B017C010E9495016C197D098E099F0902
:10039000683E734081059105A8F3FF90EF90DF90D0
:1003A000CF9008950895409170015091710120916E
:1003B0006E0130916F0142175307B4F49091E80039
:1003C0009570E1F39091E80092FD19C08093F100DF
:1003D000809170019091710101968F739927892BFB
:1003E00019F48EEF8093E800809170019091710173
:1003F0000196909371018093700181E0089580E0EF
:100400000895EF92FF920F931F93CF93DF93F82EEF
:10041000192FE62E042F81E0860F880F0E94D3014A
:1004200083E00E94D301CF2DD12FEC0EFD2EF11CC5
:10043000CE15DF05B9F007FF13C0FE0184910E94BD
:10044000D301182F80E00E94D301812321968111CE
:10045000EFCFDF91CF911F910F91FF90EF90089513
:100460008881EDCF81E0F5CFDF92EF92FF920F937D
:100470001F93CF93DF93D82E8A01EB017B01E40E0B
:10048000F51ECE15DF0559F0D7FE12C0FE0184918E
:100490000E94D30121968111F4CF0FEF1FEFC80105
:1004A000DF91CF911F910F91FF90EF90DF90089512
:1004B0008881EECF0F931F93CF93DF931F92CDB719
:1004C000DEB782E0898342E450E069ED70E080E8C5
:1004D0000E9434020E944501DC0112960D911C918C
:1004E0000115110589F0D801ED91FC910280F3818D
:1004F000E02DBE016F5F7F4FC801099597FD04C0D5
:10050000F80100851185ECCF89810F90DF91CF91A3
:100510001F910F910895615030F02091F100FC017E
:1005200020830196F8CF289884E680938901089566
:100530008F929F92AF92BF92CF92DF92EF92FF92F3
:100540000F931F93CF93DF936C017B018A018091FE
:100550000B01882309F458C080918A01882309F48B
:1005600053C08091740180FF05C08091E0008260DB
:100570008093E000E801B12C8AEFA82E93E0892E49
:100580002AE3922E209711F4BB20B9F10E94340186
:10059000811106C0AA94AA20B9F10E94BA01F2CF33
:1005A0008C171D0611F00CF08C2F9FB7F8948092D9
:1005B000E9002091E80025FD02C09FBFE3CF282F6E
:1005C00030E0C21BD30BF701815020F041914093E2
:1005D000F100FACFE20EF31EBB2021F09092E8006A
:1005E000B12CEBCF8091E80085FDE7CF9092E80039
:1005F000BB24B394209709F3F3CF5D9884E68093EE
:100600007301101611063CF081E090E0F60193832F
:10061000828310E000E0C801DF91CF911F910F911C
:10062000FF90EF90DF90CF90BF90AF909F908F9012
:100630000895CF93DF931F92CDB7DEB76983DC01B6
:10064000ED91FC910280F381E02D41E050E0BE018C
:100650006F5F7F4F09950F90DF91CF91089583E0F1
:100660008093E9008091F200882319F08AE3809357
:10067000E80008950E94340190E00895CF93DF933D
:100680001F92CDB7DEB7FC018485958597FD08C024
:100690002FEF3FEF358724870F90DF91CF9108959B
:1006A000CE0101960E940A01019719F4898190E018
:1006B000F3CF8FEF9FEFF0CF0F931F93CF93DF9385
:1006C0001F92CDB7DEB78C01FC018485958597FF1D
:1006D0000BC0CE0101960E940A01019771F4898135
:1006E00090E0F80195878487F801848595850F90BF
:1006F000DF91CF911F910F9108958FEF9FEFF1CF71
:10070000FC018485958597FD0BC09FB7F89482E026
:100710008093E9008091F2009FBF90E001960895D8
:100720009FB7F89482E08093E9008091F2009FBF28
:1007300090E008952E98269A2D98259A2A98229A24
:100740002998219A2F98279A8AEA8093800089E134
:100750008093810084EA91E09093870080938600E3
:10076000109289001092880010928B0010928A00DB
:1007700010928D0010928C0008951092200110921A
:100780002101109222011092230110922401109253
:100790002501109226011092270180918B01811171
:1007A00005C081E080938B010E949A0310928B0018
:1007B00010928A002A98229A80918B01811105C09B
:1007C00081E080938B010E949A031092890010921D
:1007D00088002998219A2FB7F8948091F50190917B
:1007E000F601A091F701B091F8012FBF8093E901C4
:1007F0009093EA01A093EB01B093EC011092DD011C
:100800001092DE011092DF011092E0011092E101DE
:100810001092E2011092E3011092E4011092E501BE
:100820001092E6011092E7011092E8010895CF932B
:10083000DF93EC01888581110EC0898591E098874E
:100840009A8562E0911101C060E00E9459018FE039
:1008500090E00197F1F7298530E0F901E654FF4F68
:100860008491F901E256FE4F949121583E4FF901CF
:100870002491222309F460C08823E9F081508F304D
:10088000D0F4E82FF0E0E95BFB4F0C948F0B77047A
:100890007B0456046F0473045B045B045B047E04F6
:1008A000840488048C0492045B0496048091800084
:1008B0008F7780938000E22FF0E0EE0FFF1FE4556A
:1008C000FF4FA591B491EC919E2331E009F430E003
:1008D000832F2B8582278170DF91CF91089580919E
:1008E00080008F7DE6CF80918000877FE2CF84B546
:1008F0008F7784BDE0CF84B58F7DFBCF8091900052
:100900008F7780939000D7CF809190008F7DF9CF23
:1009100080919000877FF5CF8091C0008F77809382
:10092000C000C9CF8091C0008F7DF9CF8091C200F7
:10093000877F8093C200BFCF80E0CBCF89EF91E06B
:100940000E94170421E082279FB7F8944091F50197
:100950005091F6016091F7017091F8019FBF90915D
:10096000FE01913081F030F09230F9F0933029F1AE
:1009700080E008958111FCCF509300024093FF0165
:100980002093FE010895882319F01092FE01F0CF04
:100990002091FF0130910002421B530B4F30510553
:1009A00040F382E08093FE01E3CF882311F350935C
:1009B00000024093FF0183E0F5CF882391F320915B
:1009C000FF0130910002421B530B4F30510580F262
:1009D0001092FE010895FC0101900020E9F7319783
:1009E000AF01481B590BBC018CE891E00C949802B4
:1009F0008F929F92AF92BF920F931F93CF93DF93EB
:100A0000CDB7DEB7A1970FB6F894DEBF0FBECDBF4E
:100A100019A2423008F44AE08E010F5D1F4F842E68
:100A2000912CB12CA12CA50194010E946D0BE62FF5
:100A3000B901CA01EA30F4F4E05DD801EE938D010A
:100A4000232B242B252B79F790E080E0109719F0C9
:100A5000CD010E94EB04A1960FB6F894DEBF0FBE45
:100A6000CDBFDF91CF911F910F91BF90AF909F901D
:100A70008F900895E95CE1CF1F920F920FB60F920D
:100A800011242F933F938F939F93AF93BF938091A4
:100A9000F5019091F601A091F701B091F801309124
:100AA000780123E0230F2D3758F50196A11DB11DC4
:100AB000209378018093F5019093F601A093F701BC
:100AC000B093F8018091790190917A01A0917B0116
:100AD000B0917C010196A11DB11D80937901909385
:100AE0007A01A0937B01B0937C01BF91AF919F915C
:100AF0008F913F912F910F900FBE0F901F901895DF
:100B000026E8230F0296A11DB11DD2CF1F920F928E
:100B10000FB60F9211242F933F934F935F936F93D0
:100B20007F938F939F93AF93BF93EF93FF93E09146
:100B30001401F09115010995FF91EF91BF91AF91CB
:100B40009F918F917F916F915F914F913F912F91E5
:100B50000F900FBE0F901F9018951F920F920FB617
:100B60000F9211242F933F934F935F936F937F9333
:100B70008F939F93AF93BF93EF93FF93E0911201F5
:100B8000F09113010995FF91EF91BF91AF919F9162
:100B90008F917F916F915F914F913F912F910F9026
:100BA0000FBE0F901F9018951F920F920FB60F92C5
:100BB00011242F933F934F935F936F937F938F9362
:100BC0009F93AF93BF93EF93FF93E0911001F09148
:100BD00011010995FF91EF91BF91AF919F918F9175
:100BE0007F916F915F914F913F912F910F900FBE29
:100BF0000F901F9018951F920F920FB60F9211240D
:100C00002F933F934F935F936F937F938F939F9314
:100C1000AF93BF93EF93FF93E0910E01F0910F011B
:100C20000995FF91EF91BF91AF919F918F917F9126
:100C30006F915F914F913F912F910F900FBE0F9049
:100C40001F9018951F920F920FB60F9211242F9399
:100C50003F934F935F936F937F938F939F93AF9344
:100C6000BF93EF93FF93E0910C01F0910D01099573
:100C7000FF91EF91BF91AF919F918F917F916F9174
:100C80005F914F913F912F910F900FBE0F901F904A
:100C900018951F920F920FB60F9211248F939F9366
:100CA0008091E1009091E100937F9093E10083FFB8
:100CB0000FC01092E90091E09093EB001092EC00CD
:100CC00092E39093ED0010928A0198E09093F000E7
:100CD00082FF22C093E09093E9009091F200992363
:100CE00019F09AE39093E80090917301992341F0F1
:100CF00090917301915090937301911101C05D9A8D
:100D000090918901992341F090918901915090939C
:100D10008901911101C0289A84FF18C08091E200D6
:100D20008E7E81608093E2008091E1008F7E8093CF
:100D3000E100809174018E7E8061809374019F91A7
:100D40008F910F900FBE0F901F90189580FFF7CFD7
:100D50008091E2008E7E80618093E2008091E100CC
:100D60008E7E8093E100809174018E7E8160E5CF5C
:100D70001F920F920FB60F921124CF92DF92EF9233
:100D8000FF920F931F932F933F934F935F936F9314
:100D90007F938F939F93AF93BF93EF93FF93CF93E3
:100DA000DF93CDB7DEB76C97DEBFCDBF1092E90001
:100DB0008091E80083FF25C068E0CE0145960E943F
:100DC0008B0282EF8093E8008D8987FF39C0909174
:100DD000E80090FFFCCF982F907609F034C19E89EF
:100DE0004F89588D2F89F88C911131C0803861F569
:100DF000809175018093F1001092F1008EEF809345
:100E0000E8006C960FB6F894DEBF0FBECDBFDF9141
:100E1000CF91FF91EF91BF91AF919F918F917F9172
:100E20006F915F914F913F912F911F910F91FF9083
:100E3000EF90DF90CF900F900FBE0F901F901895FE
:100E40009EEF9093E800C7CF1092F100D5CF91307C
:100E500059F48111D3CF4130510581F6809175014C
:100E60008D7F80937501CACF933049F48111C6CF2D
:100E70004130510519F6809175018260F2CF9530AD
:100E800041F48091E80080FFFCCF20682093E300CC
:100E9000B5CF963009F0A9C00B8D1C8D22E01092C1
:100EA000E9001092710110927001F2122EC010929E
:100EB0006F0110926E010E945A021F8299E099837D
:100EC000FA8291E09E8390EA98879AEF9987209121
:100ED000700130917101275F3F4F3C832B838D83DD
:100EE0001092E900109271011092700110936F013D
:100EF00000936E0149E050E0BE016F5F7F4F80E0DC
:100F00000E9434020E945A0279CF10936F0100931D
:100F10006E010E944501DC0112960D911C91011594
:100F2000110509F451C1D801ED91FC910480F581BE
:100F3000E02DBE016B5E7F4FC8010995009709F057
:100F40003EC1F80100851185EACFF3E0FF120EC023
:100F50008F89882309F440C0823061F440E862E15F
:100F600084E491E00E940102811148CF81E28093E4
:100F7000EB0047CF813029F440E862E181E391E062
:100F8000F1CF833099F70E944501DC011296ED9074
:100F9000FC908E010F5F1F4F6801E114F10479F09E
:100FA000D701ED91FC910680F781E02DB801C701D2
:100FB0000995080F111DF701E084F184EECFD801E7
:100FC0001C92F60101900020E9F73197BF016C19DE
:100FD0007D0940E0C601C6CF6BE171E0FB014491A1
:100FE00050E080E80E94340209CF973009F4BECF68
:100FF000983021F481E08093F10000CF993009F01E
:10100000FDCE837009F0B2CFEBE2F1E081E031E098
:1010100096E32191222371F08093E9003093EB0055
:10102000DF0111972C912093EC009093ED008F5FDE
:10103000873079F78EE78093EA001092EA008F8973
:1010400080938A01DBCE8B8D9C8D1092E9001092EB
:1010500071011092700190936F0180936E01898DE0
:10106000811192C08E899D89913A49F4813209F0AB
:101070007DCF47E050E064E071E080E0B3CF913293
:1010800009F074CF833269F48F89988DB0E0A0E0C5
:101090008093000190930101A0930201B09303019A
:1010A000ADCE803269F48091E80082FFFCCF67E02A
:1010B00084E091E00E948B028BEF8093E8009ECE4B
:1010C000823209F09BCE8F8980930B01EEEFFFE710
:1010D000859194918B3F9C4D51F1E0E0F8E0809137
:1010E000040190910501A0910601B0910701803B98
:1010F0009440A105B105F1F480910B0180FD1AC067
:10110000EE3F8AE0F80789F587E797E791838083C8
:10111000809160008093720188E19BE00FB6F894A3
:10112000A895809360000FBE9093600067CEEEEFAD
:10113000FAE0D5CF808191818737974709F05ECE5D
:10114000A895809160008861809360008091720111
:1011500080936000EE3F2AE0F20789F08091FE0A5A
:101160009091FF0A9183808349CE80819181873756
:10117000980751F29093FF0A8093FE0AC5CF109210
:10118000FF0A1092FE0A3ACE0E944501DC01129637
:101190000D911C910115110509F4E8CED801ED91CE
:1011A000FC910190F081E02DBE016B5E7F4FC80184
:1011B0000995811123CEF80100851185EBCF181612
:1011C00019060CF41BCED2CEF1E0FF12BECE6FE1B9
:1011D00071E004CF1F920F920FB60F9211242F933C
:1011E0003F934F935F936F937F938F939F93AF93AF
:1011F000BF93EF93FF93CF93DF9300D01F92CDB7B0
:10120000DEB783B1898389819091DC0189278A8344
:1012100080916B009A8189238B838B8180FF03C02F
:10122000F0E0E0E009958B8181FF03C0F0E0E0E0B1
:1012300009958B8182FF03C0F0E0E0E009958B8186
:1012400083FF03C0F0E0E0E009958B8184FF03C0D9
:10125000F0E0E0E009958B8185FF03C0F0E0E0E07D
:1012600009958B8186FF03C0F0E0E0E009958B8152
:1012700087FF03C0F0E0E0E0099589818093DC01FD
:101280000F900F900F90DF91CF91FF91EF91BF9151
:10129000AF919F918F917F916F915F914F913F910E
:1012A0002F910F900FBE0F901F901895ECE8F1E072
:1012B0001382128288EE93E0A0E0B0E084839583ED
:1012C000A683B78385E391E0918380838FEF9FEFBF
:1012D0009587848783B18093DC0180E090EEAEE057
:1012E000B3E48093F1019093F201A093F301B093E2
:1012F000F4018FB7F8944091F5015091F601609197
:10130000F7017091F8018FBFE9EFF1E012821582C9
:1013100010868EE0818781E08287838787E491E071
:10132000918380830895789484B5826084BD84B568
:10133000816084BD85B5826085BD85B5816085BDD0
:1013400080916E00816080936E0010928100809188
:101350008100826080938100809181008160809310
:101360008100809180008160809380008091910055
:1013700082608093910080919100816080939100C0
:10138000809190008160809390008091C100846082
:101390008093C1008091C10082608093C1008091E0
:1013A000C10081608093C1008091C30081608093FF
:1013B000C3008091C00082608093C0008091C20011
:1013C00081608093C20080917A00846080937A006B
:1013D00080917A00826080937A0080917A008160A7
:1013E00080937A0080917A00806880937A001092CE
:1013F0008A0110927501109274018091D70081606A
:101400008093D70080EA8093D80089B5806189BD38
:1014100089B5826089BD09B400FEFDCF0E94BA0182
:101420008091D8008F7C80618093D8008091E0000B
:10143000807F8093E0008091E1008E7E8093E100C8
:101440008DE08093E200559A209A2FB7F89480910E
:10145000F5019091F601A091F701B091F8012FBF2D
:101460008093E9019093EA01A093EB01B093EC0122
:101470001092DD011092DE011092DF011092E00166
:101480001092E1011092E2011092E3011092E40146
:101490001092E5011092E6011092E7011092E80126
:1014A00060E0809116010E94590100E010E0C1E067
:1014B000D0E0E0907601F0907701E114F10451F072
:1014C00081E0E816F104B1F00115110591F30E94D5
:1014D0000000EFCF0E949E04882339F0D09377015B
:1014E000C09376010E94BD03EFCF10927701109256
:1014F0007601F8CF0E949E048111F7CFF092770118
:10150000E092760189E491E00E94EB04E0911601FB
:10151000E23108F0E251F0E0E95AFE4FE491909197
:101520007B008E2F880F880F80729F7D892B809380
:101530007B00E770E064E0937C0080917A00806437
:1015400080937A0080917A0086FDFCCF80917800AC
:1015500060917900762F682F072E000C880B990B6D
:101560000E94AA0C26EA3DE44BE859E30E945F0D75
:1015700021EC3AEC41EA5CE30E94950B9B01AC0143
:1015800060E070E080E89FE30E94070C6B017C0143
:101590004B015C01AC019B010E94CC0D882349F0FA
:1015A00084E591E00E94EB0480E691E00E94EB0468
:1015B0008BCF26013701E89477F82FEF3FEF4FE705
:1015C0005FE7C301B2010E94CC0D81110DC02FEF66
:1015D0003FEF4FE75FE7C301B2010E94020C18160C
:1015E0001CF488E591E0DECF2FEF3FEF4FE75FE49B
:1015F000C701B6010E945A0D18161CF48CE591E043
:10160000D1CF2FEF3FEF4FE75FECC701B6010E944C
:10161000020C87FDF3CF20E030E0A901C701B6013D
:101620000E94020C87FF0BC06DE28CE891E00E94E3
:10163000190346015701B7FAB094B7F8B0942AE0FD
:1016400037ED43EA5BE3C501B4010E94960B4B0101
:101650005C010E94790C6B017C010E94A80C9B012B
:10166000AC01C501B4010E94950B4B015C014AE03D
:10167000C701B6010E94F8046EE28CE891E00E9476
:10168000190320E030E040E251E4C501B4010E94BA
:101690005F0D4B015C010E94790C6B01F12CE12C78
:1016A0004AE0C701B6010E94F804C701B6010E94D2
:1016B000A80C9B01AC01C501B4010E94950B20E070
:1016C00030E040E251E40E945F0D0E94790C90E00E
:1016D00080E04AE00E94F80467CFA1E21A2EAA1B1C
:1016E000BB1BFD010DC0AA1FBB1FEE1FFF1FA217D2
:1016F000B307E407F50720F0A21BB30BE40BF50BCF
:10170000661F771F881F991F1A9469F76095709557
:10171000809590959B01AC01BD01CF010895EE0F1E
:10172000FF1F0590F491E02D09945058BB27AA277C
:101730000E94AD0B0C94200D0E94120D38F00E94F7
:10174000190D20F039F49F3F19F426F40C940F0D75
:101750000EF4E095E7FB0C94090DE92F0E94310D82
:1017600058F3BA17620773078407950720F079F4D6
:10177000A6F50C94530D0EF4E0950B2EBA2FA02D68
:101780000B01B90190010C01CA01A0011124FF272E
:10179000591B99F0593F50F4503E68F11A16F04029
:1017A000A22F232F342F4427585FF3CF4695379528
:1017B0002795A795F0405395C9F77EF41F16BA0BED
:1017C000620B730B840BBAF09150A1F0FF0FBB1F9B
:1017D000661F771F881FC2F70EC0BA0F621F731FE4
:1017E000841F48F4879577956795B795F7959E3F41
:1017F00008F0B0CF9395880F08F09927EE0F9795D2
:10180000879508950E94E50C08F481E008950E94F0
:101810001B0C0C94200D0E94190D58F00E94120D03
:1018200040F029F45F3F29F00C94090D51110C94FC
:10183000540D0C940F0D0E94310D68F39923B1F3F0
:10184000552391F3951B550BBB27AA2762177307E6
:10185000840738F09F5F5F4F220F331F441FAA1F7A
:10186000A9F335D00E2E3AF0E0E832D09150504036
:10187000E695001CCAF72BD0FE2F29D0660F771FE4
:10188000881FBB1F261737074807AB07B0E809F0CA
:10189000BB0B802DBF01FF2793585F4F3AF09E3F4F
:1018A000510578F00C94090D0C94540D5F3FE4F34E
:1018B000983ED4F3869577956795B795F7959F5F92
:1018C000C9F7880F911D9695879597F90895E1E0DE
:1018D000660F771F881FBB1F621773078407BA073D
:1018E00020F0621B730B840BBA0BEE1F88F7E09598
:1018F00008950E94390D88F09F5798F0B92F9927C5
:10190000B751B0F0E1F0660F771F881F991F1AF0EA
:10191000BA95C9F714C0B13091F00E94530DB1E0EF
:1019200008950C94530D672F782F8827B85F39F0EE
:10193000B93FCCF3869577956795B395D9F73EF483
:1019400090958095709561957F4F8F4F9F4F08952B
:10195000E89409C097FB3EF4909580957095619549
:101960007F4F8F4F9F4F9923A9F0F92F96E9BB27FF
:101970009395F695879577956795B795F111F8CF7B
:10198000FAF4BB0F11F460FF1BC06F5F7F4F8F4FE6
:101990009F4F16C0882311F096E911C0772321F0DC
:1019A0009EE8872F762F05C0662371F096E8862F74
:1019B00070E060E02AF09A95660F771F881FDAF7CB
:1019C000880F9695879597F90895990F0008550FF8
:1019D000AA0BE0E8FEEF16161706E807F907C0F0B5
:1019E00012161306E407F50798F0621B730B840BBD
:1019F000950B39F40A2661F0232B242B252B21F497
:101A000008950A2609F4A140A6958FEF811D811D36
:101A1000089597F99F6780E870E060E008959FEF70
:101A200080EC089500240A94161617061806090675
:101A3000089500240A941216130614060506089544
:101A4000092E0394000C11F4882352F0BB0F40F4CC
:101A5000BF2B11F460FF04C06F5F7F4F8F4F9F4F0C
:101A6000089557FD9058440F551F59F05F3F71F08E
:101A70004795880F97FB991F61F09F3F79F08795F5
:101A80000895121613061406551FF2CF4695F1DF7E
:101A900008C0161617061806991FF1CF869571050E
:101AA000610508940895E894BB2766277727CB0142
:101AB00097F908950E94E50C08F48FEF08950E94AD
:101AC000720D0C94200D0E94120D38F00E94190D19
:101AD00020F0952311F00C94090D0C940F0D112496
:101AE0000C94540D0E94310D70F3959FC1F3950F26
:101AF00050E0551F629FF001729FBB27F00DB11D92
:101B0000639FAA27F00DB11DAA1F649F6627B00D21
:101B1000A11D661F829F2227B00DA11D621F739F0A
:101B2000B00DA11D621F839FA00D611D221F749F18
:101B30003327A00D611D231F849F600D211D822F5F
:101B4000762F6A2F11249F5750409AF0F1F0882386
:101B50004AF0EE0FFF1FBB1F661F771F881F9150B3
:101B60005040A9F79E3F510580F00C94090D0C944C
:101B7000540D5F3FE4F3983ED4F3869577956795CF
:101B8000B795F795E7959F5FC1F7FE2B880F911DDD
:101B90009695879597F908950E94E50C880B990B07
:061BA0000895F894FFCF48
:101BA600FFFFFFFF00E1000000000000D201D201AC
:101BB600D201D201D20112000000003FCDCCCC3DB3
:101BC6000000000000000000A00500C180810000A8
:101BD6000000000000190398023A032F0380033E19
:101BE600035C0300000000170444697374616E63AC
:101BF600653A20006E616E00696E66006F7666005B
:041C06000D0A0000C3
:00000001FF
