:100000000C9467010C941B0E0C94F40D0C94CD0D04
:100010000C94A60D0C948F010C948F010C947F0D01
:100020000C948F010C943B110C94420E0C94B10E65
:100030000C948F010C948F010C948F010C948F0100
:100040000C948F010C948F010C948F010C948F01F0
:100050000C948F010C948F010C948F010C94350D2E
:100060000C948F010C9409110C94E3100C948F01E3
:100070000C948F010C948F010C948F010C948F01C0
:100080000C948F010C948F010C948F010C948F01B0
:100090000C948F010C948F010C948F010C948F01A0
:1000A0000C948F010C948F010C948F0105A84CCDFA
:1000B000B2D44EB93836A9020C50B9918688083CA2
:1000C000A6AAAA2ABE000000803F00407A10F35A78
:1000D00000A0724E18090010A5D4E80000E8764888
:1000E000170000E40B54020000CA9A3B000000E134
:1000F000F505000080969800000040420F000000C7
:10010000A08601000000102700000000E8030000A6
:1001100000006400000000000A0000000000010070
:10012000000000002C76D888DC674F0823DFC1DF91
:10013000AE59E1B1B796E5E3E453C63AE651997694
:1001400096E8E6C28426EB898C9B62ED407C6FFCCE
:10015000EFBC9C9F40F2BAA56FA5F490055A2AF710
:100160005C936B6CF9676DC11BFCE0E40D47FEF519
:1001700020E6B500D0ED902E030094357705008081
:10018000841E080000204E0A000000C80C333333E0
:10019000330F986E12831141EF8D2114893BE65580
:1001A00016CFFEE6DB18D1844B381BF77C1D901D63
:1001B000A4BBE424203284725E228100C9F124ECC5
:1001C000A1E53D2700000000240027002A002D00A3
:1001D0003000000000002300260029002C002F0022
:1001E000080B0002020200000904000001020200E4
:1001F0000005240010010524010101042402060564
:1002000024060001070581031000400904010002D3
:100210000A000000070502024000000705830240B3
:1002200000000403090412010002EF020140FB1F59
:100230000023000101020301506F6C6F6C752043B5
:100240006F72706F726174696F6E00506F6C6F6C5B
:100250007520412D537461722033325534000000F3
:100260000000250028002B002E00310004040404A7
:10027000040304050202020204030202020206064B
:100280000606060604040202020404040802011021
:1002900040804010204080408008020401804020BF
:1002A00010020110801020404020000000020009D0
:1002B0000F0000030401000C00000000000000001B
:1002C00000000000000000000000B71132141124EB
:1002D0001FBECFEFDAE0DEBFCDBF23E0AAEAB1E078
:1002E00001C01D92AF30B207E1F711E0A0E0B1E02C
:1002F000E2E8F7E302C005900D92AA3AB107D9F7F8
:1003000011E0C6E6D1E004C02197FE010E94081862
:10031000C536D107C9F70E9419120C94B41B0C946E
:100320000000FC018091E101882311F13FB7F894AE
:1003300082E08093E9002091F200822F90E018166D
:10034000190614F481E090E0882339F0289844E6F7
:100350004093E0014091F1004083222339F0209145
:10036000F200211103C02BE62093E8003FBF08955F
:100370008FEF9FEF08952FB7F89483E08093E90003
:100380009091E800892F807295FF04C09091F2004F
:1003900080E4891B2FBF08958091D80181110DC081
:1003A00082E08093D40184E08093D5011092D7013C
:1003B0001092D60181E08093D80184ED91E00895F8
:1003C00081508F3008F047C0E82FF0E0E651FE4F33
:1003D0000C94081807020B02F901FF0103022B021B
:1003E0002B022B020E02140218021C0222022B0204
:1003F0002602809180008F778093800008958091FD
:1004000080008F7DF9CF80918000877FF5CF84B504
:100410008F7784BD089584B58F7DFBCF8091900048
:100420008F77809390000895809190008F7DF9CF11
:1004300080919000877FF5CF8091C0008F77809367
:10044000C00008958091C0008F7DF9CF8091C200D7
:10045000877F8093C20008953FB7F8948091D001C0
:100460009091D101A091D201B091D30126B5A89B62
:1004700005C02F3F19F00196A11DB11D3FBFBA2F36
:10048000A92F982F8827BC01CD01620F711D811DF6
:10049000911D42E0660F771F881F991F4A95D1F77B
:1004A00008958F929F92AF92BF92CF92DF92EF9278
:1004B000FF924B015C010E942C026B017C010E94A7
:1004C0002C026C197D098E099F09683E73408105D5
:1004D0009105A8F321E0821A9108A108B10888EEDD
:1004E000C80E83E0D81EE11CF11C81149104A10404
:1004F000B10429F7FF90EF90DF90CF90BF90AF90BD
:100500009F908F9008952FB7F8946091CC017091CF
:10051000CD018091CE019091CF012FBF0895089514
:100520004091C3015091C4012091C1013091C20199
:1005300042175307B4F49091E8009570E1F390915D
:10054000E80092FD19C08093F1008091C301909161
:10055000C40101968F739927892B19F48EEF80932C
:10056000E8008091C3019091C40101969093C40169
:100570008093C30181E0089580E00895EF92FF9297
:100580000F931F93CF93DF93F82E192FE62E042F8E
:1005900081E0860F880F0E94900283E00E94900203
:1005A000CF2DD12FEC0EFD2EF11CCE15DF05B9F0AD
:1005B00007FF13C0FE0184910E949002182F80E073
:1005C0000E949002812321968111EFCFDF91CF917C
:1005D0001F910F91FF90EF9008958881EDCF81E0FA
:1005E000F5CFDF92EF92FF920F931F93CF93DF939C
:1005F000D82E8A01EB017B01E40EF51ECE15DF0536
:1006000059F0D7FE12C0FE0184910E9490022196FB
:100610008111F4CF0FEF1FEFC801DF91CF911F9130
:100620000F91FF90EF90DF9008958881EECF0F93A8
:100630001F93CF93DF931F92CDB7DEB782E08983FC
:1006400042E450E060EE71E080E80E94F1020E9416
:10065000CC01DC0112960D911C910115110589F058
:10066000D801ED91FC910280F381E02DBE016F5F16
:100670007F4FC801099597FD04C0F80100851185D9
:10068000ECCF89810F90DF91CF911F910F91089549
:10069000615030F02091F100FC0120830196F8CFE9
:1006A000289884E68093E0010895AF92BF92CF929C
:1006B000DF92EF92FF920F931F93CF93DF936C0122
:1006C0007B018B01040F151FEB015E01AE18BF0803
:1006D000C017D10759F06991D601ED91FC910190B5
:1006E000F081E02DC6010995892B79F7C501DF91CD
:1006F000CF911F910F91FF90EF90DF90CF90BF901F
:10070000AF900895FC01538D448D252F30E0842F48
:1007100090E0821B930B541710F0CF960895019729
:100720000895FC01918D828D981761F0A28DAE0F16
:10073000BF2FB11D5D968C91928D9F5F9F73928F9D
:1007400090E008958FEF9FEF0895FC01918D828DC9
:10075000981731F0828DE80FF11D858D90E0089596
:100760008FEF9FEF0895FC01918D228D892F90E0EE
:10077000805C9F4F821B91098F739927089583EFA7
:1007800091E00E94B30321E0892B09F420E0822F3D
:10079000089580E090E0892B29F00E94BF03811129
:1007A0000C9400000895FC01A48DA80FB92FB11D71
:1007B000A35ABF4F2C91848D90E001968F73992797
:1007C000848FA689B7892C93A089B1898C91827472
:1007D0008C93938D848D981306C00288F389E02D45
:1007E00080818F7D80830895EF92FF920F931F93F6
:1007F000CF93DF93EC0181E0888F9B8D8C8D9813D4
:1008000019C0E889F989808185FF14C09FB7F894E1
:10081000EE89FF896083E889F98980818274808309
:100820009FBF81E090E0DF91CF911F910F91FF90EA
:10083000EF900895F62E0B8D10E00F5F1F4F0F7392
:100840001127E02E8C8D8E110CC00FB607FCFACF4D
:10085000E889F989808185FFF5CFCE010E94D30315
:10086000F1CFEB8DEC0FFD2FF11DE35AFF4FF0821E
:100870009FB7F8940B8FEA89FB8980818062CFCF84
:10088000CF93DF93EC01888D8823B9F0AA89BB89C7
:10089000E889F9898C9185FD03C0808186FD0DC0B2
:1008A0000FB607FCF7CF8C9185FFF2CF808185FFD3
:1008B000EDCFCE010E94D303E9CFDF91CF91089510
:1008C0008F929F92AF92BF92CF92DF92EF92FF9260
:1008D0000F931F93CF93DF936C017B018A0180916B
:1008E0000B01882309F45CC08091E101882309F49D
:1008F00057C08091C70180FF05C08091E0008260F1
:100900008093E000E801B12C8AEFA82E93E0892EB5
:100910002AE3922E209711F4BB20D9F10E94BB014B
:1009200081110AC0AA94AA20D9F161E070E080E0A8
:1009300090E00E945102EECF8C171D0611F00CF0D2
:100940008C2F9FB7F8948092E9002091E80025FD54
:1009500002C09FBFDFCF282F30E0C21BD30BF701AF
:10096000815020F041914093F100FACFE20EF31E46
:10097000BB2021F09092E800B12CEBCF8091E800F1
:1009800085FDE7CF9092E800BB24B394209709F34C
:10099000F3CF5D9884E68093C601101611063CF0F3
:1009A00081E090E0F6019383828310E000E0C801CB
:1009B000DF91CF911F910F91FF90EF90DF90CF903B
:1009C000BF90AF909F908F900895CF93DF931F9229
:1009D000CDB7DEB76983DC01ED91FC910280F38134
:1009E000E02D41E050E0BE016F5F7F4F09950F9011
:1009F000DF91CF910895682F80E992E00C94E5048F
:100A000083E08093E9008091F200882319F08AE363
:100A10008093E80008950E94BB0190E00895CF9371
:100A2000DF931F92CDB7DEB7FC018485958597FDD6
:100A300008C02FEF3FEF358724870F90DF91CF91CC
:100A40000895CE0101960E949101019719F48981C0
:100A500090E0F3CF8FEF9FEFF0CF0F931F93CF93E3
:100A6000DF931F92CDB7DEB78C01FC01848595859D
:100A700097FF0BC0CE0101960E949101019771F47E
:100A8000898190E0F80195878487F80184859585B0
:100A90000F90DF91CF911F910F9108958FEF9FEFEE
:100AA000F1CFFC018485958597FD0BC09FB7F89425
:100AB00082E08093E9008091F2009FBF90E0019670
:100AC00008959FB7F89482E08093E9008091F20046
:100AD0009FBF90E008952E98269A2D98259A2A98DF
:100AE000229A2998219A2F98279A8AEA809380003F
:100AF00089E18093810084EA91E09093870080935C
:100B00008600109289001092880010928B0010923B
:100B10008A0010928D0010928C000895CF93DF937D
:100B2000EC018091B001811105C081E08093B0019A
:100B30000E946B0580E0D7FF04C0D195C195D10913
:100B400081E0CD3291E0D90714F0CCE2D1E0D0932E
:100B50008900C0938800882329F0299A219ADF917F
:100B6000CF9108952998FACFCF93DF93EC0180912C
:100B7000B001811105C081E08093B0010E946B0536
:100B800080E0D7FF04C0D195C195D10981E0CD3275
:100B900091E0D90714F0CCE2D1E0D0938B00C09360
:100BA0008A00882329F02A9A229ADF91CF9108950A
:100BB0002A98FACFE6E1F1E01086118612861386B4
:100BC000148615861686178690E080E00E94B4058C
:100BD00090E080E00E948E050E948302E1EEF2E048
:100BE00064877587868797871082118212821382A5
:100BF0001482158216821782108611861286138639
:100C000008958CB1282F30E0359527953595279597
:100C1000422F417083B190E054E0959587955A95A5
:100C2000E1F7822781702091AE019091AF01609130
:100C3000E5017091E60124279827291B330B260F25
:100C4000371F3093E6012093E5012091AE0190918A
:100C5000AF01281729F0941719F091E09093AD0196
:100C60008093AE014093AF0108959FB191708CB114
:100C700086FB882780F989272091AB013091AC0150
:100C80004091E2015091E30129273827231B330BC0
:100C9000240F351F3093E3012093E2013091AB0123
:100CA0002091AC01381729F0291719F021E0209381
:100CB000AA018093AB019093AC01089524982C9ADB
:100CC0006A98729A6E98769A8098889AF89491E0C9
:100CD00090936800EBE6F0E080818061808321E002
:100CE00036E03093BA012093B9019BBB8091E002BA
:100CF0008F7E8093E00283B19091E0028071892B16
:100D00008093E002789485E396E0909315018093B8
:100D10001401EAE6F0E080818F7C80618083EE9AA6
:100D20008CB182FB882780F98093AF0193B18091C9
:100D3000AF019295917089278093AE011092E601E0
:100D40001092E5011092AD018FB181708093AC01DA
:100D50009CB18091AC0196FB992790F989278093EB
:100D6000AB011092E3011092E2011092AA010895E2
:100D7000CF92DF92EF92FF920E9483026B017C017F
:100D80008091E7019091E801A091E901B091EA0119
:100D9000B701A601481B590B6A0B7B0B80913401EC
:100DA00090913501092E000CAA0BBB0B481759076F
:100DB0006A077B0708F446C08091ED019091EE012F
:100DC0009093EC018093EB018091F1019091F201FD
:100DD0009093F0018093EF018091E401811105C0AF
:100DE00081E08093E4010E945E06F8948091E50121
:100DF0009091E60178949093EE018093ED018091BB
:100E0000E401811105C081E08093E4010E945E0647
:100E1000F8948091E2019091E30178949093F2012B
:100E20008093F1010E948302C092E701D092E80111
:100E3000E092E901F092EA0181E0FF90EF90DF900B
:100E4000CF90089580E0F9CF0F931F93CF93DF9356
:100E5000EC01888581112FC0898590E0FC01E55760
:100E6000FD4F84599D4F21E028872A85222309F4CC
:100E70004CC02491FC0184918823C9F090E0880F34
:100E8000991FFC01EC53FE4F45915491FC01E25A2D
:100E9000FD4FA591B4919FB7F894FA013081822F4C
:100EA000809583238083EC91E22BEC939FBF8FE0AE
:100EB00090E00197F1F7298530E0F901E655FD4F03
:100EC0008491F901E557FD4F0491F901E459FD4F73
:100ED0001491112309F437C081110E94E001E12F20
:100EE000F0E0EE0FFF1FEE52FE4FA591B491EC9192
:100EF0000E2331E009F430E0832F2B8582278170A7
:100F0000DF91CF911F910F9108952491FC0184915D
:100F1000882309F4CCCF90E0880F991FFC01EC5393
:100F2000FE4F45915491FC01E25AFD4FA591B491B9
:100F30009FB7F894FA0180812095822380838C9159
:100F4000E22FE823B2CF80E0D8CFFB010190002050
:100F5000E9F73197AF01461B570BDC01ED91FC918E
:100F60000280F381E02D09948F929F92AF92BF92FD
:100F70000F931F93CF93DF93CDB7DEB7A1970FB633
:100F8000F894DEBF0FBECDBF19A2423008F44AE08C
:100F90008E010F5D1F4F842E912CB12CA12CA50129
:100FA00094010E94E617E62FB901CA01EA3004F560
:100FB000E05DD801EE938D01232B242B252B79F7AF
:100FC00090E080E0109729F0BD0180E992E00E9456
:100FD000A507A1960FB6F894DEBF0FBECDBFDF9177
:100FE000CF911F910F91BF90AF909F908F900895D8
:100FF000E95CDFCF4F925F926F927F928F929F92C8
:10100000AF92BF92CF92DF92EF92FF920F931F9316
:10101000CF936B017C01742EAC019B010E9474196B
:101020006DE671E0811126C046015701E894B7F8DA
:101030002FEF3FEF4FE75FE7C501B4010E9474193E
:1010400081110CC02FEF3FEF4FE75FE7C501B401FF
:101050000E948B1661E771E0181664F02FEF3FEFE6
:101060004FE75FE4C701B6010E9467191816ACF498
:1010700065E771E080E992E0CF911F910F91FF90B9
:10108000EF90DF90CF90BF90AF909F908F907F9028
:101090006F905F904F900C94A5072FEF3FEF4FE7B5
:1010A0005FECC701B6010E948B1687FDE1CF20E0FF
:1010B00030E0A901C701B6010E948B1610E000E0E4
:1010C00087FF08C08DE20E94FB048C01F7FAF094C0
:1010D000F7F8F094C0E060E070E080E09FE37C16F9
:1010E00041F020E030E040E251E40E948018CF5F00
:1010F000F6CFA70196010E940F182B013C010E9418
:10110000F9184B015C014AE00E94B4077C01E00E33
:10111000F11ECC23B1F1C501B4010E9490169B01D0
:10112000AC01C301B2010E940E184B015C018EE2BA
:101130000E94FB04E80EF91EC15018F120E030E0D7
:1011400040E251E4C501B4010E94F1162B013C01BB
:101150000E94F9184B01B12CA12C4AE0C501B40141
:101160000E94B407E80EF91EC501B4010E94901652
:101170009B01AC01C301B2010E940E184B015C013E
:10118000DBCFC701CF911F910F91FF90EF90DF90C0
:10119000CF90BF90AF909F908F907F906F905F9017
:1011A0004F900895CF93DF93EC0188819981009748
:1011B00011F00E945E1A198218821D821C821B8205
:1011C0001A82DF91CF910895FC018081918100976F
:1011D00011F00C945E1A08950F931F93CF93DF9331
:1011E000EC0188819981009759F02A813B8126176B
:1011F000370730F081E0DF91CF911F910F91089573
:101200008B016F5F7F4F0E94E71A009759F0998317
:1012100088831B830A832C813D81232B59F7FC0192
:101220001082E8CF80E0E7CFEF92FF920F931F93F9
:10123000CF93DF93EC01FB01E080F180E114F10436
:1012400011F10481158101151105A9F08C819D8191
:10125000080F191FB801CE010E94EC08882399F0ED
:10126000288139818C819D81B701820F931F0E9453
:10127000AD1B1D830C83CE01DF91CF911F910F9188
:10128000FF90EF900895CE010E94D208F4CFEF9224
:10129000FF920F931F93CF93DF93EC017B018A01A1
:1012A000BA010E94EC0881110BC0CE010E94D20845
:1012B000CE01DF91CF911F910F91FF90EF90089594
:1012C0001D830C83B701888199810E94AD1BF0CFEB
:1012D000EF92FF920F931F93CF93DF93CDB7DEB7BB
:1012E000A1970FB6F894DEBF0FBECDBF7C01CB0136
:1012F000BA01F701118210821382128215821482C0
:101300008E010F5F1F4F22E044E00E9436140097C9
:10131000C9F0FC0101900020E9F73197AF01481BAB
:10132000590BBC01C7010E944709A1960FB6F8945A
:10133000DEBF0FBECDBFDF91CF911F910F91FF9008
:10134000EF900895C7010E94D208EFCFCF92DF92AD
:10135000EF92FF920F931F93CF93DF93CDB7DEB73A
:101360002C970FB6F894DEBF0FBECDBF7C016B018A
:101370001A8219821C821B821E821D828AE38F833D
:1013800018868E01095F1F4FF80101900020E9F7D0
:101390003197AF01401B510BB801CE0101960E945D
:1013A000470918861F821A8619861C861B86F70134
:1013B000608171816115710529F044815581C801F1
:1013C0000E944709BE016F5F7F4FC8010E94140948
:1013D000B6010E941409FC0144815581608171812C
:1013E00083EF91E00E94550369E771E083EF91E09C
:1013F0000E94A507C8010E94E408CE0101960E9440
:10140000E4082C960FB6F894DEBF0FBECDBFDF9177
:10141000CF911F910F91FF90EF90DF90CF900895A3
:10142000FC01118210821382128215821482FB0148
:1014300001900020E9F73197AF01461B570B0C9440
:1014400047094F925F926F927F928F929F92AF92D5
:10145000BF92CF92DF92EF92FF92CF93DF93CDB7FF
:10146000DEB7AC970FB6F894DEBF0FBECDBF6D8769
:101470007E878F87988B2D8F3E8F4F8F58A320911B
:1014800028013091290140912A0150912B0160914E
:1014900030017091310180913201909133010E94AD
:1014A00080184B015C016091340170913501072E69
:1014B000000C880B990B0E94921620E030E04AE75E
:1014C00054E40E9480186B017C016091ED017091E1
:1014D000EE018091EB019091EC01681B790B072ED6
:1014E000000C880B990B0E949216A50194010E9492
:1014F000F116A70196010E9480189B01AC016D8531
:101500007E858F8598890E940E182B013C01609181
:10151000F1017091F2018091EF019091F001681B4F
:10152000790B072E000C880B990B0E949216A501CF
:1015300094010E94F116A70196010E9480189B0158
:10154000AC016D8D7E8D8F8D98A10E940E186B0160
:101550007C0120911E0130911F014091200150918A
:101560002101C301B2010E940F184B015C0180925E
:101570001E0190921F01A0922001B09221012091A2
:101580002201309123014091240150912501C7018E
:10159000B6010E940F18698F7A8F8B8F9C8F609392
:1015A00022017093230180932401909325012091BF
:1015B0001601309117014091180150911901298BA2
:1015C0003A8B4B8B5C8B80911A0190911B01A091FF
:1015D0001C01B0911D018D8B9E8BAF8BB88FC30109
:1015E000B2010E94F1162B013C012D893E894F89E1
:1015F000588DC501B4010E94F1169B01AC01C301D5
:10160000B2010E940F180E94F218CB010E94B4058B
:1016100029893A894B895C89C701B6010E94F11674
:101620006B017C012D893E894F89588D698D7A8D9A
:101630008B8D9C8D0E94F1169B01AC01C701B601F8
:101640000E940F180E94F218CB010E948E050E9482
:101650008302698B7A8B8B8B9C8B6093F1027093E6
:10166000F2028093F3029093F4028091ED02909144
:10167000EE02A091EF02B091F00229893A894B89DC
:101680005C89281B390B4A0B5B0BCA01B901623319
:1016900071058105910508F42AC10E94901620E089
:1016A00030E04AE754E40E9480182B013C012D8D64
:1016B0003E8D4F8D58A16D857E858F8598890E94BE
:1016C0000F186B017C018091E1029091E202A091E0
:1016D000E302B091E4028DA39EA3AFA3B8A78090CC
:1016E000E9029090EA02A090EB02B090EC02C501F2
:1016F000B4010E946C1969A77AA78BA79CA72091B7
:10170000E5023091E6024091E7025091E80229A3F8
:101710003AA34BA35CA3C501B4010E947B18698F57
:101720007A8F8B8F9C8F2D8D3E8D4F8D58A16D851F
:101730007E858F8598890E948B168111EDC020E0EF
:1017400030E040E05FE3C701B6010E94F1166B0193
:101750007C01298D3A8D4B8D5C8D0E94F116A30181
:1017600092010E94F1162DA13EA14FA158A50E9401
:101770000F186093E1027093E2028093E30290936A
:10178000E40229A53AA54BA55CA5C701B6010E94B4
:10179000F116A30192010E94F11629A13AA14BA1D1
:1017A0005CA10E940F186093E5027093E60280939B
:1017B000E7029093E80289899A89AB89BC89809372
:1017C000ED029093EE02A093EF02B093F0024091ED
:1017D000E1025091E2026091E3027091E402CE01D5
:1017E00007960E9468096CE771E0CE0101960E949D
:1017F000100ABE01695F7F4FCE0101960E94A609C3
:10180000CE0101960E94E408CE0107960E94E408EA
:101810004091E5025091E6026091E7027091E80282
:10182000CE0107960E94680967E871E0CE01019633
:101830000E94100ABE01695F7F4FCE0101960E948F
:10184000A609CE0101960E94E408CE0107960E94E7
:10185000E4084091E9025091EA026091EB02709134
:10186000EC02CE0107960E94680962E971E0CE01A0
:1018700001960E94100ABE01695F7F4FCE0101965A
:101880000E94A609CE0101960E94E408CE010796A7
:101890000E94E4086091E1027091E2028091E3020B
:1018A0009091E40242E00E94FA0789E00E94FB0462
:1018B0006091E5027091E6028091E7029091E80262
:1018C00042E00E94FA0789E00E94FB046091E9026D
:1018D0007091EA028091EB029091EC0242E00E944A
:1018E000FA0769E771E080E992E00E94A507AC96EB
:1018F0000FB6F894DEBF0FBECDBFDF91CF91FF9042
:10190000EF90DF90CF90BF90AF909F908F907F909F
:101910006F905F904F9008958091F5029091F6023C
:10192000A091F702B091F8028D8B9E8BAF8BB88F90
:101930002D853E854F8558896D8D7E8D8F8D98A123
:101940000E940E186D877E878F87988B20E030E08D
:1019500040E05FE36D897E898F89988D0E94F11642
:10196000A70196010E94F1162D853E854F85588965
:101970000E9480186B017C012D893E894F89588D0A
:101980006D857E858F8598890E948018A3019201BC
:101990000E94F116A50194010E940F186D877E87A1
:1019A0008F87988B0E946C192B013C0129A53AA5C1
:1019B0004BA55CA5C701B6010E94F1169B01AC01C5
:1019C0006DA17EA18FA198A50E940E184B015C010C
:1019D000A3019201C701B6010E94F1169B01AC015F
:1019E000C501B4010E940F186093E1027093E202F6
:1019F0008093E3029093E4026D857E858F859889BC
:101A00000E947B182B013C01298D3A8D4B8D5C8DFA
:101A1000C701B6010E94F11629A13AA14BA15CA110
:101A20000E940F184B015C01A3019201C701B6018E
:101A30000E94F1169B01AC01C501B4010E940E1871
:101A40006093E5027093E6028093E7029093E802C8
:101A50002D853E854F8558892093E9023093EA020F
:101A60004093EB025093EC02A6CE1F920F920FB65A
:101A70000F9211242F933F938F939F93AF93BF9314
:101A80008091CC019091CD01A091CE01B091CF0178
:101A90003091CB0123E0230F2D3758F50196A11D7E
:101AA000B11D2093CB018093CC019093CD01A093E5
:101AB000CE01B093CF018091D0019091D101A0913E
:101AC000D201B091D3010196A11DB11D8093D00127
:101AD0009093D101A093D201B093D301BF91AF9164
:101AE0009F918F913F912F910F900FBE0F901F905C
:101AF000189526E8230F0296A11DB11DD2CF1F9283
:101B00000F920FB60F9211242F933F934F935F9331
:101B10006F937F938F939F93AF93BF93EF93FF93B5
:101B2000E0911401F09115010995FF91EF91BF919A
:101B3000AF919F918F917F916F915F914F913F9165
:101B40002F910F900FBE0F901F9018951F920F921C
:101B50000FB60F9211242F933F934F935F936F9380
:101B60007F938F939F93AF93BF93EF93FF93E091F6
:101B70001201F09113010995FF91EF91BF91AF917F
:101B80009F918F917F916F915F914F913F912F9195
:101B90000F900FBE0F901F9018951F920F920FB6C7
:101BA0000F9211242F933F934F935F936F937F93E3
:101BB0008F939F93AF93BF93EF93FF93E0911001A7
:101BC000F09111010995FF91EF91BF91AF919F9114
:101BD0008F917F916F915F914F913F912F910F90D6
:101BE0000FBE0F901F9018951F920F920FB60F9275
:101BF00011242F933F934F935F936F937F938F9312
:101C00009F93AF93BF93EF93FF93E0910E01F091F9
:101C10000F010995FF91EF91BF91AF919F918F9126
:101C20007F916F915F914F913F912F910F900FBED8
:101C30000F901F9018951F920F920FB60F921124BC
:101C40002F933F934F935F936F937F938F939F93C4
:101C5000AF93BF93EF93FF93E0910C01F0910D01CF
:101C60000995FF91EF91BF91AF919F918F917F91D6
:101C70006F915F914F913F912F910F900FBE0F90F9
:101C80001F9018951F920F920FB60F9211248F93E9
:101C90009F938091E1009091E100937F9093E10008
:101CA00083FF0FC01092E90091E09093EB00109237
:101CB000EC0092E39093ED001092E10198E0909394
:101CC000F00082FF22C093E09093E9009091F2002F
:101CD000992319F09AE39093E8009091C601992313
:101CE00041F09091C60191509093C601911101C0AD
:101CF0005D9A9091E001992341F09091E00191501B
:101D00009093E001911101C0289A84FF18C080913E
:101D1000E2008E7E81608093E2008091E1008F7E00
:101D20008093E1008091C7018E7E80618093C7011E
:101D30009F918F910F900FBE0F901F90189580FF6D
:101D4000F7CF8091E2008E7E80618093E2008091E7
:101D5000E1008E7E8093E1008091C7018E7E8160DC
:101D6000E5CF1F920F920FB60F921124CF92DF9200
:101D7000EF92FF920F931F932F933F934F935F9395
:101D80006F937F938F939F93AF93BF93EF93FF9343
:101D9000CF93DF93CDB7DEB76C97DEBFCDBF109288
:101DA000E9008091E80083FF25C068E0CE014596F8
:101DB0000E94480382EF8093E8008D8987FF39C035
:101DC0009091E80090FFFCCF982F907609F034C1F5
:101DD0009E894F89588D2F89F88C911131C0803898
:101DE00061F58091C8018093F1001092F1008EEFAF
:101DF0008093E8006C960FB6F894DEBF0FBECDBF9F
:101E0000DF91CF91FF91EF91BF91AF919F918F9112
:101E10007F916F915F914F913F912F911F910F9102
:101E2000FF90EF90DF90CF900F900FBE0F901F901C
:101E300018959EEF9093E800C7CF1092F100D5CF90
:101E4000913059F48111D3CF4130510581F6809101
:101E5000C8018D7F8093C801CACF933049F48111A6
:101E6000C6CF4130510519F68091C8018260F2CF8A
:101E7000953041F48091E80080FFFCCF20682093EA
:101E8000E300B5CF963009F0A9C00B8D1C8D22E080
:101E90001092E9001092C4011092C301F2122EC0F8
:101EA0001092C2011092C1010E9417031F8299E093
:101EB0009983FA8291E09E8390EA98879AEF9987B6
:101EC0002091C3013091C401275F3F4F3C832B8396
:101ED0008D831092E9001092C4011092C3011093F7
:101EE000C2010093C10149E050E0BE016F5F7F4F26
:101EF00080E00E94F1020E94170379CF1093C20183
:101F00000093C1010E94CC01DC0112960D911C913D
:101F10000115110509F451C1D801ED91FC9104801E
:101F2000F581E02DBE016B5E7F4FC80109950097DA
:101F300009F03EC1F80100851185EACFF3E0FF12F8
:101F40000EC08F89882309F440C0823061F440E8D4
:101F500062E18BE492E00E94BE02811148CF81E2EF
:101F60008093EB0047CF813029F440E862E188E3B9
:101F700092E0F1CF833099F70E94CC01DC011296F8
:101F8000ED90FC908E010F5F1F4F6801E114F1048A
:101F900079F0D701ED91FC910680F781E02DB80131
:101FA000C7010995080F111DF701E084F184EECFF8
:101FB000D8011C92F60101900020E9F73197BF018A
:101FC0006C197D0940E0C601C6CF62E272E0FB01F8
:101FD000449150E080E80E94F10209CF973009F463
:101FE000BECF983021F481E08093F10000CF99308A
:101FF00009F0FDCE837009F0B2CFEDE3F1E081E0AE
:1020000031E096E32191222371F08093E90030932F
:10201000EB00DF0111972C912093EC009093ED00E1
:102020008F5F873079F78EE78093EA001092EA009D
:102030008F898093E101DBCE8B8D9C8D1092E9001E
:102040001092C4011092C3019093C2018093C10108
:10205000898D811192C08E899D89913A49F481328E
:1020600009F07DCF47E050E064E071E080E0B3CF5D
:10207000913209F074CF833269F48F89988DB0E082
:10208000A0E08093000190930101A0930201B0931E
:102090000301ADCE803269F48091E80082FFFCCF6D
:1020A00067E084E091E00E9448038BEF8093E800B2
:1020B0009ECE823209F09BCE8F8980930B01EEEF8A
:1020C000FFE7859194918B3F9C4D51F1E0E0F8E062
:1020D0008091040190910501A0910601B091070142
:1020E000803B9440A105B105F1F480910B0180FD86
:1020F0001AC0EE3F8AE0F80789F587E797E79183F2
:102100008083809160008093C50188E19BE00FB6D9
:10211000F894A895809360000FBE9093600067CEFE
:10212000EEEFFAE0D5CF808191818737974709F0AC
:102130005ECEA89580916000886180936000809158
:10214000C50180936000EE3F2AE0F20789F080919C
:10215000FE0A9091FF0A9183808349CE808191810C
:102160008737980751F29093FF0A8093FE0AC5CFF4
:102170001092FF0A1092FE0A3ACE0E94CC01DC01B6
:1021800012960D911C910115110509F4E8CED801A4
:10219000ED91FC910190F081E02DBE016B5E7F4FCF
:1021A000C8010995811123CEF80100851185EBCF77
:1021B000181619060CF41BCED2CEF1E0FF12BECEDB
:1021C00066E272E004CF1F920F920FB60F921124B5
:1021D0002F933F934F935F936F937F938F939F932F
:1021E000AF93BF93EF93FF9383EF91E00E94D303EC
:1021F000FF91EF91BF91AF919F918F917F916F91DF
:102200005F914F913F912F910F900FBE0F901F90B4
:1022100018951F920F920FB60F9211242F938F9340
:102220009F93EF93FF93E0910302F091040280816A
:10223000E0910902F0910A0282FD1BC09081809119
:102240000C028F5F8F7320910D02821741F0E09195
:102250000C02F0E0ED50FE4F958F80930C02FF9141
:10226000EF919F918F912F910F900FBE0F901F9024
:1022700018958081F4CF1F920F920FB60F92112400
:102280002F933F934F935F936F937F938F939F937E
:10229000AF93BF93EF93FF93CF93DF9300D01F9241
:1022A000CDB7DEB783B1898389819091E002892718
:1022B0008A8380916B009A8189238B838B8180FF35
:1022C00005C0E091B101F091B20109958B8181FFC8
:1022D00005C0E091B301F091B40109958B8182FFB3
:1022E00005C0E091B501F091B60109958B8183FF9E
:1022F00005C0E091B701F091B80109958B8184FF89
:1023000005C0E091B901F091BA0109958B8185FF73
:1023100005C0E091BB01F091BC0109958B8186FF5E
:1023200005C0E091BD01F091BE0109958B8187FF49
:1023300005C0E091BF01F091C001099589818093AA
:10234000E0020F900F900F90DF91CF91FF91EF91EE
:10235000BF91AF919F918F917F916F915F914F91BD
:102360003F912F910F900FBE0F901F901895E3EFA4
:10237000F1E01382128288EE93E0A0E0B0E0848363
:102380009583A683B78327E431E0318320832DEC46
:1023900030E0358724872CEC30E03787268728EC1F
:1023A00030E0318B208B29EC30E0338B228B2AEC10
:1023B00030E0358B248B2EEC30E0378B268B118E62
:1023C000128E138E148EE0E9F2E01382128284835F
:1023D0009583A683B78389E591E0918380838FEF0E
:1023E0009FEF9587848783B18093E00280E090EE31
:1023F000AEE0B3E48093F5029093F602A093F70267
:10240000B093F8026BE771E089EF92E00E94100A46
:102410000E948302EFEFF2E01282158210868EE0B6
:10242000818781E0828783878BE691E09183808337
:102430000895789484B5826084BD84B5816084BD3C
:1024400085B5826085BD85B5816085BD80916E0052
:10245000816080936E001092810080918100826083
:1024600080938100809181008160809381008091C0
:1024700080008160809380008091910082608093D1
:1024800091008091910081608093910080919000F3
:102490008160809390008091C10084608093C1002E
:1024A0008091C10082608093C1008091C1008160F1
:1024B0008093C1008091C30081608093C3008091AC
:1024C000C00082608093C0008091C20081608093D0
:1024D000C20080917A00846080937A0080917A00B3
:1024E000826080937A0080917A00816080937A0084
:1024F00080917A00806880937A001092E1011092B6
:10250000C8011092C7018091D70081608093D700E5
:1025100080EA8093D80089B5806189BD89B58260E1
:1025200089BD09B400FEFDCF61E070E080E090E07D
:102530000E9451028091D8008F7C80618093D800E6
:102540008091E000807F8093E0008091E1008E7EAA
:102550008093E1008DE08093E200559A209A0E94DA
:1025600083026093ED027093EE028093EF029093EA
:10257000F0021092E1021092E2021092E302109235
:10258000E4021092E5021092E6021092E702109225
:10259000E8021092E9021092EA021092EB02109205
:1025A000EC028FEF9FEF90939D0280939C0264E674
:1025B00070E080E090E00E94510262EA71E080E900
:1025C00092E00E94A50769E771E080E992E00E942D
:1025D000A507E0910302F091040282E08083E0917C
:1025E000FF01F09100021082E0910102F0910202DD
:1025F00080E1808310920B02E0910702F0910802C3
:1026000086E08083E0910502F0910602808180617E
:102610008083E0910502F0910602808188608083CA
:10262000E0910502F0910602808180688083E0914C
:102630000502F091060280818F7D8083EAEAF2E054
:102640008491EBE8F2E0D491ECE6F2E0C491CC2383
:1026500089F081110E94E001EC2FF0E0EE0FFF1FE6
:10266000E25AFD4FA591B4918FB7F894EC91ED2B00
:10267000EC938FBF61EA71E080E992E00E94A507C8
:1026800069E771E080E992E00E94A507EE24E394F7
:10269000C0E0D0E0DD24D39482E0C82E93E0B92ED0
:1026A00001E010E08091C9019091CA01009761F0AA
:1026B000019709F456C02097A9F30E94BF0388230D
:1026C00089F30E940000EECF8FEF92E00E94240772
:1026D000F82EFE240E94830220910403213099F0F9
:1026E00048F0223009F1233041F11092CA011092D2
:1026F000C90134C0F110F9CF70930603609305034C
:10270000D0920403F2CFFF2019F010920403EDCF12
:102710002091050330910603621B730B6F30710526
:1027200020F3C0920403E1CFFF20F9F27093060377
:1027300060930503B0920403D8CFFF2091F320915A
:10274000050330910603621B730B6F30710568F24D
:10275000109204031093CA010093C9010E94DA0584
:10276000AACF10921E0110921F0110922001109208
:102770002101109222011092230110922401109243
:10278000250190E080E00E94B40590E080E00E9486
:102790008E050E9483022B013C010E948302641972
:1027A000750986099709613177428105910568F4B9
:1027B0000E94B806882389F320E030E048EC52E418
:1027C000CA01B9010E94210AE8CF90E080E00E948E
:1027D000B40590E080E00E948E0510921E011092D8
:1027E0001F011092200110922101109222011092DB
:1027F0002301109224011092250190E080E00E94B4
:10280000B40590E080E00E948E050E9483022B01B7
:102810003C010E9483026419750986099709613198
:1028200077428105910578F40E94B806882389F3E0
:1028300020E030E044EE52E460E070E08AEA92E4A6
:102840000E94210AE6CF90E080E00E94B40590E06B
:1028500080E00E948E050E94DA051092CA01109253
:10286000C90129CF89EF92E00C94E408EF920F930D
:102870001F93CF93DF93E80134E047FD34E1042E4A
:10288000000C550B57FF03C0519541955109E32E9C
:10289000022F242FAE010E945414CE01DF91CF915C
:1028A0001F910F91EF900895A9E0B0E0EAE5F4E1FF
:1028B0000C94B5176A01F22EB02E102FFBE3AF2E49
:1028C000A01608F41BE31F5F012F27E0AE014F5F46
:1028D0005F4F0E94B315BC018981982F9970913088
:1028E00009F43FC09BE2E1FC04C09E2D9170E0FC26
:1028F0003AC05E2D5071E82FE87083FF46C084E037
:10290000911101C083E0EF2DE81B8F1508F0E0E086
:10291000D6018E2F20E2552351F1992329F0D601BB
:102920009C93C60101966C0196012D5F3F4FE2FE1C
:1029300024C08EE4D6018C9391E411969C93119758
:1029400012968C93D9018E2F90E281111BC0E20F59
:10295000F32FF11D10828EEF9FEF2996ECE00C947F
:10296000D1179DE2C6CF90E2C4CF2D938150811143
:10297000FCCFCE0ED11CE0E0D0CF8EE6D6018C93FA
:1029800091E6DBCF9D938150E0CF482F447082FFCA
:102990003DC084E0911101C083E08F1510F4EF2D4C
:1029A000E81BD6018E2F20E2552309F1992329F047
:1029B000D6019C93C60101966C0196012D5F3F4F95
:1029C000E2FE1BC089E4D6018C938EE411968C93B1
:1029D000119786E412968C93D9018E2F90E288236A
:1029E00009F4B5CF9D938150FACF2D938150811179
:1029F000FCCFCE0ED11CE0E0D9CF89E6D6018C9376
:102A00008EE611968C93119786E6E4CF9B0177FFB3
:102A100002C030E020E0A1E0B0E0911102C0B0E0DF
:102A2000A0E0F9013196AE0FBF1F8B2C912CBB207B
:102A300009F461C05401EFEFAE1ABE0AAA0DBB1D26
:102A4000FA161B0619F014F04F2D4A1B511188C0BD
:102A5000E3FC59C07601A42FB0E2A1114FC0C40E0F
:102A6000D11C992309F45BC040E0D6011196F60110
:102A700090836D01552309F448C0012F060F9A81F8
:102A8000582F507184FF03C0913309F40150101680
:102A90000CF047C0093008F008E0EEE2FE2E5B01C2
:102AA000A01AB10885019194819491082F3F3207B3
:102AB00029F4D601FC92F60131966F016217730773
:102AC00094F1021713077CF5DB01A21BB30BAA24B8
:102AD000A394B12CAC0EBD1EAA0DBB1D11968C91FA
:102AE00021503109D601119628153905F4F0F60167
:102AF00080836D01DBCFB12CA12CA0CFF701B19366
:102B00007F01A150AACF9111B0CFD601942F50E3ED
:102B100002C05D9391509111FCCFC40ED11C40E0D6
:102B2000ACCF01E0BACF80E3DBCF6217730731F49B
:102B3000963388F4953311F4552369F0F6018083B8
:102B4000FD01842F90E2811108C0A40FB11D1C92D9
:102B500090E080E002CF81E3F1CF91938150F3CFF9
:102B6000911183CF8ACF283008F027E03327DA018C
:102B7000990F311D87FD916000966105710539F44B
:102B800032602E5F3D9330E32A95E1F708959F3F31
:102B900030F080387105610509F03C5F3C5F3D9382
:102BA000913008F08068911DDF93CF931F930F93AE
:102BB000FF92EF92192F987F9695E92F969596950B
:102BC000E90FFF27EC5DFE4F99273327EE24FF2402
:102BD000A701E70105900894079428F4360FE71E33
:102BE000F81E491F511D660F771F881F991F0694F5
:102BF000A1F70590079428F4E70EF81E491F561F09
:102C0000C11D770F881F991F661F0694A1F70590B5
:102C1000079428F4F80E491F561FC71FD11D880FAF
:102C2000991F661F771F0694A1F70590079420F45B
:102C3000490F561FC71FD81F990F661F771F881F80
:102C40000694A9F784911095177041F0D695C79511
:102C500057954795F794E7941A95C1F7EAECF0E099
:102C600068941590159135916591959105907FE245
:102C70007395E118F10A430B560BC90BD009C0F745
:102C8000E10CF11E431F561FC91FD01D7EF4703387
:102C900011F48A95E6CFE894015030F0080F0AF459
:102CA0000027021708F4202F2395022F7A3328F0EB
:102CB00079E37D932A95E9F710C07D932A9589F6EB
:102CC000069497956795379517951794E118F10A2B
:102CD000430B560BC90BD00998F023957E91739541
:102CE0007A3308F070E37C932013B8F77E9170611B
:102CF0007D9330F0839571E37D9370E32A95E1F73E
:102D00001124EF90FF900F911F91CF91DF919927A0
:102D100087FD909508950E94CD1608F481E00895EE
:102D2000E89409C097FB3EF4909580957095619565
:102D30007F4F8F4F9F4F9923A9F0F92F96E9BB271B
:102D40009395F695879577956795B795F111F8CF97
:102D5000FAF4BB0F11F460FF1BC06F5F7F4F8F4F02
:102D60009F4F16C0882311F096E911C0772321F0F8
:102D70009EE8872F762F05C0662371F096E8862F90
:102D800070E060E02AF09A95660F771F881FDAF7E7
:102D9000880F9695879597F90895990F0008550F14
:102DA000AA0BE0E8FEEF16161706E807F907C0F0D1
:102DB00012161306E407F50798F0621B730B840BD9
:102DC000950B39F40A2661F0232B242B252B21F4B3
:102DD00008950A2609F4A140A6958FEF811D811D53
:102DE00008950E9404170C9475170E94671738F015
:102DF0000E946E1720F0952311F00C945E170C942E
:102E0000641711240C94A9170E94861770F3959FDC
:102E1000C1F3950F50E0551F629FF001729FBB27D1
:102E2000F00DB11D639FAA27F00DB11DAA1F649F6D
:102E30006627B00DA11D661F829F2227B00DA11D20
:102E4000621F739FB00DA11D621F839FA00D611DA6
:102E5000221F749F3327A00D611D231F849F600DC7
:102E6000211D822F762F6A2F11249F5750409AF0F0
:102E7000F1F088234AF0EE0FFF1FBB1F661F771F7C
:102E8000881F91505040A9F79E3F510580F00C9447
:102E90005E170C94A9175F3FE4F3983ED4F3869530
:102EA00077956795B795F795E7959F5FC1F7FE2BE7
:102EB000880F911D9695879597F9089597F99F67C3
:102EC00080E870E060E008959FEF80EC08950024B2
:102ED0000A941616170618060906089500240A947F
:102EE00012161306140605060895092E0394000C05
:102EF00011F4882352F0BB0F40F4BF2B11F460FF94
:102F000004C06F5F7F4F8F4F9F4F089557FD9058BC
:102F1000440F551F59F05F3F71F04795880F97FB9D
:102F2000991F61F09F3F79F0879508951216130657
:102F30001406551FF2CF4695F1DF08C01616170686
:102F40001806991FF1CF86957105610508940895BB
:102F5000E894BB2766277727CB0197F908952F922E
:102F60003F924F925F926F927F928F929F92AF9219
:102F7000BF92CF92DF92EF92FF920F931F93CF9366
:102F8000DF93CDB7DEB7CA1BDB0B0FB6F894DEBFFD
:102F90000FBECDBF09942A88398848885F846E8423
:102FA0007D848C849B84AA84B984C884DF80EE806D
:102FB000FD800C811B81AA81B981CE0FD11D0FB676
:102FC000F894DEBF0FBECDBFED010895A1E21A2E29
:102FD000AA1BBB1BFD010DC0AA1FBB1FEE1FFF1FBD
:102FE000A217B307E407F50720F0A21BB30BE40B0D
:102FF000F50B661F771F881F991F1A9469F7609554
:103000007095809590959B01AC01BD01CF0108950D
:10301000EE0FFF1F0590F491E02D09945058BB2747
:10302000AA270E9426180C9475170E94671738F07B
:103030000E946E1720F039F49F3F19F426F40C9487
:1030400064170EF4E095E7FB0C945E17E92F0E94DD
:10305000861758F3BA17620773078407950720F09D
:1030600079F4A6F50C94A8170EF4E0950B2EBA2F60
:10307000A02D0B01B90190010C01CA01A00111247E
:10308000FF27591B99F0593F50F4503E68F11A162A
:10309000F040A22F232F342F4427585FF3CF4695BB
:1030A00037952795A795F0405395C9F77EF41F16DD
:1030B000BA0B620B730B840BBAF09150A1F0FF0FA7
:1030C000BB1F661F771F881FC2F70EC0BA0F621F93
:1030D000731F841F48F4879577956795B795F79583
:1030E0009E3F08F0B0CF9395880F08F09927EE0F18
:1030F0009795879508950E942A19E3950C94531982
:103100000E9494180C9475170E946E1758F00E9434
:10311000671740F029F45F3F29F00C945E175111B6
:103120000C94A9170C9464170E94861768F39923CE
:10313000B1F3552391F3951B550BBB27AA276217B3
:103140007307840738F09F5F5F4F220F331F441FC0
:10315000AA1FA9F335D00E2E3AF0E0E832D09150F4
:103160005040E695001CCAF72BD0FE2F29D0660FE1
:10317000771F881FBB1F261737074807AB07B0E824
:1031800009F0BB0B802DBF01FF2793585F4F3AF02A
:103190009E3F510578F00C945E170C94A9175F3F81
:1031A000E4F3983ED4F3869577956795B795F795B0
:1031B0009F5FC9F7880F911D9695879597F9089598
:1031C000E1E0660F771F881FBB1F62177307840734
:1031D000BA0720F0621B730B840BBA0BEE1F88F743
:1031E000E09508950E94F9186894B1110C94A917FC
:1031F00008950E948E1788F09F5798F0B92F99274D
:10320000B751B0F0E1F0660F771F881F991F1AF0D1
:10321000BA95C9F714C0B13091F00E94A817B1E077
:1032200008950C94A817672F782F8827B85F39F076
:10323000B93FCCF3869577956795B395D9F73EF46A
:1032400090958095709561957F4F8F4F9F4F089512
:103250000C9464170E948E17D8F3E894E0E0BB2723
:103260009F57F0F02AED3FE049EC06C0EE0FBB0F90
:10327000661F771F881F28F0B23A6207730784071A
:1032800028F0B25A620B730B840BE3959A9572F790
:10329000803830F49A95BB0F661F771F881FD2F7CE
:1032A00090480C947B19EF93E0FF07C0A2EA2AED47
:1032B0003FE049EC5FEB0E9426180E9475170F90C3
:1032C000039401FC9058ECEAF0E00C9487190E94FA
:1032D000CD1608F48FEF08959F930E942A190F903E
:1032E00007FCEE5F0C9453190E94CD16880B990BC6
:1032F00008959F3F31F0915020F487957795679519
:10330000B795880F911D9695879597F908959F9386
:103310008F937F936F93FF93EF939B01AC010E9478
:10332000F116EF91FF910E949B192F913F914F91C0
:103330005F910C94F116DF93CF931F930F93FF923D
:10334000EF92DF927B018C01689406C0DA2EEF01C8
:103350000E940417FE01E894A591259135914591AD
:103360005591A6F3EF010E942618FE019701A801CE
:10337000DA9469F7DF90EF90FF900F911F91CF9152
:10338000DF9108950F931F93CF93DF9382309105C0
:1033900010F482E090E0E0910D03F0910E0330E034
:1033A00020E0B0E0A0E0309799F42115310509F450
:1033B0004AC0281B390B24303105D8F58A819B81FE
:1033C0006115710589F1FB0193838283FE0111C0B0
:1033D000408151810281138148175907E0F0481755
:1033E000590799F4109761F012960C93129713965F
:1033F0001C933296CF01DF91CF911F910F910895C9
:1034000000930D0310930E03F4CF2115310551F0F5
:103410004217530738F0A901DB019A01BD01DF0112
:10342000F801C1CFEF01F9CF90930E0380930D0304
:10343000CDCFFE01E20FF31F81939193225031090A
:1034400039832883D7CF20910B0330910C03232B92
:1034500041F4209138013091390130930C032093CD
:103460000B0320913601309137012115310541F4CC
:103470002DB73EB740913A0150913B01241B350BCB
:10348000E0910B03F0910C03E217F307A0F42E1B5D
:103490003F0B2817390778F0AC014E5F5F4F2417B8
:1034A000350748F04E0F5F1F50930C0340930B03FA
:1034B000819391939FCFF0E0E0E09CCFCF93DF9397
:1034C0000097E9F0FC01329713821282A0910D035C
:1034D000B0910E03ED0130E020E01097A1F42081BF
:1034E0003181820F931F20910B0330910C03281719
:1034F000390709F061C0F0930C03E0930B03DF91EF
:10350000CF910895EA01CE17DF07E8F54A815B8184
:103510009E0141155105B1F7E901FB83EA83499109
:103520005991C40FD51FEC17FD0761F4808191817B
:103530000296840F951FE901998388838281938184
:103540009B838A83F0E0E0E012968D919C91139723
:103550000097B9F52D913C911197CD010296820FFC
:10356000931F20910B0330910C032817390739F66C
:10357000309751F510920E0310920D03B0930C0387
:10358000A0930B03BCCFD383C28340815181840FAE
:10359000951FC817D90761F44E5F5F4F88819981E5
:1035A000480F591F518340838A819B819383828373
:1035B0002115310509F0B0CFF0930E03E0930D0310
:1035C0009ECFFD01DC01C0CF13821282D7CFB0E0C5
:1035D000A0E0EDEEFAE10C94B1178C01009751F4E4
:1035E000CB010E94C2198C01C801CDB7DEB7E0E162
:1035F0000C94CD17FC01E60FF71F9C0122503109F6
:10360000E217F30708F49DC0D901CD91DC91119721
:10361000C617D70798F0C530D10530F3CE0104970F
:103620008617970708F3C61BD70B2297C193D19330
:103630006D937C93CF010E945E1AD6CF5B01AC1ACA
:10364000BD0A4C018C0E9D1EA0910D03B0910E037E
:10365000512C412CF12CE12C109731F580910B036A
:1036600090910C038815990509F05CC04616570621
:1036700008F058C08091360190913701009741F4CD
:103680008DB79EB740913A0150913B01841B950B39
:10369000E817F90708F055C0F0930C03E0930B030B
:1036A000F90171836083A0CF8D919C91119712963F
:1036B0006C90129713967C901397A815B90559F53D
:1036C0006C0142E0C40ED11CCA14DB0420F1AC0131
:1036D0004A195B09DA011296159780F062827382AB
:1036E00051834083D9016D937C93E114F10471F00F
:1036F000D7011396FC93EE93129776CF22968C0FF8
:103700009D1FF90191838083F301EFCFF0930E03A6
:10371000E0930D0369CF4816590608F42C017D018A
:10372000D3019ACFCB010E94C2197C01009749F0C6
:10373000AE01B8010E94A41BC8010E945E1A870155
:1037400053CF10E000E050CFFB01DC0102C001903C
:103750000D9241505040D8F70895FB01DC010190D3
:103760000D920020E1F7089511E0C6E6D1E004C013
:10377000FE010E9408182196C736D107C9F7F894B0
:02378000FFCF79
:10378200FFFFFFFF00E10000000000008F028F0238
:103792008F028F028F020000003FCDCCCC3D000093
:1037A200000000000000A0050000B44400000C422C
:1037B20058E95B43320000000F03800000C18081A2
:1037C20000000000000000F403550382034004B32C
:1037D200039103A50300000000E50460040B05004B
:1037E2000551050F052D050000000024076E616ECE
:1037F20000696E66006F7666000D0A00506F73698D
:1038020074696F6E2F7800506F736974696F6E2FD1
:103812007900506F736974696F6E2F746865746193
:0A382200002F7365747570282900EB
:00000001FF
