:100000000C94DA000C94EE080C94C7080C94A00829
:100010000C9479080C9402010C9402010C9452087F
:100020000C9402010C940E0C0C9415090C94840988
:100030000C9402010C9402010C9402010C94020134
:100040000C9402010C9402010C9402010C94020124
:100050000C9402010C9402010C9402010C94080807
:100060000C9402010C94DC0B0C94B60B0C94020162
:100070000C9402010C9402010C9402010C940201F4
:100080000C9402010C9402010C9402010C940201E4
:100090000C947A0C0C9402010C9402010C94020151
:1000A0000C9402010C9402010C9402010000000067
:1000B000240027002A002D0030000000000023004B
:1000C000260029002C002F00080B0002020200006D
:1000D00009040000010202000005240010010524AB
:1000E000010101042402060524060001070581031D
:1000F00010004009040100020A0000000705020286
:1001000040000007058302400000040309041201B7
:100110000002EF020140FB1F002300010102030166
:10012000506F6C6F6C7520436F72706F7261746981
:100130006F6E00506F6C6F6C7520412D537461723F
:1001400020333255340000000000250028002B0029
:100150002E00310004040404040304050202020218
:100160000403020202020606060606060404020250
:100170000204040408020110408040102040804026
:1001800080080204018040201002011080102040ED
:1001900040200000000200090F0000030401000CD1
:1001A000000000000000000000000000000000004F
:1001B0000000990D11241FBECFEFDAE0DEBFCDBFE6
:1001C00011E0A0E0B1E0EEE2FFE102C005900D9287
:1001D000AA37B107D9F723E0AAE7B1E001C01D9221
:1001E000AD36B207E1F710E0CAEDD0E004C02197C8
:1001F000FE010E948F0FC93DD107C9F70E940C0E66
:100200000C94950F0C9400002FB7F89480914C0338
:1002100090914D03A0914E03B0914F032FBFE4E3A3
:10022000F3E084879587A687B787108211821282B0
:100230001382148215821682178210861186128606
:1002400013860895FC018091EC01882311F13FB7DA
:10025000F89482E08093E9002091F200822F90E0F0
:100260001816190614F481E090E0882339F02898D4
:1002700044E64093EB014091F1004083222339F0A2
:100280002091F200211103C02BE62093E8003FBF2C
:1002900008958FEF9FEF08952FB7F89483E0809330
:1002A000E9009091E800892F807295FF04C0909139
:1002B000F20080E4891B2FBF08958091E301811132
:1002C0000DC082E08093DF0184E08093E001109212
:1002D000E2011092E10181E08093E3018FED91E072
:1002E000089581508F3008F047C0E82FF0E0E558BE
:1002F000FE4F0C948F0F98019C018A01900194018C
:10030000BC01BC01BC019F01A501A901AD01B30164
:10031000BC01B701809180008F77809380000895A1
:10032000809180008F7DF9CF80918000877FF5CF0D
:1003300084B58F7784BD089584B58F7DFBCF809180
:1003400090008F77809390000895809190008F7D2A
:10035000F9CF80919000877FF5CF8091C0008F7793
:100360008093C00008958091C0008F7DF9CF809167
:10037000C200877F8093C20008951F93CF93DF93BD
:10038000282F30E0F901EE56FE4F8491F901ED5827
:10039000FE4FD491F901EC5AFE4FC491CC23A9F041
:1003A000162F81110E947101EC2FF0E0EE0FFF1F5C
:1003B000EA5BFE4FA591B4918FB7F894EC911111BF
:1003C00008C0D095DE23DC938FBFDF91CF911F91C2
:1003D0000895DE2BF8CF3FB7F8948091DB01909120
:1003E000DC01A091DD01B091DE0126B5A89B05C01E
:1003F0002F3F19F00196A11DB11D3FBFBA2FA92FA4
:10040000982F8827BC01CD01620F711D811D911DA0
:1004100042E0660F771F881F991F4A95D1F708950C
:100420008F929F92AF92BF92CF92DF92EF92FF9204
:100430004B015C010E94EB016B017C010E94EB010E
:100440006C197D098E099F09683E734081059105ED
:10045000A8F321E0821A9108A108B10888EEC80E1D
:1004600083E0D81EE11CF11C81149104A104B104A5
:1004700029F7FF90EF90DF90CF90BF90AF909F90C3
:100480008F90089508950895089508954091CA01A0
:100490005091CB012091C8013091C90142175307F7
:1004A000B4F49091E8009570E1F39091E80092FD2A
:1004B00019C08093F1008091CA019091CB010196FF
:1004C0008F739927892B19F48EEF8093E800809120
:1004D000CA019091CB0101969093CB018093CA0100
:1004E00081E0089580E00895EF92FF920F931F93AB
:1004F000CF93DF93F82E192FE62E042F81E0860F7D
:10050000880F0E94460283E00E944602CF2DD12F21
:10051000EC0EFD2EF11CCE15DF05B9F007FF13C060
:10052000FE0184910E944602182F80E00E9446023C
:10053000812321968111EFCFDF91CF911F910F91F0
:10054000FF90EF9008958881EDCF81E0F5CFDF92A5
:10055000EF92FF920F931F93CF93DF93D82E8A01D0
:10056000EB017B01E40EF51ECE15DF0559F0D7FE39
:1005700012C0FE0184910E94460221968111F4CF9F
:100580000FEF1FEFC801DF91CF911F910F91FF90E7
:10059000EF90DF9008958881EECF0F931F93CF9354
:1005A000DF931F92CDB7DEB782E0898342E450E04B
:1005B00068EC70E080E80E94A7020E945D01DC0107
:1005C00012960D911C910115110589F0D801ED913C
:1005D000FC910280F381E02DBE016F5F7F4FC80167
:1005E000099597FD04C0F80100851185ECCF89813C
:1005F0000F90DF91CF911F910F910895615030F0CE
:100600002091F100FC0120830196F8CF289884E620
:100610008093EB010895AF92BF92CF92DF92EF9259
:10062000FF920F931F93CF93DF936C017B018B019C
:10063000040F151FEB015E01AE18BF08C017D107EC
:1006400059F06991D601ED91FC910190F081E02D76
:10065000C6010995892B79F7C501DF91CF911F91CB
:100660000F91FF90EF90DF90CF90BF90AF900895E3
:10067000FC01538D448D252F30E0842F90E0821BA8
:10068000930B541710F0CF96089501970895FC012D
:10069000918D828D981761F0A28DAE0FBF2FB11D85
:1006A0005D968C91928D9F5F9F73928F90E00895DD
:1006B0008FEF9FEF0895FC01918D828D981731F097
:1006C000828DE80FF11D858D90E008958FEF9FEFEB
:1006D0000895FC01918D228D892F90E0805C9F4FC1
:1006E000821B91098F73992708958AE392E00E94F3
:1006F000690321E0892B09F420E0822F089580E02E
:1007000090E0892B29F00E94750381110C94000060
:100710000895FC01A48DA80FB92FB11DA35ABF4F96
:100720002C91848D90E001968F739927848FA689F0
:10073000B7892C93A089B1898C9182748C93938D05
:10074000848D981306C00288F389E02D80818F7D07
:1007500080830895EF92FF920F931F93CF93DF93BF
:10076000EC0181E0888F9B8D8C8D981319C0E889EE
:10077000F989808185FF14C09FB7F894EE89FF89BD
:100780006083E889F9898081827480839FBF81E0DA
:1007900090E0DF91CF911F910F91FF90EF9008951E
:1007A000F62E0B8D10E00F5F1F4F0F731127E02EF9
:1007B0008C8D8E110CC00FB607FCFACFE889F98931
:1007C000808185FFF5CFCE010E948903F1CFEB8DAB
:1007D000EC0FFD2FF11DE35AFF4FF0829FB7F89405
:1007E0000B8FEA89FB8980818062CFCFCF93DF9323
:1007F000EC01888D8823B9F0AA89BB89E889F98939
:100800008C9185FD03C0808186FD0DC00FB607FC6D
:10081000F7CF8C9185FFF2CF808185FFEDCFCE01A0
:100820000E948903E9CFDF91CF9108958F929F9223
:10083000AF92BF92CF92DF92EF92FF920F931F93EE
:10084000CF93DF936C017B018A0180910B01882398
:1008500009F45CC08091EC01882309F457C08091B1
:10086000CE0180FF05C08091E00082608093E000AF
:10087000E801B12C8AEFA82E93E0892E2AE3922E6C
:10088000209711F4BB20D9F10E944C0181110AC0BC
:10089000AA94AA20D9F161E070E080E090E00E9483
:1008A0001002EECF8C171D0611F00CF08C2F9FB7A5
:1008B000F8948092E9002091E80025FD02C09FBFD6
:1008C000DFCF282F30E0C21BD30BF701815020F07F
:1008D00041914093F100FACFE20EF31EBB2021F0CC
:1008E0009092E800B12CEBCF8091E80085FDE7CF36
:1008F0009092E800BB24B394209709F3F3CF5D985E
:1009000084E68093CD01101611063CF081E090E062
:10091000F6019383828310E000E0C801DF91CF915C
:100920001F910F91FF90EF90DF90CF90BF90AF900D
:100930009F908F900895CF93DF931F92CDB7DEB72E
:100940006983DC01ED91FC910280F381E02D41E0AF
:1009500050E0BE016F5F7F4F09950F90DF91CF91FF
:10096000089583E08093E9008091F200882319F0D4
:100970008AE38093E80008950E944C0190E0089576
:10098000CF93DF931F92CDB7DEB7FC0184859585A9
:1009900097FD08C02FEF3FEF358724870F90DF9139
:1009A000CF910895CE0101960E942201019719F47A
:1009B000898190E0F3CF8FEF9FEFF0CF0F931F93DC
:1009C000CF93DF931F92CDB7DEB78C01FC018485F6
:1009D000958597FF0BC0CE0101960E9422010197D9
:1009E00071F4898190E0F80195878487F801848506
:1009F00095850F90DF91CF911F910F9108958FEF03
:100A00009FEFF1CFFC018485958597FD0BC09FB7C3
:100A1000F89482E08093E9008091F2009FBF90E01B
:100A2000019608959FB7F89482E08093E900809141
:100A3000F2009FBF90E008952E98269A2D98259A4F
:100A40002A98229A2998219A2F98279A8AEA80939D
:100A5000800089E18093810084EA91E0909387008F
:100A600080938600109289001092880010928B006B
:100A700010928A0010928D0010928C0008951092AE
:100A80001E0110921F01109220011092210110925C
:100A900022011092230110922401109225018091CD
:100AA000ED01811105C081E08093ED010E941C05DC
:100AB00010928B0010928A002A98229A8091ED0160
:100AC000811105C081E08093ED010E941C05109208
:100AD0008900109288002998219A0C9404010F93A0
:100AE0001F93CF93DF93EC01888581112FC08985F7
:100AF00090E0FC01ED58FE4F8C5A9E4F21E0288774
:100B00002A85222309F44CC02491FC018491882376
:100B1000C9F090E0880F991FFC01E455FF4F459103
:100B20005491FC01EA5BFE4FA591B4919FB7F894F4
:100B3000FA013081822F809583238083EC91E22B10
:100B4000EC939FBF8FE090E00197F1F7298530E0AB
:100B5000F901EE56FE4F8491F901ED58FE4F0491D4
:100B6000F901EC5AFE4F1491112309F437C0811199
:100B70000E947101E12FF0E0EE0FFF1FE654FF4FDE
:100B8000A591B491EC910E2331E009F430E0832F6C
:100B90002B8582278170DF91CF911F910F9108954E
:100BA0002491FC018491882309F4CCCF90E0880F34
:100BB000991FFC01E455FF4F45915491FC01EA5BFC
:100BC000FE4FA591B4919FB7F894FA0180812095CA
:100BD000822380838C91E22FE823B2CF80E0D8CFAC
:100BE00081E693E00E946F0521E082279FB7F89489
:100BF00040914C0350914D0360914E0370914F030F
:100C00009FBF90916603913081F030F09230F9F0FF
:100C1000933029F180E008958111FCCF509368034F
:100C200040936703209366030895882319F0109278
:100C30006603F0CF2091670330916803421B530B8A
:100C40004F30510540F382E080936603E3CF882361
:100C500011F3509368034093670383E0F5CF882333
:100C600091F32091670330916803421B530B4F307F
:100C7000510580F21092660308952091A501260F78
:100C80003327331F21323105ECF420913402FC016B
:100C900090E080E0243069F082E00895A091A50101
:100CA0002191AC014B575E4FA40FB52FB11D2C9372
:100CB0000196861798F38091A501680F6093A501AE
:100CC00080E0089581E008951092340281E08093DD
:100CD000130210920E0261E082E00E94BD0161E009
:100CE00083E00E94BD01E9EBF0E080818E7F80838C
:100CF00080818D7F808388E48093B80085E4809331
:100D0000BC000895CF93DF9391E0909384018823F2
:100D1000B9F0C091B800D091BA008091BC008A7B34
:100D20008093BC0060E082E00E94BD0160E083E04F
:100D30000E94BD010E946406D093BA00C093B8001F
:100D4000DF91CF9108958F929F92AF92BF92CF92F1
:100D5000DF92EF92FF920F931F93CF93DF93D82FE1
:100D6000C62F142F613208F09CC00E94EB016B016A
:100D70007C018091340281116FC081E08093340244
:100D8000109313029FEF90931202109211029C0F86
:100D90009093100280930F0280910F02DD0FD82BE9
:100DA000D0930F0280910E02813009F07CC0109226
:100DB0000E020E94EB016B017C0180910F02809377
:100DC000BB008091360290913702A0913802B09119
:100DD0003902892B8A2B8B2BA1F00E94EB01009109
:100DE00036021091370220913802309139026C1985
:100DF0007D098E099F09061717072807390708F488
:100E00004CC08091BC0083FDD8CF85EC8093BC00A2
:100E10000E94EB016B017C0180913402813009F466
:100E200044C0809111028C1710F4C0911102EEEEB3
:100E3000F1E0A4E1B2E080E08C1359C08C2FDF9187
:100E4000CF911F910F91FF90EF90DF90CF90BF90C7
:100E5000AF909F908F9008958091360290913702C5
:100E6000A0913802B0913902892B8A2B8B2B09F47F
:100E700080CF0E94EB018090360290903702A090C4
:100E80003802B09039026C197D098E099F098616C7
:100E90009706A806B90608F06CCF809135020E942B
:100EA0008206C0E0CBCF85EEB1CF80913602909123
:100EB0003702A0913802B0913902892B8A2B8B2BF3
:100EC00009F4AACF0E94EB0100913602109137027B
:100ED00020913802309139026C197D098E099F09E1
:100EE000061717072807390708F096CFD6CF919134
:100EF0009D938F5FA1CFE091D7018091D601E81734
:100F000030F4F0E0EC5EFD4F808190E008958FEFCB
:100F10009FEF08959091D7018091D6012FEF3FEF79
:100F2000981748F4E92FF0E0EC5EFD4F208130E0A7
:100F30009F5F9093D701C90108958091D601909148
:100F4000D701891B990B0895CF93DF93CB01EA0159
:100F5000642F0E943D06CE01DF91CF910895CF937B
:100F6000DF931F92CDB7DEB7698361E0CE010196B2
:100F70000E943D0681E090E00F90DF91CF910895AF
:100F800090E080E00895FC0101900020E9F731979E
:100F9000AF01481B590BBC0187ED92E00C9416047D
:100FA00085ED8093BC008091360290913702A0912C
:100FB0003802B09139020796A11DB11D23E0B69504
:100FC000A795979587952A95D1F72091BC0024FD88
:100FD00003C01092340208954091360250913702B6
:100FE0006091380270913902452B462B472B69F3EB
:100FF0000097A105B10541F025E32A95F1F700001E
:101000000197A109B109E1CF809135020C948206C4
:101010001F920F920FB60F9211242F933F938F932D
:101020009F93AF93BF9380914C0390914D03A091F8
:101030004E03B0914F033091DA0123E0230F2D3797
:1010400058F50196A11DB11D2093DA0180934C0340
:1010500090934D03A0934E03B0934F038091DB0117
:101060009091DC01A091DD01B091DE010196A11DFE
:10107000B11D8093DB019093DC01A093DD01B0935F
:10108000DE01BF91AF919F918F913F912F910F9072
:101090000FBE0F901F90189526E8230F0296A11DF2
:1010A000B11DD2CF1F920F920FB60F9211242F9322
:1010B0003F934F935F936F937F938F939F93AF93E0
:1010C000BF93EF93FF93E0911401F09115010995FF
:1010D000FF91EF91BF91AF919F918F917F916F9110
:1010E0005F914F913F912F910F900FBE0F901F90E6
:1010F00018951F920F920FB60F9211242F933F93C2
:101100004F935F936F937F938F939F93AF93BF930F
:10111000EF93FF93E0911201F09113010995FF9174
:10112000EF91BF91AF919F918F917F916F915F915F
:101130004F913F912F910F900FBE0F901F901895D8
:101140001F920F920FB60F9211242F933F934F933C
:101150005F936F937F938F939F93AF93BF93EF931F
:10116000FF93E0911001F09111010995FF91EF912A
:10117000BF91AF919F918F917F916F915F914F91AF
:101180003F912F910F900FBE0F901F9018951F92B7
:101190000F920FB60F9211242F933F934F935F93AB
:1011A0006F937F938F939F93AF93BF93EF93FF932F
:1011B000E0910E01F0910F010995FF91EF91BF9120
:1011C000AF919F918F917F916F915F914F913F91DF
:1011D0002F910F900FBE0F901F9018951F920F9296
:1011E0000FB60F9211242F933F934F935F936F93FA
:1011F0007F938F939F93AF93BF93EF93FF93E09170
:101200000C01F0910D010995FF91EF91BF91AF9104
:101210009F918F917F916F915F914F913F912F910E
:101220000F900FBE0F901F9018951F920F920FB640
:101230000F9211248F939F938091E1009091E10090
:10124000937F9093E10083FF0FC01092E90091E03B
:101250009093EB001092EC0092E39093ED001092CB
:10126000EC0198E09093F00082FF22C093E090930D
:10127000E9009091F200992319F09AE39093E80025
:101280009091CD01992341F09091CD01915090938F
:10129000CD01911101C05D9A9091EB01992341F02C
:1012A0009091EB0191509093EB01911101C0289A1C
:1012B00084FF18C08091E2008E7E81608093E200FE
:1012C0008091E1008F7E8093E1008091CE018E7E3F
:1012D00080618093CE019F918F910F900FBE0F90F0
:1012E0001F90189580FFF7CF8091E2008E7E80617D
:1012F0008093E2008091E1008E7E8093E1008091F6
:10130000CE018E7E8160E5CF1F920F920FB60F92B5
:101310001124CF92DF92EF92FF920F931F932F939E
:101320003F934F935F936F937F938F939F93AF936D
:10133000BF93EF93FF93CF93DF93CDB7DEB76C9757
:10134000DEBFCDBF1092E9008091E80083FF25C089
:1013500068E0CE0145960E94FE0282EF8093E8008D
:101360008D8987FF39C09091E80090FFFCCF982FBE
:10137000907609F034C19E894F89588D2F89F88C59
:10138000911131C0803861F58091CF018093F100D7
:101390001092F1008EEF8093E8006C960FB6F894EF
:1013A000DEBF0FBECDBFDF91CF91FF91EF91BF9117
:1013B000AF919F918F917F916F915F914F913F91ED
:1013C0002F911F910F91FF90EF90DF90CF900F9092
:1013D0000FBE0F901F9018959EEF9093E800C7CF17
:1013E0001092F100D5CF913059F48111D3CF413013
:1013F000510581F68091CF018D7F8093CF01CACFB7
:10140000933049F48111C6CF4130510519F68091CE
:10141000CF018260F2CF953041F48091E80080FFE7
:10142000FCCF20682093E300B5CF963009F0A9C027
:101430000B8D1C8D22E01092E9001092CB011092CE
:10144000CA01F2122EC01092C9011092C8010E9466
:10145000CD021F8299E09983FA8291E09E8390EAFF
:1014600098879AEF99872091CA013091CB01275F25
:101470003F4F3C832B838D831092E9001092CB0168
:101480001092CA011093C9010093C80149E050E0CD
:10149000BE016F5F7F4F80E00E94A7020E94CD02D5
:1014A00079CF1093C9010093C8010E945D01DC014E
:1014B00012960D911C910115110509F451C1D80125
:1014C000ED91FC910480F581E02DBE016B5E7F4FB4
:1014D000C8010995009709F03EC1F8010085118502
:1014E000EACFF3E0FF120EC08F89882309F440C0D1
:1014F000823061F440E862E183E391E00E9474028B
:10150000811148CF81E28093EB0047CF813029F4ED
:1015100040E862E180E291E0F1CF833099F70E94E8
:101520005D01DC011296ED90FC908E010F5F1F4F64
:101530006801E114F10479F0D701ED91FC91068086
:10154000F781E02DB801C7010995080F111DF701BA
:10155000E084F184EECFD8011C92F60101900020C6
:10156000E9F73197BF016C197D0940E0C601C6CF8C
:101570006AE071E0FB01449150E080E80E94A7021C
:1015800009CF973009F4BECF983021F481E08093E1
:10159000F10000CF993009F0FDCE837009F0B2CF91
:1015A000E1E3F1E081E031E096E32191222371F063
:1015B0008093E9003093EB00DF0111972C91209389
:1015C000EC009093ED008F5F873079F78EE7809382
:1015D000EA001092EA008F898093EC01DBCE8B8DBC
:1015E0009C8D1092E9001092CB011092CA01909349
:1015F000C9018093C801898D811192C08E899D890E
:10160000913A49F4813209F07DCF47E050E064E03F
:1016100071E080E0B3CF913209F074CF833269F486
:101620008F89988DB0E0A0E0809300019093010134
:10163000A0930201B0930301ADCE803269F4809192
:10164000E80082FFFCCF67E084E091E00E94FE02A8
:101650008BEF8093E8009ECE823209F09BCE8F897B
:1016600080930B01EEEFFFE7859194918B3F9C4DAA
:1016700051F1E0E0F8E08091040190910501A09122
:101680000601B0910701803B9440A105B105F1F43A
:1016900080910B0180FD1AC0EE3F8AE0F80789F5C2
:1016A00087E797E791838083809160008093CC01E6
:1016B00088E19BE00FB6F894A895809360000FBE78
:1016C0009093600067CEEEEFFAE0D5CF80819181F4
:1016D0008737974709F05ECEA895809160008861B2
:1016E000809360008091CC0180936000EE3F2AE0FF
:1016F000F20789F08091FE0A9091FF0A918380831E
:1017000049CE808191818737980751F29093FF0AE3
:101710008093FE0AC5CF1092FF0A1092FE0A3ACEBD
:101720000E945D01DC0112960D911C9101151105BD
:1017300009F4E8CED801ED91FC910190F081E02D03
:10174000BE016B5E7F4FC8010995811123CEF80160
:1017500000851185EBCF181619060CF41BCED2CEDE
:10176000F1E0FF12BECE6EE071E004CF1F920F9247
:101770000FB60F9211242F933F934F935F936F9364
:101780007F938F939F93AF93BF93EF93FF938AE3DE
:1017900092E00E948903FF91EF91BF91AF919F91D9
:1017A0008F917F916F915F914F913F912F910F900A
:1017B0000FBE0F901F9018951F920F920FB60F92A9
:1017C00011242F938F939F93EF93FF93E0914A02FD
:1017D000F0914B028081E0915002F091510282FD24
:1017E0001BC09081809153028F5F8F7320915402B0
:1017F000821741F0E0915302F0E0E65CFD4F958FD7
:1018000080935302FF91EF919F918F912F910F90B1
:101810000FBE0F901F9018958081F4CF1F920F92EA
:101820000FB60F9211242F933F934F935F936F93B3
:101830007F938F939F93AF93BF93EF93FF93CF9338
:10184000DF9300D01F92CDB7DEB783B18983898142
:101850009091270389278A8380916B009A8189233D
:101860008B838B8180FF03C0F0E0E0E009958B81E2
:1018700081FF03C0F0E0E0E009958B8182FF03C0A7
:10188000F0E0E0E009958B8183FF03C0F0E0E0E049
:1018900009958B8184FF03C0F0E0E0E009958B811E
:1018A00085FF03C0F0E0E0E009958B8186FF03C06F
:1018B000F0E0E0E009958B8187FF03C0F0E0E0E015
:1018C00009958981809327030F900F900F90DF91E6
:1018D000CF91FF91EF91BF91AF919F918F917F91A8
:1018E0006F915F914F913F912F910F900FBE0F908D
:1018F0001F9018951F920F920FB60F9211242F93DD
:101900003F934F935F936F937F938F939F93AF9387
:10191000BF93EF93FF938091B900887F803609F4DD
:101920004AC0F0F5883209F4A7C018F5803109F4EF
:101930009BC0B8F4882309F4F9C0883009F494C036
:10194000FF91EF91BF91AF919F918F917F916F9197
:101950005F914F913F912F910F900FBE0F901F906D
:101960001895883109F488C0803251F780931202AB
:1019700014C0803409F49DC040F48033B9F3883337
:10198000F9F68093120285ECB0C0803509F485C069
:10199000883509F496C0883499F60E94D007D0CFD4
:1019A000883909F48CC038F5883729F050F4883626
:1019B00011F0803729F683E0809334021092C7013A
:1019C00057C0883809F47BC0803919F0803809F095
:1019D000B7CF8091C701803208F071C0E091C70194
:1019E00081E08E0F8093C7018091BB00F0E0E95544
:1019F000FE4F80833DC0803B39F0E0F4803A09F42B
:101A000079C0883A09F09CCF84E080933402109228
:101A1000A6011092A501E091D201F091D3010995A0
:101A20008091A50181110FC081E08093A5011092E2
:101A3000850109C0803C09F4A6CF883C09F4A3CFF6
:101A4000883B09F07DCFE091A60181E08E0F809365
:101A5000A601F0E0EB57FE4F80818093BB00909190
:101A6000A6018091A50129C080910F028093BB003F
:101A700085EC8093BC0064CF90911102809110029C
:101A8000981758F5E091110281E08E0F80931102B2
:101A9000F0E0E251FE4F8081E9CFE091110281E058
:101AA0008E0F809311028091BB00F0E0E251FE4F57
:101AB000808390911102809110029817C8F285E8F6
:101AC000D8CFE091110281E08E0F809311028091B6
:101AD000BB00F0E0E251FE4F808380911302811140
:101AE0005CCF81E080930E0284EA8093BC00109268
:101AF000340226CF85EC8093BC0010923402809192
:101B0000C701803230F4E091C701F0E0E955FE4FA3
:101B100010826091C70170E0E091D001F091D10195
:101B200087EA91E009951092C7010ACF109212023C
:101B300034CFEAE3F2E01382128288EE93E0A0E071
:101B4000B0E084839583A683B7832BE331E03183B0
:101B500020832DEC30E0358724872CEC30E037876C
:101B6000268728EC30E0318B208B29EC30E0338B5A
:101B7000228B2AEC30E0358B248B2EEC30E0378B37
:101B8000268B118E128E138E148EE7EDF2E01382E7
:101B9000128284839583A683B7832DE431E0318359
:101BA00020832FEF3FEF3587248723B1209327032E
:101BB000E8E2F3E01382128284839583A683B783DD
:101BC0008FE591E09183808380E090EEAEE0B3E416
:101BD0008093480390934903A0934A03B0934B0327
:101BE0008FB7F89440914C0350914D0360914E0390
:101BF00070914F038FBFE1E6F3E0128215821086E9
:101C00008EE0818781E08287838781E791E09183FD
:101C10008083109260030895CF93DF93CDB7DEB732
:101C2000A1970FB6F894DEBF0FBECDBF789484B5F0
:101C3000826084BD84B5816084BD85B5826085BDC8
:101C400085B5816085BD80916E00816080936E0056
:101C50001092810080918100826080938100809148
:101C600081008160809381008091800081608093F9
:101C7000800080919100826080939100809191001A
:101C800081608093910080919000816080939000AA
:101C90008091C10084608093C1008091C100826006
:101CA0008093C1008091C10081608093C1008091C8
:101CB000C30081608093C3008091C00082608093E4
:101CC000C0008091C20081608093C20080917A0040
:101CD000846080937A0080917A00826080937A0099
:101CE00080917A00816080937A0080917A00806888
:101CF00080937A001092EC011092CF011092CE01E5
:101D00008091D70081608093D70080EA8093D800CB
:101D100089B5806189BD89B5826089BD09B400FE3D
:101D2000FDCF61E070E080E090E00E9410028091C1
:101D3000D8008F7C80618093D8008091E000807F04
:101D40008093E0008091E1008E7E8093E1008DE041
:101D50008093E200559A209A0E94040168EE73E095
:101D600080E090E00E9410021092D7011092D601FC
:101D70001092D5011092D4010E94640683E492E08F
:101D80009093D3018093D20184E492E09093D101A7
:101D90008093D00188E48093B8000E9404011E0162
:101DA00081E1280E311C9AE0492E512C612C712CB6
:101DB000CC24C394D12C80E0882E80E0982E809192
:101DC000D8019091D901009761F00197D1F0811469
:101DD0009104A9F30E947503882389F30E940000EF
:101DE000EACF0E94F005882339F0D092D901C09241
:101DF000D8010E943F05EBCF1092D9011092D80173
:101E0000F8CF0E94F0058111F7CF61E070E080E02B
:101E100090E00E9410028BE891E00197F1F741E019
:101E200061E082E10E94A3061092D7018093D6015F
:101E3000813009F04DC088E293E00E948A07F82EB5
:101E4000B12CA12CFF2009F443C083EE93E001974D
:101E5000F1F741E060E182E10E94A3061092D70110
:101E60008093D601803179F48E010F5F1F4F88E295
:101E700093E00E948A07F80181938F012E163F0696
:101E8000B1F7AD80BE8083E791E00E94C307950162
:101E900050E040E019A28E010F5D1F4FCA01B90149
:101EA000A30192010E946D0F605DF80162938F01A2
:101EB000211531054105510589F7309719F0CF01FA
:101EC0000E94C30787E791E00E94C307FA94BACF44
:101ED000D092D901C092D8017ACFA1E21A2EAA1BC2
:101EE000BB1BFD010DC0AA1FBB1FEE1FFF1FA217CA
:101EF000B307E407F50720F0A21BB30BE40BF50BC7
:101F0000661F771F881F991F1A9469F7609570954F
:101F1000809590959B01AC01BD01CF010895EE0F16
:0E1F2000FF1F0590F491E02D0994F894FFCF77
:101F2E00FFFFFFFF00E10000000000004502450238
:101F3E004502450245020000003FCDCCCC3D0000DD
:101F4E00000000000000A0050000803F0000A0403F
:101F5E0000C1808100000000000000AA030B0338BE
:101F6E0003F603690347035B03000000009B04169E
:101F7E0004BC04B1040205C004DE0400000000AF7E
:101F8E0007A407C00742029D078A077B07000000CF
:0A1F9E00006F0569643A000D0A00A7
:00000001FF
