:100000000C9467010C94FA0E0C94D30E0C94AC0E65
:100010000C94850E0C948F010C948F010C945E0E41
:100020000C948F010C941A120C94210F0C94900FC5
:100030000C948F010C948F010C948F010C948F0100
:100040000C948F010C948F010C948F010C948F01F0
:100050000C948F010C948F010C948F010C94140E4E
:100060000C948F010C94E8110C94C2110C948F0124
:100070000C948F010C948F010C948F010C948F01C0
:100080000C948F010C948F010C948F010C948F01B0
:100090000C948F010C948F010C948F010C948F01A0
:1000A0000C948F010C948F010C948F0105A84CCDFA
:1000B000B2D44EB93836A9020C50B9918688083CA2
:1000C000A6AAAA2ABE000000803F00407A10F35A78
:1000D00000A0724E18090010A5D4E80000E8764888
:1000E000170000E40B54020000CA9A3B000000E134
:1000F000F505000080969800000040420F000000C7
:10010000A08601000000102700000000E8030000A6
:1001100000006400000000000A0000000000010070
:10012000000000002C76D888DC674F0823DFC1DF91
:10013000AE59E1B1B796E5E3E453C63AE651997694
:1001400096E8E6C28426EB898C9B62ED407C6FFCCE
:10015000EFBC9C9F40F2BAA56FA5F490055A2AF710
:100160005C936B6CF9676DC11BFCE0E40D47FEF519
:1001700020E6B500D0ED902E030094357705008081
:10018000841E080000204E0A000000C80C333333E0
:10019000330F986E12831141EF8D2114893BE65580
:1001A00016CFFEE6DB18D1844B381BF77C1D901D63
:1001B000A4BBE424203284725E228100C9F124ECC5
:1001C000A1E53D2700000000240027002A002D00A3
:1001D0003000000000002300260029002C002F0022
:1001E000080B0002020200000904000001020200E4
:1001F0000005240010010524010101042402060564
:1002000024060001070581031000400904010002D3
:100210000A000000070502024000000705830240B3
:1002200000000403090412010002EF020140FB1F59
:100230000023000101020301506F6C6F6C752043B5
:100240006F72706F726174696F6E00506F6C6F6C5B
:100250007520412D537461722033325534000000F3
:100260000000250028002B002E00310004040404A7
:10027000040304050202020204030202020206064B
:100280000606060604040202020404040802011021
:1002900040804010204080408008020401804020BF
:1002A00010020110801020404020000000020009D0
:1002B0000F0000030401000C00000000000000001B
:1002C000000000000000000000009E1296121124A1
:1002D0001FBECFEFDAE0DEBFCDBF23E0A2EDB1E07D
:1002E00001C01D92A135B207E1F711E0A0E0B1E035
:1002F000EEE4F9E302C005900D92A23DB107D9F7F3
:1003000011E0C6E6D1E004C02197FE010E94E51885
:10031000C536D107C9F70E9420130C949A1C0C947F
:100320000000FC0180910702882311F13FB7F89487
:1003300082E08093E9002091F200822F90E018166D
:10034000190614F481E090E0882339F0289844E6F7
:10035000409306024091F1004083222339F020911E
:10036000F200211103C02BE62093E8003FBF08955F
:100370008FEF9FEF08952FB7F89483E08093E90003
:100380009091E800892F807295FF04C09091F2004F
:1003900080E4891B2FBF08958091FE0181110DC05B
:1003A00082E08093FA0184E08093FB011092FD01CA
:1003B0001092FC0181E08093FE018AEF91E00895A4
:1003C00081508F3008F047C0E82FF0E0E651FE4F33
:1003D0000C94E51807020B02F901FF0103022B023E
:1003E0002B022B020E02140218021C0222022B0204
:1003F0002602809180008F778093800008958091FD
:1004000080008F7DF9CF80918000877FF5CF84B504
:100410008F7784BD089584B58F7DFBCF8091900048
:100420008F77809390000895809190008F7DF9CF11
:1004300080919000877FF5CF8091C0008F77809367
:10044000C00008958091C0008F7DF9CF8091C200D7
:10045000877F8093C20008953FB7F8948091F6019A
:100460009091F701A091F801B091F90126B5A89BF0
:1004700005C02F3F19F00196A11DB11D3FBFBA2F36
:10048000A92F982F8827BC01CD01620F711D811DF6
:10049000911D42E0660F771F881F991F4A95D1F77B
:1004A00008958F929F92AF92BF92CF92DF92EF9278
:1004B000FF924B015C010E942C026B017C010E94A7
:1004C0002C026C197D098E099F09683E73408105D5
:1004D0009105A8F321E0821A9108A108B10888EEDD
:1004E000C80E83E0D81EE11CF11C81149104A10404
:1004F000B10429F7FF90EF90DF90CF90BF90AF90BD
:100500009F908F9008952FB7F8946091F2017091A9
:10051000F3018091F4019091F5012FBF08950895A2
:100520004091EB015091EC012091E9013091EA01F9
:1005300042175307B4F49091E8009570E1F390915D
:10054000E80092FD19C08093F1008091EB01909139
:10055000EC0101968F739927892B19F48EEF809304
:10056000E8008091EB019091EC0101969093EC01F1
:100570008093EB0181E0089580E00895EF92FF926F
:100580000F931F93CF93DF93F82E192FE62E042F8E
:1005900081E0860F880F0E94900283E00E94900203
:1005A000CF2DD12FEC0EFD2EF11CCE15DF05B9F0AD
:1005B00007FF13C0FE0184910E949002182F80E073
:1005C0000E949002812321968111EFCFDF91CF917C
:1005D0001F910F91FF90EF9008958881EDCF81E0FA
:1005E000F5CFDF92EF92FF920F931F93CF93DF939C
:1005F000D82E8A01EB017B01E40EF51ECE15DF0536
:1006000059F0D7FE12C0FE0184910E9490022196FB
:100610008111F4CF0FEF1FEFC801DF91CF911F9130
:100620000F91FF90EF90DF9008958881EECF0F93A8
:100630001F93CF93DF931F92CDB7DEB782E08983FC
:1006400042E450E060EE71E080E80E94F1020E9416
:10065000CC01DC0112960D911C910115110589F058
:10066000D801ED91FC910280F381E02DBE016F5F16
:100670007F4FC801099597FD04C0F80100851185D9
:10068000ECCF89810F90DF91CF911F910F91089549
:10069000615030F02091F100FC0120830196F8CFE9
:1006A000289884E6809306020895AF92BF92CF9275
:1006B000DF92EF92FF920F931F93CF93DF936C0122
:1006C0007B018B01040F151FEB015E01AE18BF0803
:1006D000C017D10759F06991D601ED91FC910190B5
:1006E000F081E02DC6010995892B79F7C501DF91CD
:1006F000CF911F910F91FF90EF90DF90CF90BF901F
:10070000AF900895FC01538D448D252F30E0842F48
:1007100090E0821B930B541710F0CF960895019729
:100720000895FC01918D828D981761F0A28DAE0F16
:10073000BF2FB11D5D968C91928D9F5F9F73928F9D
:1007400090E008958FEF9FEF0895FC01918D828DC9
:10075000981731F0828DE80FF11D858D90E0089596
:100760008FEF9FEF0895FC01918D228D892F90E0EE
:10077000805C9F4F821B91098F739927089589E1AF
:1007800092E00E94B30321E0892B09F420E0822F3C
:10079000089580E090E0892B29F00E94BF03811129
:1007A0000C9400000895FC01A48DA80FB92FB11D71
:1007B000A35ABF4F2C91848D90E001968F73992797
:1007C000848FA689B7892C93A089B1898C91827472
:1007D0008C93938D848D981306C00288F389E02D45
:1007E00080818F7D80830895EF92FF920F931F93F6
:1007F000CF93DF93EC0181E0888F9B8D8C8D9813D4
:1008000019C0E889F989808185FF14C09FB7F894E1
:10081000EE89FF896083E889F98980818274808309
:100820009FBF81E090E0DF91CF911F910F91FF90EA
:10083000EF900895F62E0B8D10E00F5F1F4F0F7392
:100840001127E02E8C8D8E110CC00FB607FCFACF4D
:10085000E889F989808185FFF5CFCE010E94D30315
:10086000F1CFEB8DEC0FFD2FF11DE35AFF4FF0821E
:100870009FB7F8940B8FEA89FB8980818062CFCF84
:10088000CF93DF93EC01888D8823B9F0AA89BB89C7
:10089000E889F9898C9185FD03C0808186FD0DC0B2
:1008A0000FB607FCF7CF8C9185FFF2CF808185FFD3
:1008B000EDCFCE010E94D303E9CFDF91CF91089510
:1008C0008F929F92AF92BF92CF92DF92EF92FF9260
:1008D0000F931F93CF93DF936C017B018A0180916B
:1008E0000B01882309F45CC080910702882309F476
:1008F00057C08091EF0180FF05C08091E0008260C9
:100900008093E000E801B12C8AEFA82E93E0892EB5
:100910002AE3922E209711F4BB20D9F10E94BB014B
:1009200081110AC0AA94AA20D9F161E070E080E0A8
:1009300090E00E945102EECF8C171D0611F00CF0D2
:100940008C2F9FB7F8948092E9002091E80025FD54
:1009500002C09FBFDFCF282F30E0C21BD30BF701AF
:10096000815020F041914093F100FACFE20EF31E46
:10097000BB2021F09092E800B12CEBCF8091E800F1
:1009800085FDE7CF9092E800BB24B394209709F34C
:10099000F3CF5D9884E68093EE01101611063CF0CB
:1009A00081E090E0F6019383828310E000E0C801CB
:1009B000DF91CF911F910F91FF90EF90DF90CF903B
:1009C000BF90AF909F908F900895CF93DF931F9229
:1009D000CDB7DEB76983DC01ED91FC910280F38134
:1009E000E02D41E050E0BE016F5F7F4F09950F9011
:1009F000DF91CF91089583E08093E9008091F20028
:100A0000882319F08AE38093E80008950E94BB01CF
:100A100090E00895CF93DF931F92CDB7DEB7FC012E
:100A20008485958597FD08C02FEF3FEF3587248794
:100A30000F90DF91CF910895CE0101960E94910110
:100A4000019719F4898190E0F3CF8FEF9FEFF0CFFA
:100A50000F931F93CF93DF931F92CDB7DEB78C0117
:100A6000FC018485958597FF0BC0CE0101960E94FD
:100A70009101019771F4898190E0F801958784874D
:100A8000F801848595850F90DF91CF911F910F918B
:100A900008958FEF9FEFF1CFFC018485958597FD39
:100AA0000BC09FB7F89482E08093E9008091F20038
:100AB0009FBF90E0019608959FB7F89482E08093DD
:100AC000E9008091F2009FBF90E008952E98269A49
:100AD0002D98259A2A98229A2998219A2F98279A10
:100AE0008AEA8093800089E18093810084EA91E022
:100AF000909387008093860010928900109288005E
:100B000010928B0010928A0010928D0010928C002F
:100B10000895CF93DF93EC018091D801811105C036
:100B200081E08093D8010E94660580E0D7FF04C071
:100B3000D195C195D10981E0CD3291E0D90714F06A
:100B4000CCE2D1E0D0938900C0938800882329F0BB
:100B5000299A219ADF91CF9108952998FACFCF93BE
:100B6000DF93EC018091D801811105C081E0809371
:100B7000D8010E94660580E0D7FF04C0D195C195D9
:100B8000D10981E0CD3291E0D90714F0CCE2D1E077
:100B9000D0938B00C0938A00882329F02A9A229A46
:100BA000DF91CF9108952A98FACFE4E2F1E0108620
:100BB000118612861386148615861686178690E08F
:100BC00080E00E94AF0590E080E00E9489050E94CD
:100BD0008302E7E0F3E06487758786879787108252
:100BE0001182128213821482158216821782108655
:100BF00011861286138608958CB1282F30E0359522
:100C0000279535952795422F417083B190E054E0A8
:100C1000959587955A95E1F7822781702091D601A5
:100C20009091D70160910B0270910C0224279827B4
:100C3000291B330B260F371F30930C0220930B0216
:100C40002091D6019091D701281729F0941719F017
:100C500091E09093D5018093D6014093D7010895F8
:100C60009FB191708CB186FB882780F989272091EC
:100C7000D3013091D40140910802509109022927F3
:100C80003827231B330B240F351F30930902209381
:100C900008023091D3012091D401381729F0291787
:100CA00019F021E02093D2018093D3019093D401D5
:100CB000089524982C9A6A98729A6E98769A8098D9
:100CC000889AF89491E090936800EBE6F0E08081D8
:100CD000806180832CEF35E03093E2012093E101C5
:100CE0009BBB809106038F7E8093060383B1909116
:100CF00006038071892B80930603789480E396E045
:100D00009093150180931401EAE6F0E080818F7CD6
:100D100080618083EE9A8CB182FB882780F9809372
:100D2000D70193B18091D7019295917089278093D3
:100D3000D60110920C0210920B021092D5018FB1C5
:100D400081708093D4019CB18091D40196FB992746
:100D500090F989278093D30110920902109208021A
:100D60001092D20108950F931F93CF93DF93EC015C
:100D7000888581112FC0898590E0FC01E557FD4FE2
:100D800084599D4F21E028872A85222309F44CC0ED
:100D90002491FC0184918823C9F090E0880F991F69
:100DA000FC01EC53FE4F45915491FC01E25AFD4F7A
:100DB000A591B4919FB7F894FA013081822F809564
:100DC00083238083EC91E22BEC939FBF8FE090E034
:100DD0000197F1F7298530E0F901E655FD4F84913F
:100DE000F901E557FD4F0491F901E459FD4F1491C4
:100DF000112309F437C081110E94E001E12FF0E0D6
:100E0000EE0FFF1FEE52FE4FA591B491EC910E2311
:100E100031E009F430E0832F2B8582278170DF9148
:100E2000CF911F910F9108952491FC018491882303
:100E300009F4CCCF90E0880F991FFC01EC53FE4FD2
:100E400045915491FC01E25AFD4FA591B4919FB791
:100E5000F894FA0180812095822380838C91E22F7F
:100E6000E823B2CF80E0D8CFCF93DF938FE193E038
:100E70000E94B306D1E0C82FCD270E9483022091A3
:100E80002403213099F030F0223011F1233041F168
:100E9000C0E008C0C111FCCF709326036093250306
:100EA000D09324038C2FDF91CF910895CC2319F098
:100EB00010922403EDCF2091250330912603621B6D
:100EC000730B6F30710570F382E080932403E0CFE1
:100ED000CC2341F3709326036093250383E0F5CF81
:100EE000CC2391F32091250330912603621B730BD1
:100EF0006F30710568F210922403D4CFFC01448155
:100F0000558180914B0390914C038417950780F095
:100F10008091470390914803009751F0608171815F
:100F20006115710529F00E948C1C21E0892B09F0C4
:100F300020E0822F0895CF93DF93EC01888199817F
:100F4000009711F00E94361B198218821D821C82A4
:100F50001B821A82DF91CF910895FC0180819181DB
:100F6000009711F00C94361B0895FB0101900020AE
:100F7000E9F73197AF01461B570BDC01ED91FC916E
:100F80000280F381E02D0994CF93DF938FEF9FEFE1
:100F90009093C3028093C20264E670E080E090E028
:100FA0000E94510261E771E086EB92E00E94B50772
:100FB0006DE671E086EB92E00E94B507E0912902B0
:100FC000F0912A0282E08083E0912502F0912602CE
:100FD0001082E0912702F091280280E18083109234
:100FE0003102E0912D02F0912E0286E08083E091A3
:100FF0002B02F0912C02808180618083E0912B0292
:10100000F0912C02808188608083E0912B02F09126
:101010002C02808180688083E0912B02F0912C0269
:1010200080818F7D8083EAEAF2E08491EBE8F2E050
:10103000D491ECE6F2E0C491CC2389F081110E94B6
:10104000E001EC2FF0E0EE0FFF1FE25AFD4FA591FB
:10105000B4918FB7F894EC91ED2BEC938FBF60E7D0
:1010600071E086EB92E00E94B5076DE671E086EBD9
:1010700092E0DF91CF910C94B5070F931F93CF931C
:10108000DF93EC0188819981009759F02A813B8197
:101090002617370730F081E0DF91CF911F910F9134
:1010A00008958B016F5F7F4F0E94BF1B009759F01F
:1010B000998388831B830A832C813D81232B59F7D5
:1010C000FC011082E8CF80E0E7CFEF92FF920F9310
:1010D0001F93CF93DF93EC01FB01E080F180E114DB
:1010E000F10411F10481158101151105A9F08C811C
:1010F0009D81080F191FB801CE010E943D08882369
:1011000099F0288139818C819D81B701820F931FCD
:101110000E94851C1D830C83CE01DF91CF911F910E
:101120000F91FF90EF900895CE010E949B07F4CF9E
:10113000EF92FF920F931F93CF93DF93EC017B010C
:101140008A01BA010E943D0881110BC0CE010E94A4
:101150009B07CE01DF91CF911F910F91FF90EF90F0
:1011600008951D830C83B701888199810E94851C95
:10117000F0CFFB0101900020E9F73197AF01461B4A
:10118000570B0C949808EF92FF920F931F93CF93F5
:10119000DF93CDB7DEB72C970FB6F894DEBF0FBE46
:1011A000CDBF8C017B011A8219821C821B821E8298
:1011B0001D828AE38F831886BE01695F7F4FCE014F
:1011C00001960E94B90818861F821A8619861C8605
:1011D0001B86F801608171816115710531F04481D0
:1011E0005581CE0107960E949808BE016F5F7F4F20
:1011F000CE0107960E946508B7010E946508FC01B0
:10120000448155816081718189E192E00E9455039A
:101210006DE671E089E192E00E94B507CE01079684
:101220000E94AD07CE0101960E94AD072C960FB625
:10123000F894DEBF0FBECDBFDF91CF911F910F910C
:10124000FF90EF900895EF92FF920F931F93CF932B
:10125000DF93CDB7DEB7A1970FB6F894DEBF0FBE10
:10126000CDBF7C01CB01BA01F7011182108213823C
:101270001282158214828E010F5F1F4F22E044E01C
:101280000E94F914009789F0BC01C7010E94B908B7
:10129000A1960FB6F894DEBF0FBECDBFDF91CF9100
:1012A0001F910F91FF90EF900895C7010E949B0737
:1012B000EFCFFC01118210821382128215821482F8
:1012C000FB0101900020E9F73197AF01461B570B56
:1012D0000C949808CF92DF92EF92FF920F931F9396
:1012E000CF93DF937C018B0185E0C82ED12C653034
:1012F000710518F46B0105E010E06FE671E0C701BD
:101300000E945909C0914B03D0914C03CC16DD06C5
:10131000F8F40C171D0708F4E801E0914703F09179
:101320004803EC0FFD1F10811082609147037091FC
:1013300048036C0D7D1DC7016115710599F00E9470
:10134000B9088091470390914803C80FD91F1883AB
:10135000C701DF91CF911F910F91FF90EF90DF9028
:10136000CF9008950E949B07ECCFCF92DF92EF922F
:10137000FF921F93CF93DF9300D000D000D0CDB762
:10138000DEB789E192E00E94B303892B09F4A5C07E
:1013900089E192E00E949103182F89831A82E090DC
:1013A0004B03F0904C038FEFE81AF80AB70187E47B
:1013B00093E00E943D08882399F0209147033091E3
:1013C000480380914B0390914C03BE016F5F7F4FA8
:1013D000820F931F0E94851CF0924C03E0924B03F6
:1013E0001A3079F666EA71E0CE0101960E94590939
:1013F000CE0101960E947E07182FCE0101960E9411
:10140000AD07111138C066E871E0CE0101960E9467
:101410005909CE0101960E947E07182FCE01019630
:101420000E94AD07112309F452C066E971E089E119
:1014300092E00E94B50760914B0370914C03CE017E
:1014400001960E946A0989819A81C12CD12C76016A
:10145000009721F00E9417156B017C01CE010196C7
:101460000E94AD07CD28CE28CF2809F44EC081E0D8
:10147000809338032CC069E771E089E192E00E9413
:10148000B50760914B0370914C03CE0101960E9409
:101490006A0989819A81C12CD12C7601009719F0B3
:1014A0000E9417156B01CE0101960E94AD0781E0E5
:1014B000C816D10401F182E0C816D10419F18FEFEA
:1014C0009FEFCD28D1F410923403109233036FE6CE
:1014D00071E087E493E00E94B90826960FB6F8946D
:1014E000DEBF0FBECDBFDF91CF911F91FF90EF9078
:1014F000DF90CF90089581E090E090933403809343
:101500003303E5CF82E090E0F8CF10923803DFCFCD
:101510004F925F926F927F928F929F92AF92BF9203
:10152000CF92DF92EF92FF920F931F93CF93DF93AF
:10153000CDB7DEB7AC970FB6F894DEBF0FBECDBF08
:101540006D877E878F87988B2D8F3E8F4F8F58A307
:101550000E9483024B015C0180911502909116025A
:10156000A0911702B0911802B501A401481B590BB4
:101570006A0B7B0B8091220190912301092E000CB4
:10158000AA0BBB0B481759076A077B0708F448C228
:101590008091130290911402909312028093110291
:1015A00080910F029091100290930E0280930D0291
:1015B00080910A02811105C081E080930A020E9495
:1015C0005906F89480910B0290910C0278949093B4
:1015D00014028093130280910A02811105C081E0F8
:1015E00080930A020E945906F89400910802109113
:1015F000090278941093100200930F020E94830254
:101600008092150290921602A0921702B0921802D0
:101610002091160130911701409118015091190144
:1016200060911E0170911F01809120019091210114
:101630000E945D196B017C01609122017091230170
:10164000072E000C880B990B0E94911720E030E0C8
:101650004AE754E40E945D194B015C01609113025A
:10166000709114028091110290911202681B790B03
:10167000072E000C880B990B0E949117A701960169
:101680000E94F017A50194010E945D199B01AC0115
:101690006D857E858F8598890E94EB182B013C0112
:1016A00080910D0290910E02B801681B790B072EF4
:1016B000000C880B990B0E949117A70196010E94BC
:1016C000F017A50194010E945D199B01AC016D8D7D
:1016D0007E8D8F8D98A10E94EB186B017C0120916B
:1016E0002C0130912D0140912E0150912F01C30109
:1016F000B2010E94EC184B015C0180922C01909287
:101700002D01A0922E01B0922F0120913001309135
:1017100031014091320150913301C701B6010E945D
:10172000EC18698F7A8F8B8F9C8F60933001709348
:101730003101809332019093330120912401309143
:1017400025014091260150912701298B3A8B4B8B23
:101750005C8B8091280190912901A0912A01B09180
:101760002B018D8B9E8BAF8BB88FC301B2010E9472
:10177000F0172B013C012D893E894F89588DC501F9
:10178000B4010E94F0179B01AC01C301B2010E9499
:10179000EC180E94CF19CB010E94AF0529893A8924
:1017A0004B895C89C701B6010E94F0176B017C016F
:1017B0002D893E894F89588D698D7A8D8B8D9C8DB1
:1017C0000E94F0179B01AC01C701B6010E94EC1802
:1017D0000E94CF19CB010E9489050E948302698B68
:1017E0007A8B8B8B9C8B6093170370931803809379
:1017F000190390931A038091130390911403A091FD
:101800001503B091160329893A894B895C89281BF5
:10181000390B4A0B5B0BCA01B901623371058105B3
:10182000910508F4FDC00E948F1720E030E04AE7E0
:1018300054E40E945D192B013C012D8D3E8D4F8D8E
:1018400058A16D857E858F8598890E94EC186B0163
:101850007C018091070390910803A0910903B09146
:101860000A0389A39AA3ABA3BCA380900F03909013
:101870001003A0901103B0901203C501B4010E949F
:10188000491A6D8B7E8B8F8B988F20910B03309133
:101890000C0340910D0350910E032DA33EA34FA3C3
:1018A00058A7C501B4010E94581969A77AA78BA748
:1018B0009CA72D8D3E8D4F8D58A16D857E858F8582
:1018C00098890E948A178111C2C020E030E040E070
:1018D0005FE3C701B6010E94F0176B017C0129A5E7
:1018E0003AA54BA55CA50E94F017A30192010E94A6
:1018F000F01729A13AA14BA15CA10E94EC186093BA
:101900000703709308038093090390930A03A701C8
:1019100096016D897E898F89988D0E94F017A301A9
:1019200092010E94F0172DA13EA14FA158A50E943F
:10193000EC1860930B0370930C0380930D0390934A
:101940000E0389899A89AB89BC898093130390938C
:101950001403A0931503B09316034091070350910D
:1019600008036091090370910A03CE0107960E9453
:1019700023096CEA71E0CE0101960E945909BE016B
:10198000695F7F4FCE0101960E94C308CE01019688
:101990000E94AD07CE0107960E94AD0740910B0350
:1019A00050910C0360910D0370910E03CE010796C8
:1019B0000E94230967EB71E0CE0101960E9459094C
:1019C000BE01695F7F4FCE0101960E94C308CE0120
:1019D00001960E94AD07CE0107960E94AD07409187
:1019E0000F03509110036091110370911203CE0107
:1019F00007960E94230962EC71E0CE0101960E94D5
:101A00005909BE01695F7F4FCE0101960E94C3084C
:101A1000CE0101960E94AD07CE0107960E94AD0748
:101A2000AC960FB6F894DEBF0FBECDBFDF91CF915D
:101A30001F910F91FF90EF90DF90CF90BF90AF90EC
:101A40009F908F907F906F905F904F9008958091BE
:101A50001B0390911C03A0911D03B0911E03898F5D
:101A60009A8FAB8FBC8F2D853E854F8558896D8DA4
:101A70007E8D8F8D98A10E94EB186D877E878F8752
:101A8000988B20E030E040E05FE3698D7A8D8B8DAC
:101A90009C8D0E94F017A70196010E94F0172D85DA
:101AA0003E854F8558890E945D196B017C01298D07
:101AB0003A8D4B8D5C8D6D857E858F8598890E94D2
:101AC0005D19A30192010E94F017A50194010E94E3
:101AD000EC186D877E878F87988B0E94491A2B019F
:101AE0003C01A70196016D897E898F89988D0E949E
:101AF000F0179B01AC0169A17AA18BA19CA10E9466
:101B0000EB184B015C01A3019201C701B6010E94D1
:101B1000F0179B01AC01C501B4010E94EC18609361
:101B20000703709308038093090390930A036D855C
:101B30007E858F8598890E9458192B013C0129A523
:101B40003AA54BA55CA5C701B6010E94F0172DA1CF
:101B50003EA14FA158A50E94EC184B015C01A301C6
:101B60009201C701B6010E94F0179B01AC01C501AB
:101B7000B4010E94EB1860930B0370930C038093E5
:101B80000D0390930E032D853E854F855889209334
:101B90000F03309310034093110350931203D1CEDF
:101BA000CF92DF92EF92FF9210922C0110922D01B2
:101BB00010922E0110922F011092300110923101DB
:101BC000109232011092330190E080E00E94AF0544
:101BD00090E080E00E9489050E9483026B017C01F5
:101BE0000E9483026C197D098E099F09693E73402A
:101BF0008105910558F420E030E048E452EC60E0C3
:101C000070E088E492E40E94880AEACF90E080E0E5
:101C10000E94AF0590E080E00E94890581E0FF907E
:101C2000EF90DF90CF9008951F920F920FB60F9212
:101C300011242F933F938F939F93AF93BF938091E2
:101C4000F2019091F301A091F401B091F50130916E
:101C5000F10123E0230F2D3758F50196A11DB11D89
:101C60002093F1018093F2019093F301A093F4018A
:101C7000B093F5018091F6019091F701A091F801E0
:101C8000B091F9010196A11DB11D8093F6019093C9
:101C9000F701A093F801B093F901BF91AF919F9123
:101CA0008F913F912F910F900FBE0F901F9018951D
:101CB00026E8230F0296A11DB11DD2CF1F920F92CD
:101CC0000FB60F9211242F933F934F935F936F930F
:101CD0007F938F939F93AF93BF93EF93FF93E09185
:101CE0001401F09115010995FF91EF91BF91AF910A
:101CF0009F918F917F916F915F914F913F912F9124
:101D00000F900FBE0F901F9018951F920F920FB655
:101D10000F9211242F933F934F935F936F937F9371
:101D20008F939F93AF93BF93EF93FF93E091120133
:101D3000F09113010995FF91EF91BF91AF919F91A0
:101D40008F917F916F915F914F913F912F910F9064
:101D50000FBE0F901F9018951F920F920FB60F9203
:101D600011242F933F934F935F936F937F938F93A0
:101D70009F93AF93BF93EF93FF93E0911001F09186
:101D800011010995FF91EF91BF91AF919F918F91B3
:101D90007F916F915F914F913F912F910F900FBE67
:101DA0000F901F9018951F920F920FB60F9211244B
:101DB0002F933F934F935F936F937F938F939F9353
:101DC000AF93BF93EF93FF93E0910E01F0910F015A
:101DD0000995FF91EF91BF91AF919F918F917F9165
:101DE0006F915F914F913F912F910F900FBE0F9088
:101DF0001F9018951F920F920FB60F9211242F93D8
:101E00003F934F935F936F937F938F939F93AF9382
:101E1000BF93EF93FF93E0910C01F0910D010995B1
:101E2000FF91EF91BF91AF919F918F917F916F91B2
:101E30005F914F913F912F910F900FBE0F901F9088
:101E400018951F920F920FB60F9211248F939F93A4
:101E50008091E1009091E100937F9093E10083FFF6
:101E60000FC01092E90091E09093EB001092EC000B
:101E700092E39093ED001092070298E09093F000A7
:101E800082FF22C093E09093E9009091F2009923A1
:101E900019F09AE39093E8009091EE01992341F0B4
:101EA0009091EE0191509093EE01911101C05D9AD5
:101EB00090910602992341F09091060291509093DF
:101EC0000602911101C0289A84FF18C08091E20097
:101ED0008E7E81608093E2008091E1008F7E80930E
:101EE000E1008091EF018E7E80618093EF019F91F0
:101EF0008F910F900FBE0F901F90189580FFF7CF16
:101F00008091E2008E7E80618093E2008091E1000A
:101F10008E7E8093E1008091EF018E7E8160E5CF1F
:101F20001F920F920FB60F921124CF92DF92EF9271
:101F3000FF920F931F932F933F934F935F936F9352
:101F40007F938F939F93AF93BF93EF93FF93CF9321
:101F5000DF93CDB7DEB76C97DEBFCDBF1092E9003F
:101F60008091E80083FF25C068E0CE0145960E947D
:101F7000480382EF8093E8008D8987FF39C09091F4
:101F8000E80090FFFCCF982F907609F034C19E892D
:101F90004F89588D2F89F88C911131C0803861F5A7
:101FA0008091F0018093F1001092F1008EEF809308
:101FB000E8006C960FB6F894DEBF0FBECDBFDF9180
:101FC000CF91FF91EF91BF91AF919F918F917F91B1
:101FD0006F915F914F913F912F911F910F91FF90C2
:101FE000EF90DF90CF900F900FBE0F901F9018953D
:101FF0009EEF9093E800C7CF1092F100D5CF9130BB
:1020000059F48111D3CF4130510581F68091F0010F
:102010008D7F8093F001CACF933049F48111C6CFF0
:102020004130510519F68091F0018260F2CF953070
:1020300041F48091E80080FFFCCF20682093E3000A
:10204000B5CF963009F0A9C00B8D1C8D22E01092FF
:10205000E9001092EC011092EB01F2122EC01092E6
:10206000EA011092E9010E9417031F8299E0998307
:10207000FA8291E09E8390EA98879AEF998720915F
:10208000EB013091EC01275F3F4F3C832B838D8325
:102090001092E9001092EC011092EB011093EA010A
:1020A0000093E90149E050E0BE016F5F7F4F80E09F
:1020B0000E94F1020E94170379CF1093EA01009366
:1020C000E9010E94CC01DC0112960D911C910115D1
:1020D000110509F451C1D801ED91FC910480F581FD
:1020E000E02DBE016B5E7F4FC8010995009709F096
:1020F0003EC1F80100851185EACFF3E0FF120EC062
:102100008F89882309F440C0823061F440E862E19D
:102110008BE492E00E94BE02811148CF81E280935D
:10212000EB0047CF813029F440E862E188E392E098
:10213000F1CF833099F70E94CC01DC011296ED902B
:10214000FC908E010F5F1F4F6801E114F10479F0DC
:10215000D701ED91FC910680F781E02DB801C70110
:102160000995080F111DF701E084F184EECFD80125
:102170001C92F60101900020E9F73197BF016C191C
:102180007D0940E0C601C6CF62E272E0FB014491E6
:1021900050E080E80E94F10209CF973009F4BECFE9
:1021A000983021F481E08093F10000CF993009F05C
:1021B000FDCE837009F0B2CFEDE3F1E081E031E0D4
:1021C00096E32191222371F08093E9003093EB0094
:1021D000DF0111972C912093EC009093ED008F5F1D
:1021E000873079F78EE78093EA001092EA008F89B2
:1021F00080930702DBCE8B8D9C8D1092E9001092AC
:10220000EC011092EB019093EA018093E901898D32
:10221000811192C08E899D89913A49F4813209F0E9
:102220007DCF47E050E064E071E080E0B3CF9132D1
:1022300009F074CF833269F48F89988DB0E0A0E003
:102240008093000190930101A0930201B0930301D8
:10225000ADCE803269F48091E80082FFFCCF67E068
:1022600084E091E00E9448038BEF8093E8009ECECB
:10227000823209F09BCE8F8980930B01EEEFFFE74E
:10228000859194918B3F9C4D51F1E0E0F8E0809175
:10229000040190910501A0910601B0910701803BD6
:1022A0009440A105B105F1F480910B0180FD1AC0A5
:1022B000EE3F8AE0F80789F587E797E79183808307
:1022C000809160008093ED0188E19BE00FB6F89467
:1022D000A895809360000FBE9093600067CEEEEFEC
:1022E000FAE0D5CF808191818737974709F05ECE9C
:1022F000A895809160008861809360008091ED01D5
:1023000080936000EE3F2AE0F20789F08091FE0A98
:102310009091FF0A9183808349CE80819181873794
:10232000980751F29093FF0A8093FE0AC5CF10924E
:10233000FF0A1092FE0A3ACE0E94CC01DC011296EE
:102340000D911C910115110509F4E8CED801ED910C
:10235000FC910190F081E02DBE016B5E7F4FC801C2
:102360000995811123CEF80100851185EBCF181650
:1023700019060CF41BCED2CEF1E0FF12BECE66E2FF
:1023800072E004CF1F920F920FB60F9211242F9379
:102390003F934F935F936F937F938F939F93AF93ED
:1023A000BF93EF93FF9389E192E00E94D303FF91E3
:1023B000EF91BF91AF919F918F917F916F915F91BD
:1023C0004F913F912F910F900FBE0F901F90189536
:1023D0001F920F920FB60F9211242F938F939F93FA
:1023E000EF93FF93E0912902F0912A028081E0911E
:1023F0002F02F091300282FD1BC090818091320249
:102400008F5F8F7320913302821741F0E091320287
:10241000F0E0E75EFD4F958F80933202FF91EF91E0
:102420009F918F912F910F900FBE0F901F90189535
:102430008081F4CF1F920F920FB60F9211242F9329
:102440003F934F935F936F937F938F939F93AF933C
:10245000BF93EF93FF93CF93DF9300D01F92CDB73D
:10246000DEB783B1898389819091060389278A83A6
:1024700080916B009A8189238B838B8180FF05C0BB
:10248000E091D901F091DA0109958B8181FF05C0B6
:10249000E091DB01F091DC0109958B8182FF05C0A1
:1024A000E091DD01F091DE0109958B8183FF05C08C
:1024B000E091DF01F091E00109958B8184FF05C077
:1024C000E091E101F091E20109958B8185FF05C062
:1024D000E091E301F091E40109958B8186FF05C04D
:1024E000E091E501F091E60109958B8187FF05C038
:1024F000E091E701F091E801099589818093060355
:102500000F900F900F90DF91CF91FF91EF91BF91BE
:10251000AF919F918F917F916F915F914F913F917B
:102520002F910F900FBE0F901F9018958BE293E0A4
:102530000E94AD0787E493E00C94AD07E9E1F2E077
:102540001382128288EE93E0A0E0B0E0848395834A
:10255000A683B78327E431E0318320832DEC30E07C
:10256000358724872CEC30E03787268728EC30E04D
:10257000318B208B29EC30E0338B228B2AEC30E03E
:10258000358B248B2EEC30E0378B268B118E128E00
:10259000138E148EE6EBF2E013821282848395830D
:1025A000A683B78389E591E0918380838FEF9FEFC6
:1025B0009587848723B120930603E1E3F3E011823A
:1025C000108293838283158214821682178210866A
:1025D0001186128613861486158616861786108A2B
:1025E000118A128A138A85E090E0958B848B6FE6BE
:1025F00071E087E493E00E94590980E090EEAEE03C
:10260000B3E480931B0390931C03A0931D03B0932A
:102610001E036FE671E08BE293E00E9459090E946D
:102620008302EFE1F3E01282158210868EE081874B
:1026300081E0828783878BE691E091838083089590
:10264000789484B5826084BD84B5816084BD85B58D
:10265000826085BD85B5816085BD80916E00816099
:1026600080936E001092810080918100826080933F
:102670008100809181008160809381008091800041
:1026800081608093800080919100826080939100AE
:102690008091910081608093910080919000816091
:1026A000809390008091C10084608093C1008091EC
:1026B000C10082608093C1008091C10081608093DD
:1026C000C1008091C30081608093C3008091C000ED
:1026D00082608093C0008091C20081608093C200BC
:1026E00080917A00846080937A0080917A00826081
:1026F00080937A0080917A00816080937A00809143
:102700007A00806880937A00109207021092F0019C
:102710001092EF018091D70081608093D70080EA0A
:102720008093D80089B5806189BD89B5826089BDF3
:1027300009B400FEFDCF61E070E080E090E00E940F
:1027400051028091D8008F7C80618093D800809165
:10275000E000807F8093E0008091E1008E7E809396
:10276000E1008DE08093E200559A209A0E94830256
:1027700060931303709314038093150390931603CF
:1027800010920703109208031092090310920A0393
:1027900010920B0310920C0310920D0310920E0373
:1027A00010920F0310921003109211031092120353
:1027B0000E94C4070E94C40780E0282E80E0382EC3
:1027C00088248A94982C01E010E0C5E0D0E024E051
:1027D000E22EF12C33E0C32ED12C42E0A42EB12CFA
:1027E000E0913103F0913203E730F10508F5E5504F
:1027F000FC4E0C94E5180214251471149114C214A3
:10280000DA14E7140E9434078823E1F010933203AE
:10281000009331030E94B5098091330390913403F2
:10282000019621F410923203109231030E94D505D3
:1028300021143104A9F20E94BF03882389F20E9467
:102840000000CECF0E94B509EDCF10924103109247
:1028500042031092430310924403D0934603C09363
:1028600045030E9434078111DDCF40904103509011
:102870004203609043037090440320E030E040E264
:1028800051E4C301B2010E948A1787FF0DC08091F5
:10289000450390914603039729F2B0923203A09228
:1028A00031030E94D00DC2CF20E030E044E352E477
:1028B000C301B2010E948A1787FF0AC020E030E0FE
:1028C0004CE552E4C301B2010E94441A18162CF3DD
:1028D00020E030E048EC52E4CA01B9010E94880AC5
:1028E000A7CF1092390310923A0310923B03109233
:1028F0003C03D0934603C0934503809133039091EA
:102900003403059729F4F0923203E09231038ECF1D
:102910000E94D00D0E94D505D0923203C09231039F
:1029200087CF10923D0310923E0310923F03109206
:102930004003D0934603C0934503809133039091A5
:102940003403059701F320E030E0A90160913903D9
:1029500070913A0380913B0390913C030E94441A8A
:1029600018164CF40E94D00D0E94D5051093320326
:10297000009331035BCF10923203109231030E9417
:10298000D50554CF20E030E048E453E4CA01B90152
:102990000E94880AD0933203C09331030E94D50568
:1029A000809135039091360301969093360380937E
:1029B00035033ECF1092410310924203109243031D
:1029C0001092440320E030E048EC52EC85CF0E94A6
:1029D000B50980913803882309F42ACF90923403F3
:1029E000809233030E94D505109332030093310384
:1029F0001FCFEF920F931F93CF93DF93E80134E043
:102A000047FD34E1042E000C550B57FF03C05195D0
:102A100041955109E32E022F242FAE010E94531538
:102A2000CE01DF91CF911F910F91EF9008951F93E9
:102A3000FC0199278827BC01E89411911032E9F331
:102A4000193010F01E30C8F31B3251F01D3249F41A
:102A5000689406C00E943E15610F711D811D911D75
:102A6000119110531A30B0F33EF490958095709503
:102A700061957F4F8F4F9F4F1F910895592F482F7A
:102A8000372F262F660F771F881F991F660F771F16
:102A9000881F991F620F731F841F951F660F771F72
:102AA000881F991F0895A9E0B0E0E9E5F5E10C94CD
:102AB000B4186A01F22EB02E102FFBE3AF2EA01631
:102AC00008F41BE31F5F012F27E0AE014F5F5F4F4C
:102AD0000E94B216BC018981982F9970913009F437
:102AE0003FC09BE2E1FC04C09E2D9170E0FC3AC027
:102AF0005E2D5071E82FE87083FF46C084E091118D
:102B000001C083E0EF2DE81B8F1508F0E0E0D6014F
:102B10008E2F20E2552351F1992329F0D6019C9361
:102B2000C60101966C0196012D5F3F4FE2FE24C065
:102B30008EE4D6018C9391E411969C931197129692
:102B40008C93D9018E2F90E281111BC0E20FF32FDD
:102B5000F11D10828EEF9FEF2996ECE00C94D018B7
:102B60009DE2C6CF90E2C4CF2D9381508111FCCF5E
:102B7000CE0ED11CE0E0D0CF8EE6D6018C9391E64C
:102B8000DBCF9D938150E0CF482F447082FF3DC042
:102B900084E0911101C083E08F1510F4EF2DE81B44
:102BA000D6018E2F20E2552309F1992329F0D60171
:102BB0009C93C60101966C0196012D5F3F4FE2FE8A
:102BC0001BC089E4D6018C938EE411968C931197E7
:102BD00086E412968C93D9018E2F90E2882309F413
:102BE000B5CF9D938150FACF2D9381508111FCCFA9
:102BF000CE0ED11CE0E0D9CF89E6D6018C938EE6CB
:102C000011968C93119786E6E4CF9B0177FF02C063
:102C100030E020E0A1E0B0E0911102C0B0E0A0E01F
:102C2000F9013196AE0FBF1F8B2C912CBB2009F4FC
:102C300061C05401EFEFAE1ABE0AAA0DBB1DFA1611
:102C40001B0619F014F04F2D4A1B511188C0E3FCEC
:102C500059C07601A42FB0E2A1114FC0C40ED11CFF
:102C6000992309F45BC040E0D6011196F6019083E8
:102C70006D01552309F448C0012F060F9A81582F82
:102C8000507184FF03C0913309F4015010160CF009
:102C900047C0093008F008E0EEE2FE2E5B01A01A02
:102CA000B10885019194819491082F3F320729F44E
:102CB000D601FC92F60131966F016217730794F109
:102CC000021713077CF5DB01A21BB30BAA24A39404
:102CD000B12CAC0EBD1EAA0DBB1D11968C912150BE
:102CE0003109D601119628153905F4F0F6018083D3
:102CF0006D01DBCFB12CA12CA0CFF701B1937F01E7
:102D0000A150AACF9111B0CFD601942F50E302C0A9
:102D10005D9391509111FCCFC40ED11C40E0ACCF1B
:102D200001E0BACF80E3DBCF6217730731F496334B
:102D300088F4953311F4552369F0F6018083FD0181
:102D4000842F90E2811108C0A40FB11D1C9290E065
:102D500080E002CF81E3F1CF91938150F3CF9111C5
:102D600083CF8ACF283008F027E03327DA01990F84
:102D7000311D87FD916000966105710539F432605F
:102D80002E5F3D9330E32A95E1F708959F3F30F0A1
:102D900080387105610509F03C5F3C5F3D939130DF
:102DA00008F08068911DDF93CF931F930F93FF92DC
:102DB000EF92192F987F9695E92F96959695E90FA2
:102DC000FF27EC5DFE4F99273327EE24FF24A70150
:102DD000E70105900894079428F4360FE71EF81EC3
:102DE000491F511D660F771F881F991F0694A1F771
:102DF0000590079428F4E70EF81E491F561FC11DC1
:102E0000770F881F991F661F0694A1F705900794F6
:102E100028F4F80E491F561FC71FD11D880F991F90
:102E2000661F771F0694A1F70590079420F4490FB9
:102E3000561FC71FD81F990F661F771F881F06943C
:102E4000A9F784911095177041F0D695C7955795BD
:102E50004795F794E7941A95C1F7EAECF0E0689487
:102E60001590159135916591959105907FE2739537
:102E7000E118F10A430B560BC90BD009C0F7E10C5E
:102E8000F11E431F561FC91FD01D7EF4703311F46D
:102E90008A95E6CFE894015030F0080F0AF4002735
:102EA000021708F4202F2395022F7A3328F079E3B4
:102EB0007D932A95E9F710C07D932A9589F60694AB
:102EC00097956795379517951794E118F10A430B75
:102ED000560BC90BD00998F023957E9173957A33E0
:102EE00008F070E37C932013B8F77E9170617D93B6
:102EF00030F0839571E37D9370E32A95E1F7112417
:102F0000EF90FF900F911F91CF91DF91992787FD4F
:102F1000909508950E94CC1708F481E00895E894F4
:102F200009C097FB3EF490958095709561957F4F11
:102F30008F4F9F4F9923A9F0F92F96E9BB279395BF
:102F4000F695879577956795B795F111F8CFFAF4CF
:102F5000BB0F11F460FF1BC06F5F7F4F8F4F9F4F00
:102F600016C0882311F096E911C0772321F09EE85E
:102F7000872F762F05C0662371F096E8862F70E0C4
:102F800060E02AF09A95660F771F881FDAF7880F9E
:102F90009695879597F90895990F0008550FAA0BF4
:102FA000E0E8FEEF16161706E807F907C0F012165C
:102FB0001306E407F50798F0621B730B840B950B5F
:102FC00039F40A2661F0232B242B252B21F40895B4
:102FD0000A2609F4A140A6958FEF811D811D089551
:102FE0000E9403180C9474180E94661838F00E940E
:102FF0006D1820F0952311F00C945D180C94631853
:1030000011240C94A8180E94851870F3959FC1F3A1
:10301000950F50E0551F629FF001729FBB27F00D86
:10302000B11D639FAA27F00DB11DAA1F649F6627DB
:10303000B00DA11D661F829F2227B00DA11D621F2A
:10304000739FB00DA11D621F839FA00D611D221FE4
:10305000749F3327A00D611D231F849F600D211DC8
:10306000822F762F6A2F11249F5750409AF0F1F04B
:1030700088234AF0EE0FFF1FBB1F661F771F881FB4
:1030800091505040A9F79E3F510580F00C945D1877
:103090000C94A8185F3FE4F3983ED4F38695779597
:1030A0006795B795F795E7959F5FC1F7FE2B880F5A
:1030B000911D9695879597F9089597F99F6780E8F0
:1030C00070E060E008959FEF80EC089500240A947A
:1030D0001616170618060906089500240A941216F3
:1030E0001306140605060895092E0394000C11F426
:1030F000882352F0BB0F40F4BF2B11F460FF04C0D3
:103100006F5F7F4F8F4F9F4F089557FD9058440F2B
:10311000551F59F05F3F71F04795880F97FB991F36
:1031200061F09F3F79F087950895121613061406F3
:10313000551FF2CF4695F1DF08C016161706180680
:10314000991FF1CF86957105610508940895E8945B
:10315000BB2766277727CB0197F908952F923F92D7
:103160004F925F926F927F928F929F92AF92BF9297
:10317000CF92DF92EF92FF920F931F93CF93DF9343
:10318000CDB7DEB7CA1BDB0B0FB6F894DEBF0FBEA0
:10319000CDBF09942A88398848885F846E847D84ED
:1031A0008C849B84AA84B984C884DF80EE80FD80EF
:1031B0000C811B81AA81B981CE0FD11D0FB6F89465
:1031C000DEBF0FBECDBFED010895EE0FFF1F0590CE
:1031D000F491E02D09945058BB27AA270E940319A7
:1031E0000C9474180E94661838F00E946D1820F034
:1031F00039F49F3F19F426F40C9463180EF4E0950B
:10320000E7FB0C945D18E92F0E94851858F3BA1754
:10321000620773078407950720F079F4A6F50C94EC
:10322000A7180EF4E0950B2EBA2FA02D0B01B901B3
:1032300090010C01CA01A0011124FF27591B99F02C
:10324000593F50F4503E68F11A16F040A22F232F38
:10325000342F4427585FF3CF469537952795A79588
:10326000F0405395C9F77EF41F16BA0B620B730B2F
:10327000840BBAF09150A1F0FF0FBB1F661F771FA0
:10328000881FC2F70EC0BA0F621F731F841F48F455
:10329000879577956795B795F7959E3F08F0B0CFDE
:1032A0009395880F08F09927EE0F979587950895C5
:1032B0000E94071AE3950C94301A0E9471190C941D
:1032C00074180E946D1858F00E94661840F029F496
:1032D0005F3F29F00C945D1851110C94A8180C94C0
:1032E00063180E94851868F39923B1F3552391F36D
:1032F000951B550BBB27AA2762177307840738F065
:103300009F5F5F4F220F331F441FAA1FA9F335D0C1
:103310000E2E3AF0E0E832D091505040E695001C75
:10332000CAF72BD0FE2F29D0660F771F881FBB1F2F
:10333000261737074807AB07B0E809F0BB0B802D0D
:10334000BF01FF2793585F4F3AF09E3F510578F039
:103350000C945D180C94A8185F3FE4F3983ED4F3E6
:10336000869577956795B795F7959F5FC9F7880F0D
:10337000911D9695879597F90895E1E0660F771F5F
:10338000881FBB1F621773078407BA0720F0621BF0
:10339000730B840BBA0BEE1F88F7E09508950E941B
:1033A000D6196894B1110C94A81808950E948D182C
:1033B00088F09F5798F0B92F9927B751B0F0E1F0F6
:1033C000660F771F881F991F1AF0BA95C9F714C0A6
:1033D000B13091F00E94A718B1E008950C94A7189D
:1033E000672F782F8827B85F39F0B93FCCF38695DF
:1033F00077956795B395D9F73EF49095809570953C
:1034000061957F4F8F4F9F4F08950C9463180E94D2
:103410008D18D8F3E894E0E0BB279F57F0F02AED31
:103420003FE049EC06C0EE0FBB0F661F771F881FF9
:1034300028F0B23A62077307840728F0B25A620B89
:10344000730B840BE3959A9572F7803830F49A9554
:10345000BB0F661F771F881FD2F790480C94531A32
:10346000EF93E0FF07C0A2EA2AED3FE049EC5FEBF3
:103470000E9403190E9474180F90039401FC905845
:10348000ECEAF0E00C945F1A0E94CC1708F48FEF7E
:1034900008959F930E94071A0F9007FCEE5F0C940B
:1034A000301A9F3F31F0915020F4879577956795BA
:1034B000B795880F911D9695879597F908959F93D5
:1034C0008F937F936F93FF93EF939B01AC010E94C7
:1034D000F017EF91FF910E94731A2F913F914F9136
:1034E0005F910C94F017DF93CF931F930F93FF928C
:1034F000EF92DF927B018C01689406C0DA2EEF0117
:103500000E940318FE01E894A591259135914591FB
:103510005591A6F3EF010E940319FE019701A8013E
:10352000DA9469F7DF90EF90FF900F911F91CF91A0
:10353000DF9108950F931F93CF93DF93823091050E
:1035400010F482E090E0E0914F03F091500330E0FE
:1035500020E0B0E0A0E0309799F42115310509F49E
:103560004AC0281B390B24303105D8F58A819B814C
:103570006115710589F1FB0193838283FE0111C0FE
:10358000408151810281138148175907E0F04817A3
:10359000590799F4109761F012960C9312971396AD
:1035A0001C933296CF01DF91CF911F910F91089517
:1035B00000934F0310935003F4CF2115310551F0C0
:1035C0004217530738F0A901DB019A01BD01DF0161
:1035D000F801C1CFEF01F9CF9093500380934F03CF
:1035E000CDCFFE01E20FF31F819391932250310959
:1035F00039832883D7CF20914D0330914E03232B5D
:1036000041F4209138013091390130934E032093D9
:103610004D0320913601309137012115310541F4D8
:103620002DB73EB740913A0150913B01241B350B19
:10363000E0914D03F0914E03E217F307A0F42E1B27
:103640003F0B2817390778F0AC014E5F5F4F241706
:10365000350748F04E0F5F1F50934E0340934D03C4
:10366000819391939FCFF0E0E0E09CCFCF93DF93E5
:103670000097E9F0FC01329713821282A0914F0368
:10368000B0915003ED0130E020E01097A1F42081CB
:103690003181820F931F20914D0330914E032817E3
:1036A000390709F061C0F0934E03E0934D03DF91B9
:1036B000CF910895EA01CE17DF07E8F54A815B81D3
:1036C0009E0141155105B1F7E901FB83EA83499158
:1036D0005991C40FD51FEC17FD0761F480819181CA
:1036E0000296840F951FE9019983888382819381D3
:1036F0009B838A83F0E0E0E012968D919C91139772
:103700000097B9F52D913C911197CD010296820F4A
:10371000931F20914D0330914E032817390739F636
:10372000309751F51092500310924F03B0934E030F
:10373000A0934D03BCCFD383C28340815181840FBA
:10374000951FC817D90761F44E5F5F4F8881998133
:10375000480F591F518340838A819B8193838283C1
:103760002115310509F0B0CFF0935003E0934F03DA
:103770009ECFFD01DC01C0CF13821282D7CFB0E013
:10378000A0E0E5ECFBE10C94B0188C01009751F43B
:10379000CB010E949A1A8C01C801CDB7DEB7E0E1D7
:1037A0000C94CC18FC01E60FF71F9C012250310944
:1037B000E217F30708F49DC0D901CD91DC91119770
:1037C000C617D70798F0C530D10530F3CE0104975E
:1037D0008617970708F3C61BD70B2297C193D1937F
:1037E0006D937C93CF010E94361BD6CF5B01AC1A40
:1037F000BD0A4C018C0E9D1EA0914F03B091500349
:10380000512C412CF12CE12C109731F580914D0376
:1038100090914E038815990509F05CC0461657062D
:1038200008F058C08091360190913701009741F41B
:103830008DB79EB740913A0150913B01841B950B87
:10384000E817F90708F055C0F0934E03E0934D03D5
:10385000F90171836083A0CF8D919C91119712968D
:103860006C90129713967C901397A815B90559F58B
:103870006C0142E0C40ED11CCA14DB0420F1AC017F
:103880004A195B09DA011296159780F062827382F9
:1038900051834083D9016D937C93E114F10471F05D
:1038A000D7011396FC93EE93129776CF22968C0F46
:1038B0009D1FF90191838083F301EFCFF0935003B3
:1038C000E0934F0369CF4816590608F42C017D0197
:1038D000D3019ACFCB010E949A1A7C01009749F03C
:1038E000AE01B8010E947C1CC8010E94361B8701F2
:1038F00053CF10E000E050CFFB01DC0102C001908B
:103900000D9241505040D8F70895FB01DC01019021
:103910000D920020E1F70895FB01DC014150504079
:1039200030F08D910190801919F40020B9F7881BAF
:10393000990B089511E0C6E6D1E004C0FE010E9493
:0E394000E5182196C736D107C9F7F894FFCFD6
:10394E00FFFFFFFF00E10000000000008F028F026A
:10395E008F028F028F020000B44400000C4258E91F
:10396E005B4332000000003FCDCCCC3D0000000098
:10397E0000000000A00500005103800000C18081FE
:10398E0000000000000000F403550382034004B35E
:10399E00039103A50300000000E50460040605FB87
:1039AE00044C050A05280500000000B3060D0A00A8
:1039BE002F736574757028290045444954494E4744
:1039CE0020524F4F4D0044656C6976657279436F96
:1039DE006669726D3A0045444954494E4720434F3B
:1039EE004E4649524D00526F6F6D3A00506F7369DB
:1039FE0074696F6E2F7800506F736974696F6E2FD4
:103A0E007900506F736974696F6E2F746865746195
:023A1E000000A6
:00000001FF
