:100000000C9467010C944E0D0C94270D0C94000D6C
:100010000C94D90C0C948F010C948F010C94B20C9D
:100020000C948F010C946E100C94750D0C94E40DCF
:100030000C948F010C948F010C948F010C948F0100
:100040000C948F010C948F010C948F010C948F01F0
:100050000C948F010C948F010C948F010C94680CFC
:100060000C948F010C943C100C9416100C948F017E
:100070000C948F010C948F010C948F010C948F01C0
:100080000C948F010C948F010C948F010C948F01B0
:100090000C948F010C948F010C948F010C948F01A0
:1000A0000C948F010C948F010C948F0105A84CCDFA
:1000B000B2D44EB93836A9020C50B9918688083CA2
:1000C000A6AAAA2ABE000000803F00407A10F35A78
:1000D00000A0724E18090010A5D4E80000E8764888
:1000E000170000E40B54020000CA9A3B000000E134
:1000F000F505000080969800000040420F000000C7
:10010000A08601000000102700000000E8030000A6
:1001100000006400000000000A0000000000010070
:10012000000000002C76D888DC674F0823DFC1DF91
:10013000AE59E1B1B796E5E3E453C63AE651997694
:1001400096E8E6C28426EB898C9B62ED407C6FFCCE
:10015000EFBC9C9F40F2BAA56FA5F490055A2AF710
:100160005C936B6CF9676DC11BFCE0E40D47FEF519
:1001700020E6B500D0ED902E030094357705008081
:10018000841E080000204E0A000000C80C333333E0
:10019000330F986E12831141EF8D2114893BE65580
:1001A00016CFFEE6DB18D1844B381BF77C1D901D63
:1001B000A4BBE424203284725E228100C9F124ECC5
:1001C000A1E53D2700000000240027002A002D00A3
:1001D0003000000000002300260029002C002F0022
:1001E000080B0002020200000904000001020200E4
:1001F0000005240010010524010101042402060564
:1002000024060001070581031000400904010002D3
:100210000A000000070502024000000705830240B3
:1002200000000403090412010002EF020140FB1F59
:100230000023000101020301506F6C6F6C752043B5
:100240006F72706F726174696F6E00506F6C6F6C5B
:100250007520412D537461722033325534000000F3
:100260000000250028002B002E00310004040404A7
:10027000040304050202020204030202020206064B
:100280000606060604040202020404040802011021
:1002900040804010204080408008020401804020BF
:1002A00010020110801020404020000000020009D0
:1002B0000F0000030401000C00000000000000001B
:1002C00000000000000000000000EA107613112476
:1002D0001FBECFEFDAE0DEBFCDBF23E0A6EBB1E07B
:1002E00001C01D92A931B207E1F711E0A0E0B1E031
:1002F000ECEBF5E302C005900D92A63BB107D9F7F0
:1003000011E0C6E6D1E004C02197FE010E942A1741
:10031000C536D107C9F70E944C110C94D11A0C9420
:100320000000FC018091EB01882311F13FB7F894A4
:1003300082E08093E9002091F200822F90E018166D
:10034000190614F481E090E0882339F0289844E6F7
:100350004093EA014091F1004083222339F020913B
:10036000F200211103C02BE62093E8003FBF08955F
:100370008FEF9FEF08952FB7F89483E08093E90003
:100380009091E800892F807295FF04C09091F2004F
:1003900080E4891B2FBF08958091E20181110DC077
:1003A00082E08093DE0184E08093DF011092E1011E
:1003B0001092E00181E08093E2018EED91E00895DA
:1003C00081508F3008F047C0E82FF0E0E651FE4F33
:1003D0000C942A1707020B02F901FF0103022B02FA
:1003E0002B022B020E02140218021C0222022B0204
:1003F0002602809180008F778093800008958091FD
:1004000080008F7DF9CF80918000877FF5CF84B504
:100410008F7784BD089584B58F7DFBCF8091900048
:100420008F77809390000895809190008F7DF9CF11
:1004300080919000877FF5CF8091C0008F77809367
:10044000C00008958091C0008F7DF9CF8091C200D7
:10045000877F8093C20008953FB7F8948091DA01B6
:100460009091DB01A091DC01B091DD0126B5A89B44
:1004700005C02F3F19F00196A11DB11D3FBFBA2F36
:10048000A92F982F8827BC01CD01620F711D811DF6
:10049000911D42E0660F771F881F991F4A95D1F77B
:1004A00008958F929F92AF92BF92CF92DF92EF9278
:1004B000FF924B015C010E942C026B017C010E94A7
:1004C0002C026C197D098E099F09683E73408105D5
:1004D0009105A8F321E0821A9108A108B10888EEDD
:1004E000C80E83E0D81EE11CF11C81149104A10404
:1004F000B10429F7FF90EF90DF90CF90BF90AF90BD
:100500009F908F9008952FB7F8946091D6017091C5
:10051000D7018091D8019091D9012FBF08950895F6
:100520004091CF015091D0012091CD013091CE0169
:1005300042175307B4F49091E8009570E1F390915D
:10054000E80092FD19C08093F1008091CF01909155
:10055000D00101968F739927892B19F48EEF809320
:10056000E8008091CF019091D00101969093D00145
:100570008093CF0181E0089580E00895EF92FF928B
:100580000F931F93CF93DF93F82E192FE62E042F8E
:1005900081E0860F880F0E94900283E00E94900203
:1005A000CF2DD12FEC0EFD2EF11CCE15DF05B9F0AD
:1005B00007FF13C0FE0184910E949002182F80E073
:1005C0000E949002812321968111EFCFDF91CF917C
:1005D0001F910F91FF90EF9008958881EDCF81E0FA
:1005E000F5CFDF92EF92FF920F931F93CF93DF939C
:1005F000D82E8A01EB017B01E40EF51ECE15DF0536
:1006000059F0D7FE12C0FE0184910E9490022196FB
:100610008111F4CF0FEF1FEFC801DF91CF911F9130
:100620000F91FF90EF90DF9008958881EECF0F93A8
:100630001F93CF93DF931F92CDB7DEB782E08983FC
:1006400042E450E060EE71E080E80E94F1020E9416
:10065000CC01DC0112960D911C910115110589F058
:10066000D801ED91FC910280F381E02DBE016F5F16
:100670007F4FC801099597FD04C0F80100851185D9
:10068000ECCF89810F90DF91CF911F910F91089549
:10069000615030F02091F100FC0120830196F8CFE9
:1006A000289884E68093EA010895AF92BF92CF9292
:1006B000DF92EF92FF920F931F93CF93DF936C0122
:1006C0007B018B01040F151FEB015E01AE18BF0803
:1006D000C017D10759F06991D601ED91FC910190B5
:1006E000F081E02DC6010995892B79F7C501DF91CD
:1006F000CF911F910F91FF90EF90DF90CF90BF901F
:10070000AF900895FC01538D448D252F30E0842F48
:1007100090E0821B930B541710F0CF960895019729
:100720000895FC01918D828D981761F0A28DAE0F16
:10073000BF2FB11D5D968C91928D9F5F9F73928F9D
:1007400090E008958FEF9FEF0895FC01918D828DC9
:10075000981731F0828DE80FF11D858D90E0089596
:100760008FEF9FEF0895FC01918D228D892F90E0EE
:10077000805C9F4F821B91098F73992708958DEF9D
:1007800091E00E94B30321E0892B09F420E0822F3D
:10079000089580E090E0892B29F00E94BF03811129
:1007A0000C9400000895FC01A48DA80FB92FB11D71
:1007B000A35ABF4F2C91848D90E001968F73992797
:1007C000848FA689B7892C93A089B1898C91827472
:1007D0008C93938D848D981306C00288F389E02D45
:1007E00080818F7D80830895EF92FF920F931F93F6
:1007F000CF93DF93EC0181E0888F9B8D8C8D9813D4
:1008000019C0E889F989808185FF14C09FB7F894E1
:10081000EE89FF896083E889F98980818274808309
:100820009FBF81E090E0DF91CF911F910F91FF90EA
:10083000EF900895F62E0B8D10E00F5F1F4F0F7392
:100840001127E02E8C8D8E110CC00FB607FCFACF4D
:10085000E889F989808185FFF5CFCE010E94D30315
:10086000F1CFEB8DEC0FFD2FF11DE35AFF4FF0821E
:100870009FB7F8940B8FEA89FB8980818062CFCF84
:10088000CF93DF93EC01888D8823B9F0AA89BB89C7
:10089000E889F9898C9185FD03C0808186FD0DC0B2
:1008A0000FB607FCF7CF8C9185FFF2CF808185FFD3
:1008B000EDCFCE010E94D303E9CFDF91CF91089510
:1008C0008F929F92AF92BF92CF92DF92EF92FF9260
:1008D0000F931F93CF93DF936C017B018A0180916B
:1008E0000B01882309F45CC08091EB01882309F493
:1008F00057C08091D30180FF05C08091E0008260E5
:100900008093E000E801B12C8AEFA82E93E0892EB5
:100910002AE3922E209711F4BB20D9F10E94BB014B
:1009200081110AC0AA94AA20D9F161E070E080E0A8
:1009300090E00E945102EECF8C171D0611F00CF0D2
:100940008C2F9FB7F8948092E9002091E80025FD54
:1009500002C09FBFDFCF282F30E0C21BD30BF701AF
:10096000815020F041914093F100FACFE20EF31E46
:10097000BB2021F09092E800B12CEBCF8091E800F1
:1009800085FDE7CF9092E800BB24B394209709F34C
:10099000F3CF5D9884E68093D201101611063CF0E7
:1009A00081E090E0F6019383828310E000E0C801CB
:1009B000DF91CF911F910F91FF90EF90DF90CF903B
:1009C000BF90AF909F908F900895CF93DF931F9229
:1009D000CDB7DEB76983DC01ED91FC910280F38134
:1009E000E02D41E050E0BE016F5F7F4F09950F9011
:1009F000DF91CF91089583E08093E9008091F20028
:100A0000882319F08AE38093E80008950E94BB01CF
:100A100090E00895CF93DF931F92CDB7DEB7FC012E
:100A20008485958597FD08C02FEF3FEF3587248794
:100A30000F90DF91CF910895CE0101960E94910110
:100A4000019719F4898190E0F3CF8FEF9FEFF0CFFA
:100A50000F931F93CF93DF931F92CDB7DEB78C0117
:100A6000FC018485958597FF0BC0CE0101960E94FD
:100A70009101019771F4898190E0F801958784874D
:100A8000F801848595850F90DF91CF911F910F918B
:100A900008958FEF9FEFF1CFFC018485958597FD39
:100AA0000BC09FB7F89482E08093E9008091F20038
:100AB0009FBF90E0019608959FB7F89482E08093DD
:100AC000E9008091F2009FBF90E008952E98269A49
:100AD0002D98259A2A98229A2998219A2F98279A10
:100AE0008AEA8093800089E18093810084EA91E022
:100AF000909387008093860010928900109288005E
:100B000010928B0010928A0010928D0010928C002F
:100B10000895CF93DF93EC018091BC01811105C052
:100B200081E08093BC010E94660580E0D7FF04C08D
:100B3000D195C195D10981E0CD3291E0D90714F06A
:100B4000CCE2D1E0D0938900C0938800882329F0BB
:100B5000299A219ADF91CF9108952998FACFCF93BE
:100B6000DF93EC018091BC01811105C081E080938D
:100B7000BC010E94660580E0D7FF04C0D195C195F5
:100B8000D10981E0CD3291E0D90714F0CCE2D1E077
:100B9000D0938B00C0938A00882329F02A9A229A46
:100BA000DF91CF9108952A98FACFECE3F1E0108617
:100BB000118612861386148615861686178690E08F
:100BC00080E00E94AF0590E080E00E9489050E94CD
:100BD0008302EBEEF2E06487758786879787108241
:100BE0001182128213821482158216821782108655
:100BF00011861286138608958CB1282F30E0359522
:100C0000279535952795422F417083B190E054E0A8
:100C1000959587955A95E1F7822781702091BA01C1
:100C20009091BB016091EF017091F001242798270A
:100C3000291B330B260F371F3093F0012093EF0150
:100C40002091BA019091BB01281729F0941719F04F
:100C500091E09093B9018093BA014093BB0108954C
:100C60009FB191708CB186FB882780F989272091EC
:100C7000B7013091B8014091EC015091ED01292765
:100C80003827231B330B240F351F3093ED0120939E
:100C9000EC013091B7012091B801381729F02917DC
:100CA00019F021E02093B6018093B7019093B80129
:100CB000089524982C9A6A98729A6E98769A8098D9
:100CC000889AF89491E090936800EBE6F0E08081D8
:100CD000806180832CEF35E03093C6012093C501FD
:100CE0009BBB8091EA028F7E8093EA0283B1909150
:100CF000EA028071892B8093EA02789480E396E07F
:100D00009093150180931401EAE6F0E080818F7CD6
:100D100080618083EE9A8CB182FB882780F9809372
:100D2000BB0193B18091BB0192959170892780930B
:100D3000BA011092F0011092EF011092B9018FB137
:100D400081708093B8019CB18091B80196FB99277E
:100D500090F989278093B7011092ED011092EC0170
:100D60001092B60108950F931F93CF93DF93EC0178
:100D7000888581112FC0898590E0FC01E557FD4FE2
:100D800084599D4F21E028872A85222309F44CC0ED
:100D90002491FC0184918823C9F090E0880F991F69
:100DA000FC01EC53FE4F45915491FC01E25AFD4F7A
:100DB000A591B4919FB7F894FA013081822F809564
:100DC00083238083EC91E22BEC939FBF8FE090E034
:100DD0000197F1F7298530E0F901E655FD4F84913F
:100DE000F901E557FD4F0491F901E459FD4F1491C4
:100DF000112309F437C081110E94E001E12FF0E0D6
:100E0000EE0FFF1FEE52FE4FA591B491EC910E2311
:100E100031E009F430E0832F2B8582278170DF9148
:100E2000CF911F910F9108952491FC018491882303
:100E300009F4CCCF90E0880F991FFC01EC53FE4FD2
:100E400045915491FC01E25AFD4FA591B4919FB791
:100E5000F894FA0180812095822380838C91E22F7F
:100E6000E823B2CF80E0D8CFCF93DF9389E093E03F
:100E70000E94B306D1E0C82FCD270E9483022091A3
:100E80000E03213099F030F0223011F1233041F17E
:100E9000C0E008C0C111FCCF7093100360930F0332
:100EA000D0930E038C2FDF91CF910895CC2319F0AE
:100EB00010920E03EDCF20910F0330911003621BAF
:100EC000730B6F30710570F382E080930E03E0CFF7
:100ED000CC2341F37093100360930F0383E0F5CFAD
:100EE000CC2391F320910F0330911003621B730BFD
:100EF0006F30710568F210920E03D4CFFB010190A0
:100F00000020E9F73197AF01461B570BDC01ED914B
:100F1000FC910280F381E02D0994CF93DF93EC01E3
:100F200088819981009711F00E947B19198218829B
:100F30001D821C821B821A82DF91CF910895FC01D1
:100F400080819181009711F00C947B1908950F9383
:100F50001F93CF93DF93EC0188819981009759F01B
:100F60002A813B812617370730F081E0DF91CF914E
:100F70001F910F9108958B016F5F7F4F0E94041A9C
:100F8000009759F0998388831B830A832C813D81C4
:100F9000232B59F7FC011082E8CF80E0E7CFEF92D6
:100FA000FF920F931F93CF93DF93EC01FB01E0803F
:100FB000F180E114F10411F104811581011511058D
:100FC000A9F08C819D81080F191FB801CE010E94E4
:100FD000A707882399F0288139818C819D81B701E9
:100FE000820F931F0E94CA1A1D830C83CE01DF91CA
:100FF000CF911F910F91FF90EF900895CE010E9425
:101000008D07F4CFEF92FF920F931F93CF93DF934F
:10101000EC017B018A01BA010E94A70781110BC074
:10102000CE010E948D07CE01DF91CF911F910F91CC
:10103000FF90EF9008951D830C83B70188819981FB
:101040000E94CA1AF0CFEF92FF920F931F93CF9393
:10105000DF93CDB7DEB7A1970FB6F894DEBF0FBE12
:10106000CDBF7C01CB01BA01F7011182108213823E
:101070001282158214828E010F5F1F4F22E044E01E
:101080000E947A130097C9F0FC0101900020E9F753
:101090003197AF01481B590BBC01C7010E940208E0
:1010A000A1960FB6F894DEBF0FBECDBFDF91CF91F2
:1010B0001F910F91FF90EF900895C7010E948D0737
:1010C000EFCFCF92DF92EF92FF920F931F93CF93C8
:1010D000DF93CDB7DEB72C970FB6F894DEBF0FBE07
:1010E000CDBF7C016B011A8219821C821B821E8279
:1010F0001D828AE38F8318868E01095F1F4FF801D6
:1011000001900020E9F73197AF01401B510BB80166
:10111000CE0101960E94020818861F821A8619863F
:101120001C861B86F701608171816115710529F0AC
:1011300044815581C8010E940208BE016F5F7F4F44
:10114000C8010E94CF07B6010E94CF07FC0144816D
:101150005581608171818DEF91E00E94550365E8B2
:1011600071E08DEF91E00E947E07C8010E949F0709
:10117000CE0101960E949F072C960FB6F894DEBF11
:101180000FBECDBFDF91CF911F910F91FF90EF90D8
:10119000DF90CF900895FC01118210821382128299
:1011A00015821482FB0101900020E9F73197AF010D
:1011B000461B570B0C9402084F925F926F927F92DE
:1011C0008F929F92AF92BF92CF92DF92EF92FF9257
:1011D0000F931F93CF93DF93CDB7DEB7AC970FB6C6
:1011E000F894DEBF0FBECDBF6D877E878F87988B4B
:1011F0002D8F3E8F4F8F58A30E9483024B015C01BD
:101200008091F9019091FA01A091FB01B091FC014C
:10121000B501A401481B590B6A0B7B0B80913A0165
:1012200090913B01092E000CAA0BBB0B48175907E4
:101230006A077B0708F448C28091F7019091F80192
:101240009093F6018093F5018091F3019091F40160
:101250009093F2018093F1018091EE01811105C01C
:1012600081E08093EE010E945906F8948091EF018D
:101270009091F00178949093F8018093F701809118
:10128000EE01811105C081E08093EE010E945906B4
:10129000F8940091EC011091ED0178941093F40111
:1012A0000093F3010E9483028092F9019092FA0167
:1012B000A092FB01B092FC0120912E0130912F01F0
:1012C00040913001509131016091360170913701A8
:1012D00080913801909139010E94A2176B017C0125
:1012E00060913A0170913B01072E000C880B990B1D
:1012F0000E94D61520E030E04AE754E40E94A2178D
:101300004B015C016091F7017091F8018091F5014A
:101310009091F601681B790B072E000C880B990B36
:101320000E94D615A70196010E943516A5019401C9
:101330000E94A2179B01AC016D857E858F859889DF
:101340000E9430172B013C018091F1019091F20134
:10135000B801681B790B072E000C880B990B0E94B3
:10136000D615A70196010E943516A50194010E9489
:10137000A2179B01AC016D8D7E8D8F8D98A10E946F
:1013800030176B017C01209144013091450140915F
:10139000460150914701C301B2010E9431174B0130
:1013A0005C018092440190924501A0924601B09266
:1013B0004701209148013091490140914A015091E3
:1013C0004B01C701B6010E943117698F7A8F8B8F4D
:1013D0009C8F609348017093490180934A019093D8
:1013E0004B0120913C0130913D0140913E015091D3
:1013F0003F01298B3A8B4B8B5C8B80914001909104
:101400004101A0914201B09143018D8B9E8BAF8B26
:10141000B88FC301B2010E9435162B013C012D8902
:101420003E894F89588DC501B4010E9435169B0134
:10143000AC01C301B2010E9431170E941418CB0104
:101440000E94AF0529893A894B895C89C701B60199
:101450000E9435166B017C012D893E894F89588D7C
:10146000698D7A8D8B8D9C8D0E9435169B01AC0108
:10147000C701B6010E9431170E941418CB010E94C7
:1014800089050E948302698B7A8B8B8B9C8B60937E
:10149000FB027093FC028093FD029093FE02809108
:1014A000F7029091F802A091F902B091FA0229890D
:1014B0003A894B895C89281B390B4A0B5B0BCA01A3
:1014C000B901623371058105910508F4FDC00E94E0
:1014D000D41520E030E04AE754E40E94A2172B0123
:1014E0003C012D8D3E8D4F8D58A16D857E858F855C
:1014F00098890E9431176B017C018091EB029091D9
:10150000EC02A091ED02B091EE0289A39AA3ABA3E5
:10151000BCA38090F3029090F402A090F502B090EA
:10152000F602C501B4010E948E186D8B7E8B8F8BE5
:10153000988F2091EF023091F0024091F10250918A
:10154000F2022DA33EA34FA358A7C501B4010E94E8
:101550009D1769A77AA78BA79CA72D8D3E8D4F8DD0
:1015600058A16D857E858F8598890E94CF15811140
:10157000C2C020E030E040E05FE3C701B6010E9456
:1015800035166B017C0129A53AA54BA55CA50E94E7
:101590003516A30192010E94351629A13AA14BA14B
:1015A0005CA10E9431176093EB027093EC02809370
:1015B000ED029093EE02A70196016D897E898F89D5
:1015C000988D0E943516A30192010E9435162DA117
:1015D0003EA14FA158A50E9431176093EF0270936E
:1015E000F0028093F1029093F20289899A89AB8983
:1015F000BC898093F7029093F802A093F902B0930C
:10160000FA024091EB025091EC026091ED02709170
:10161000EE02CE0107960E94230868E871E0CE0131
:1016200001960E94CB08BE01695F7F4FCE010196F3
:101630000E946108CE0101960E949F07CE01079685
:101640000E949F074091EF025091F0026091F102D9
:101650007091F202CE0107960E94230863E971E0BF
:10166000CE0101960E94CB08BE01695F7F4FCE017B
:1016700001960E946108CE0101960E949F07CE014B
:1016800007960E949F074091F3025091F4026091E7
:10169000F5027091F602CE0107960E9423086EE9CA
:1016A00071E0CE0101960E94CB08BE01695F7F4FB9
:1016B000CE0101960E946108CE0101960E949F070B
:1016C000CE0107960E949F07AC960FB6F894DEBF36
:1016D0000FBECDBFDF91CF911F910F91FF90EF9083
:1016E000DF90CF90BF90AF909F908F907F906F9042
:1016F0005F904F9008958091FF0290910003A09118
:101700000103B0910203898F9A8FAB8FBC8F2D8517
:101710003E854F8558896D8D7E8D8F8D98A10E9455
:1017200030176D877E878F87988B20E030E040E010
:101730005FE3698D7A8D8B8D9C8D0E943516A70194
:1017400096010E9435162D853E854F8558890E9449
:10175000A2176B017C01298D3A8D4B8D5C8D6D85B7
:101760007E858F8598890E94A217A30192010E940D
:101770003516A50194010E9431176D877E878F87EA
:10178000988B0E948E182B013C01A70196016D8950
:101790007E898F89988D0E9435169B01AC0169A1C5
:1017A0007AA18BA19CA10E9430174B015C01A3017F
:1017B0009201C701B6010E9435169B01AC01C5011B
:1017C000B4010E9431176093EB027093EC02809396
:1017D000ED029093EE026D857E858F8598890E943B
:1017E0009D172B013C0129A53AA54BA55CA5C70176
:1017F000B6010E9435162DA13EA14FA158A50E9409
:1018000031174B015C01A3019201C701B6010E948F
:1018100035169B01AC01C501B4010E9430176093DD
:10182000EF027093F0028093F1029093F2022D8503
:101830003E854F8558892093F3023093F4024093FC
:10184000F5025093F602D1CECF92DF92EF92FF9243
:1018500010924401109245011092460110924701E6
:10186000109248011092490110924A0110924B01C6
:1018700090E080E00E94AF0590E080E00E94890542
:101880000E9483026B017C010E9483026C197D0916
:101890008E099F09693E73408105910558F420E047
:1018A00030E048E452EC60E070E088E492E40E94AA
:1018B000DC08EACF90E080E00E94AF0590E080E095
:1018C0000E94890581E0FF90EF90DF90CF9008950E
:1018D0001F920F920FB60F9211242F933F938F9365
:1018E0009F93AF93BF938091D6019091D701A09120
:1018F000D801B091D9013091D50123E0230F2D37C4
:1019000058F50196A11DB11D2093D5018093D601F4
:101910009093D701A093D801B093D9018091DA01B7
:101920009091DB01A091DC01B091DD010196A11D38
:10193000B11D8093DA019093DB01A093DC01B09399
:10194000DD01BF91AF919F918F913F912F910F90AA
:101950000FBE0F901F90189526E8230F0296A11D29
:10196000B11DD2CF1F920F920FB60F9211242F9359
:101970003F934F935F936F937F938F939F93AF9317
:10198000BF93EF93FF93E0911401F0911501099536
:10199000FF91EF91BF91AF919F918F917F916F9147
:1019A0005F914F913F912F910F900FBE0F901F901D
:1019B00018951F920F920FB60F9211242F933F93F9
:1019C0004F935F936F937F938F939F93AF93BF9347
:1019D000EF93FF93E0911201F09113010995FF91AC
:1019E000EF91BF91AF919F918F917F916F915F9197
:1019F0004F913F912F910F900FBE0F901F90189510
:101A00001F920F920FB60F9211242F933F934F9373
:101A10005F936F937F938F939F93AF93BF93EF9356
:101A2000FF93E0911001F09111010995FF91EF9161
:101A3000BF91AF919F918F917F916F915F914F91E6
:101A40003F912F910F900FBE0F901F9018951F92EE
:101A50000F920FB60F9211242F933F934F935F93E2
:101A60006F937F938F939F93AF93BF93EF93FF9366
:101A7000E0910E01F0910F010995FF91EF91BF9157
:101A8000AF919F918F917F916F915F914F913F9116
:101A90002F910F900FBE0F901F9018951F920F92CD
:101AA0000FB60F9211242F933F934F935F936F9331
:101AB0007F938F939F93AF93BF93EF93FF93E091A7
:101AC0000C01F0910D010995FF91EF91BF91AF913C
:101AD0009F918F917F916F915F914F913F912F9146
:101AE0000F900FBE0F901F9018951F920F920FB678
:101AF0000F9211248F939F938091E1009091E100C8
:101B0000937F9093E10083FF0FC01092E90091E072
:101B10009093EB001092EC0092E39093ED00109202
:101B2000EB0198E09093F00082FF22C093E0909345
:101B3000E9009091F200992319F09AE39093E8005C
:101B40009091D201992341F09091D20191509093BC
:101B5000D201911101C05D9A9091EA01992341F05F
:101B60009091EA0191509093EA01911101C0289A55
:101B700084FF18C08091E2008E7E81608093E20035
:101B80008091E1008F7E8093E1008091D3018E7E71
:101B900080618093D3019F918F910F900FBE0F9022
:101BA0001F90189580FFF7CF8091E2008E7E8061B4
:101BB0008093E2008091E1008E7E8093E10080912D
:101BC000D3018E7E8160E5CF1F920F920FB60F92E8
:101BD0001124CF92DF92EF92FF920F931F932F93D6
:101BE0003F934F935F936F937F938F939F93AF93A5
:101BF000BF93EF93FF93CF93DF93CDB7DEB76C978F
:101C0000DEBFCDBF1092E9008091E80083FF25C0C0
:101C100068E0CE0145960E94480382EF8093E80079
:101C20008D8987FF39C09091E80090FFFCCF982FF5
:101C3000907609F034C19E894F89588D2F89F88C90
:101C4000911131C0803861F58091D4018093F10009
:101C50001092F1008EEF8093E8006C960FB6F89426
:101C6000DEBF0FBECDBFDF91CF91FF91EF91BF914E
:101C7000AF919F918F917F916F915F914F913F9124
:101C80002F911F910F91FF90EF90DF90CF900F90C9
:101C90000FBE0F901F9018959EEF9093E800C7CF4E
:101CA0001092F100D5CF913059F48111D3CF41304A
:101CB000510581F68091D4018D7F8093D401CACFE4
:101CC000933049F48111C6CF4130510519F6809106
:101CD000D4018260F2CF953041F48091E80080FF1A
:101CE000FCCF20682093E300B5CF963009F0A9C05F
:101CF0000B8D1C8D22E01092E9001092D001109201
:101D0000CF01F2122EC01092CE011092CD010E948E
:101D100017031F8299E09983FA8291E09E8390EAEB
:101D200098879AEF99872091CF013091D001275F52
:101D30003F4F3C832B838D831092E9001092D0019A
:101D40001092CF011093CE010093CD0149E050E0F5
:101D5000BE016F5F7F4F80E00E94F1020E94170377
:101D600079CF1093CE010093CD010E94CC01DC010C
:101D700012960D911C910115110509F451C1D8015C
:101D8000ED91FC910480F581E02DBE016B5E7F4FEB
:101D9000C8010995009709F03EC1F8010085118539
:101DA000EACFF3E0FF120EC08F89882309F440C008
:101DB000823061F440E862E18BE492E00E94BE026E
:101DC000811148CF81E28093EB0047CF813029F425
:101DD00040E862E188E392E0F1CF833099F70E9416
:101DE000CC01DC011296ED90FC908E010F5F1F4F2D
:101DF0006801E114F10479F0D701ED91FC910680BE
:101E0000F781E02DB801C7010995080F111DF701F1
:101E1000E084F184EECFD8011C92F60101900020FD
:101E2000E9F73197BF016C197D0940E0C601C6CFC3
:101E300062E272E0FB01449150E080E80E94F1020E
:101E400009CF973009F4BECF983021F481E0809318
:101E5000F10000CF993009F0FDCE837009F0B2CFC8
:101E6000E5E5F1E081E031E096E32191222371F094
:101E70008093E9003093EB00DF0111972C912093C0
:101E8000EC009093ED008F5F873079F78EE78093B9
:101E9000EA001092EA008F898093EB01DBCE8B8DF4
:101EA0009C8D1092E9001092D0011092CF01909376
:101EB000CE018093CD01898D811192C08E899D893B
:101EC000913A49F4813209F07DCF47E050E064E077
:101ED00071E080E0B3CF913209F074CF833269F4BE
:101EE0008F89988DB0E0A0E080930001909301016C
:101EF000A0930201B0930301ADCE803269F48091CA
:101F0000E80082FFFCCF67E084E091E00E94480394
:101F10008BEF8093E8009ECE823209F09BCE8F89B2
:101F200080930B01EEEFFFE7859194918B3F9C4DE1
:101F300051F1E0E0F8E08091040190910501A09159
:101F40000601B0910701803B9440A105B105F1F471
:101F500080910B0180FD1AC0EE3F8AE0F80789F5F9
:101F600087E797E791838083809160008093D10118
:101F700088E19BE00FB6F894A895809360000FBEAF
:101F80009093600067CEEEEFFAE0D5CF808191812B
:101F90008737974709F05ECEA895809160008861E9
:101FA000809360008091D10180936000EE3F2AE031
:101FB000F20789F08091FE0A9091FF0A9183808355
:101FC00049CE808191818737980751F29093FF0A1B
:101FD0008093FE0AC5CF1092FF0A1092FE0A3ACEF5
:101FE0000E94CC01DC0112960D911C910115110586
:101FF00009F4E8CED801ED91FC910190F081E02D3B
:10200000BE016B5E7F4FC8010995811123CEF80197
:1020100000851185EBCF181619060CF41BCED2CE15
:10202000F1E0FF12BECE66E272E004CF1F920F9283
:102030000FB60F9211242F933F934F935F936F939B
:102040007F938F939F93AF93BF93EF93FF938DEF06
:1020500091E00E94D303FF91EF91BF91AF919F91C7
:102060008F917F916F915F914F913F912F910F9041
:102070000FBE0F901F9018951F920F920FB60F92E0
:1020800011242F938F939F93EF93FF93E0910D0271
:10209000F0910E028081E0911302F091140282FD12
:1020A0001BC09081809116028F5F8F732091170261
:1020B000821741F0E0911602F0E0E350FE4F958F59
:1020C00080931602FF91EF919F918F912F910F9026
:1020D0000FBE0F901F9018958081F4CF1F920F9222
:1020E0000FB60F9211242F933F934F935F936F93EB
:1020F0007F938F939F93AF93BF93EF93FF93CF9370
:10210000DF9300D01F92CDB7DEB783B18983898179
:102110009091EA0289278A8380916B009A818923B2
:102120008B838B8180FF05C0E091BD01F091BE01E2
:1021300009958B8181FF05C0E091BF01F091C0013D
:1021400009958B8182FF05C0E091C101F091C20128
:1021500009958B8183FF05C0E091C301F091C40113
:1021600009958B8184FF05C0E091C501F091C601FE
:1021700009958B8185FF05C0E091C701F091C801E9
:1021800009958B8186FF05C0E091C901F091CA01D4
:1021900009958B8187FF05C0E091CB01F091CC01BF
:1021A000099589818093EA020F900F900F90DF913B
:1021B000CF91FF91EF91BF91AF919F918F917F91BF
:1021C0006F915F914F913F912F910F900FBE0F90A4
:1021D0001F901895EDEFF1E01382128288EE93E0E4
:1021E000A0E0B0E084839583A683B7832FE531E038
:1021F000318320832DEC30E0358724872CEC30E0D0
:102200003787268728EC30E0318B208B29EC30E0B3
:10221000338B228B2AEC30E0358B248B2EEC30E094
:10222000378B268B118E128E138E148EEAE9F2E014
:102230001382128284839583A683B78381E791E01A
:10224000918380838FEF9FEF9587848783B18093FD
:10225000EA0280E090EEAEE0B3E48093FF02909358
:102260000003A0930103B093020367E871E083E0E9
:1022700093E00E94CB080E948302E9E0F3E012821F
:10228000158210868EE0818781E08287838783E8CC
:1022900091E0918380830895789484B5826084BDB1
:1022A00084B5816084BD85B5826085BD85B581605A
:1022B00085BD80916E00816080936E0010928100D8
:1022C0008091810082608093810080918100816093
:1022D0008093810080918000816080938000809154
:1022E0009100826080939100809191008160809341
:1022F0009100809190008160809390008091C10056
:1023000084608093C1008091C10082608093C1008D
:102310008091C10081608093C1008091C300816081
:102320008093C3008091C00082608093C000809140
:10233000C20081608093C20080917A0084608093A3
:102340007A0080917A00826080937A0080917A008E
:10235000816080937A0080917A00806880937A000F
:102360001092EB011092D4011092D3018091D7000A
:1023700081608093D70080EA8093D80089B580611E
:1023800089BD89B5826089BD09B400FEFDCF61E0D9
:1023900070E080E090E00E9451028091D8008F7C34
:1023A00080618093D8008091E000807F8093E0007E
:1023B0008091E1008E7E8093E1008DE08093E200C9
:1023C000559A209A0E9483026093F7027093F80254
:1023D0008093F9029093FA021092EB021092EC02B1
:1023E0001092ED021092EE021092EF021092F002A3
:1023F0001092F1021092F2021092F3021092F40283
:102400001092F5021092F6028FEF9FEF9093A702C1
:102410008093A60264E670E080E090E00E945102A2
:102420006EEA71E08AE992E00E947E0765E871E059
:102430008AE992E00E947E07E0910D02F0910E027F
:1024400082E08083E0910902F0910A021082E0911B
:102450000B02F0910C0280E1808310921502E09152
:102460001102F091120286E08083E0910F02F09158
:102470001002808180618083E0910F02F091100250
:10248000808188608083E0910F02F091100280814A
:1024900080688083E0910F02F091100280818F7D2F
:1024A0008083EAEAF2E08491EBE8F2E0D491ECE692
:1024B000F2E0C491CC2389F081110E94E001EC2F5D
:1024C000F0E0EE0FFF1FE25AFD4FA591B4918FB7D8
:1024D000F894EC91ED2BEC938FBF6DEA71E08AE9F3
:1024E00092E00E947E0765E871E08AE992E00E942E
:1024F0007E0780E0882E80E0982EC5E0D0E001E0E5
:1025000010E094E0E92EF12C23E0C22ED12C32E031
:10251000A32EB12CE0911601F0911701E730F105DF
:10252000D0F4EB56FD4E0C942A179C12B512FF12F4
:102530001F134C13641371130E943407882329F06E
:10254000109317010093160104C010921701109206
:1025500016010E94D50581149104E1F20E94BF0387
:102560008823C1F20E940000D5CF1092280110925A
:10257000290110922A0110922B01D0932D01C093B2
:102580002C010E9434078111E0CF80912C019091A1
:102590002D010397D1F240902801509029016090BD
:1025A0002A0170902B0120E030E040E251E4C301A9
:1025B000B2010E94CF1587FF05C0B0921701A0920B
:1025C0001601C7CF20E030E044E352E4C301B2017A
:1025D0000E94CF1587FF0AC020E030E04CE552E4AE
:1025E000C301B2010E94891818163CF320E030E0C4
:1025F00048EC52E4CA01B9010E94DC08ACCF109249
:102600002001109221011092220110922301D093F7
:102610002D01C0932C01809118019091190105970B
:1026200029F4F0921701E092160193CF0E94240C36
:102630000E94D505D0921701C09216018CCF10923E
:102640002401109225011092260110922701D093A7
:102650002D01C0932C0180911801909119010597CB
:1026600001F320E030E0A901609120017091210187
:1026700080912201909123010E94891818162CF450
:102680000E94240C0E94D5055BCF10921701109276
:1026900016010E94D5055DCF20E030E048E453E408
:1026A000CA01B9010E94DC08D0931701C09316013A
:1026B0000E94D50580911A0190911B01019690937B
:1026C0001B0180931A0147CF109228011092290113
:1026D00010922A0110922B0120E030E048EC52ECDD
:1026E00089CF10921F0110921E0135CF83E093E035
:1026F0000C949F07EF920F931F93CF93DF93E80102
:1027000034E047FD34E1042E000C550B57FF03C0A5
:10271000519541955109E32E022F242FAE010E94BD
:102720009813CE01DF91CF911F910F91EF900895F3
:10273000A9E0B0E0EEE9F3E10C94F9166A01F22E9B
:10274000B02E102FFBE3AF2EA01608F41BE31F5F83
:10275000012F27E0AE014F5F5F4F0E94F714BC01CD
:102760008981982F9970913009F43FC09BE2E1FC78
:1027700004C09E2D9170E0FC3AC05E2D5071E82F90
:10278000E87083FF46C084E0911101C083E0EF2D23
:10279000E81B8F1508F0E0E0D6018E2F20E25523CC
:1027A00051F1992329F0D6019C93C60101966C0141
:1027B00096012D5F3F4FE2FE24C08EE4D6018C933C
:1027C00091E411969C93119712968C93D9018E2FB8
:1027D00090E281111BC0E20FF32FF11D10828EEFEA
:1027E0009FEF2996ECE00C9415179DE2C6CF90E27E
:1027F000C4CF2D9381508111FCCFCE0ED11CE0E0CF
:10280000D0CF8EE6D6018C9391E6DBCF9D9381509D
:10281000E0CF482F447082FF3DC084E0911101C099
:1028200083E08F1510F4EF2DE81BD6018E2F20E2E8
:10283000552309F1992329F0D6019C93C6010196ED
:102840006C0196012D5F3F4FE2FE1BC089E4D6016B
:102850008C938EE411968C93119786E412968C9348
:10286000D9018E2F90E2882309F4B5CF9D93815032
:10287000FACF2D9381508111FCCFCE0ED11CE0E018
:10288000D9CF89E6D6018C938EE611968C93119759
:1028900086E6E4CF9B0177FF02C030E020E0A1E0B4
:1028A000B0E0911102C0B0E0A0E0F9013196AE0FA6
:1028B000BF1F8B2C912CBB2009F461C05401EFEF9A
:1028C000AE1ABE0AAA0DBB1DFA161B0619F014F0AB
:1028D0004F2D4A1B511188C0E3FC59C07601A42F2B
:1028E000B0E2A1114FC0C40ED11C992309F45BC002
:1028F00040E0D6011196F60190836D01552309F44D
:1029000048C0012F060F9A81582F507184FF03C0D1
:10291000913309F4015010160CF047C0093008F04B
:1029200008E0EEE2FE2E5B01A01AB1088501919449
:10293000819491082F3F320729F4D601FC92F601C9
:1029400031966F016217730794F1021713077CF534
:10295000DB01A21BB30BAA24A394B12CAC0EBD1EA9
:10296000AA0DBB1D11968C9121503109D6011196EB
:1029700028153905F4F0F60180836D01DBCFB12C09
:10298000A12CA0CFF701B1937F01A150AACF911143
:10299000B0CFD601942F50E302C05D9391509111B6
:1029A000FCCFC40ED11C40E0ACCF01E0BACF80E335
:1029B000DBCF6217730731F4963388F4953311F443
:1029C000552369F0F6018083FD01842F90E2811187
:1029D00008C0A40FB11D1C9290E080E002CF81E3FB
:1029E000F1CF91938150F3CF911183CF8ACF2830CB
:1029F00008F027E03327DA01990F311D87FD916038
:102A000000966105710539F432602E5F3D9330E325
:102A10002A95E1F708959F3F30F0803871056105F0
:102A200009F03C5F3C5F3D93913008F08068911D58
:102A3000DF93CF931F930F93FF92EF92192F987FFD
:102A40009695E92F96959695E90FFF27EC5DFE4F39
:102A500099273327EE24FF24A701E7010590089466
:102A6000079428F4360FE71EF81E491F511D660F04
:102A7000771F881F991F0694A1F70590079428F4E3
:102A8000E70EF81E491F561FC11D770F881F991F9B
:102A9000661F0694A1F70590079428F4F80E491FC5
:102AA000561FC71FD11D880F991F661F771F0694D9
:102AB000A1F70590079420F4490F561FC71FD81F90
:102AC000990F661F771F881F0694A9F784911095A8
:102AD000177041F0D695C79557954795F794E794A9
:102AE0001A95C1F7EAECF0E06894159015913591CC
:102AF0006591959105907FE27395E118F10A430B7A
:102B0000560BC90BD009C0F7E10CF11E431F561F2D
:102B1000C91FD01D7EF4703311F48A95E6CFE89476
:102B2000015030F0080F0AF40027021708F4202F94
:102B30002395022F7A3328F079E37D932A95E9F7DC
:102B400010C07D932A9589F60694979567953795D9
:102B500017951794E118F10A430B560BC90BD009CE
:102B600098F023957E9173957A3308F070E37C9307
:102B70002013B8F77E9170617D9330F0839571E3F7
:102B80007D9370E32A95E1F71124EF90FF900F9168
:102B90001F91CF91DF91992787FD909508950E940D
:102BA000111608F481E00895E89409C097FB3EF4FB
:102BB00090958095709561957F4F8F4F9F4F99238A
:102BC000A9F0F92F96E9BB279395F6958795779508
:102BD0006795B795F111F8CFFAF4BB0F11F460FFC8
:102BE0001BC06F5F7F4F8F4F9F4F16C0882311F020
:102BF00096E911C0772321F09EE8872F762F05C034
:102C0000662371F096E8862F70E060E02AF09A95CE
:102C1000660F771F881FDAF7880F9695879597F9C3
:102C20000895990F0008550FAA0BE0E8FEEF16165D
:102C30001706E807F907C0F012161306E407F507B0
:102C400098F0621B730B840B950B39F40A2661F024
:102C5000232B242B252B21F408950A2609F4A140C7
:102C6000A6958FEF811D811D08950E9448160C9432
:102C7000B9160E94AB1638F00E94B21620F09523C8
:102C800011F00C94A2160C94A81611240C94ED16B5
:102C90000E94CA1670F3959FC1F3950F50E0551F1F
:102CA000629FF001729FBB27F00DB11D639FAA27A1
:102CB000F00DB11DAA1F649F6627B00DA11D661FF0
:102CC000829F2227B00DA11D621F739FB00DA11D11
:102CD000621F839FA00D611D221F749F3327A00DCB
:102CE000611D231F849F600D211D822F762F6A2F67
:102CF00011249F5750409AF0F1F088234AF0EE0FCC
:102D0000FF1FBB1F661F771F881F91505040A9F7F8
:102D10009E3F510580F00C94A2160C94ED165F3F77
:102D2000E4F3983ED4F3869577956795B795F79534
:102D3000E7959F5FC1F7FE2B880F911D96958795AC
:102D400097F9089597F99F6780E870E060E008952B
:102D50009FEF80EC089500240A94161617061806B3
:102D60000906089500240A9412161306140605068F
:102D70000895092E0394000C11F4882352F0BB0F20
:102D800040F4BF2B11F460FF04C06F5F7F4F8F4F83
:102D90009F4F089557FD9058440F551F59F05F3FBE
:102DA00071F04795880F97FB991F61F09F3F79F06D
:102DB00087950895121613061406551FF2CF4695EF
:102DC000F1DF08C0161617061806991FF1CF869571
:102DD0007105610508940895E894BB276627772755
:102DE000CB0197F908952F923F924F925F926F9285
:102DF0007F928F929F92AF92BF92CF92DF92EF928B
:102E0000FF920F931F93CF93DF93CDB7DEB7CA1B0B
:102E1000DB0B0FB6F894DEBF0FBECDBF09942A8836
:102E2000398848885F846E847D848C849B84AA84DE
:102E3000B984C884DF80EE80FD800C811B81AA816B
:102E4000B981CE0FD11D0FB6F894DEBF0FBECDBF36
:102E5000ED010895EE0FFF1F0590F491E02D099408
:102E60005058BB27AA270E9448170C94B9160E94F5
:102E7000AB1638F00E94B21620F039F49F3F19F4D7
:102E800026F40C94A8160EF4E095E7FB0C94A21619
:102E9000E92F0E94CA1658F3BA176207730784070E
:102EA000950720F079F4A6F50C94EC160EF4E09555
:102EB0000B2EBA2FA02D0B01B90190010C01CA01F4
:102EC000A0011124FF27591B99F0593F50F4503E9F
:102ED00068F11A16F040A22F232F342F4427585F91
:102EE000F3CF469537952795A795F0405395C9F7A9
:102EF0007EF41F16BA0B620B730B840BBAF0915061
:102F0000A1F0FF0FBB1F661F771F881FC2F70EC0FF
:102F1000BA0F621F731F841F48F4879577956795D2
:102F2000B795F7959E3F08F0B0CF9395880F08F0BE
:102F30009927EE0F9795879508950E944C18E39571
:102F40000C9475180E94B6170C94B9160E94B2160C
:102F500058F00E94AB1640F029F45F3F29F00C9422
:102F6000A21651110C94ED160C94A8160E94CA16C4
:102F700068F39923B1F3552391F3951B550BBB27A8
:102F8000AA2762177307840738F09F5F5F4F220FED
:102F9000331F441FAA1FA9F335D00E2E3AF0E0E8E4
:102FA00032D091505040E695001CCAF72BD0FE2F2E
:102FB00029D0660F771F881FBB1F261737074807C2
:102FC000AB07B0E809F0BB0B802DBF01FF2793587A
:102FD0005F4F3AF09E3F510578F00C94A2160C9486
:102FE000ED165F3FE4F3983ED4F3869577956795A9
:102FF000B795F7959F5FC9F7880F911D96958795AF
:1030000097F90895E1E0660F771F881FBB1F6217CD
:1030100073078407BA0720F0621B730B840BBA0B8B
:10302000EE1F88F7E09508950E941B186894B1116F
:103030000C94ED1608950E94D21688F09F5798F0D0
:10304000B92F9927B751B0F0E1F0660F771F881FAD
:10305000991F1AF0BA95C9F714C0B13091F00E94C7
:10306000EC16B1E008950C94EC16672F782F8827A2
:10307000B85F39F0B93FCCF3869577956795B395EE
:10308000D9F73EF490958095709561957F4F8F4F5D
:103090009F4F08950C94A8160E94D216D8F3E89476
:1030A000E0E0BB279F57F0F02AED3FE049EC06C077
:1030B000EE0FBB0F661F771F881F28F0B23A62071A
:1030C0007307840728F0B25A620B730B840BE395E5
:1030D0009A9572F7803830F49A95BB0F661F771F68
:1030E000881FD2F790480C949818EF93E0FF07C020
:1030F000A2EA2AED3FE049EC5FEB0E9448170E94EC
:10310000B9160F90039401FC9058ECEAF0E00C948F
:10311000A4180E94111608F48FEF08959F930E943F
:103120004C180F9007FCEE5F0C9475189F3F31F020
:10313000915020F4879577956795B795880F911DE5
:103140009695879597F908959F938F937F936F93A3
:10315000FF93EF939B01AC010E943516EF91FF9115
:103160000E94B8182F913F914F915F910C943516A2
:10317000DF93CF931F930F93FF92EF92DF927B0128
:103180008C01689406C0DA2EEF010E944816FE01F9
:10319000E894A5912591359145915591A6F3EF01BC
:1031A0000E944817FE019701A801DA9469F7DF90A1
:1031B000EF90FF900F911F91CF91DF9108950F93A2
:1031C0001F93CF93DF938230910510F482E090E05B
:1031D000E0911703F091180330E020E0B0E0A0E0A8
:1031E000309799F42115310509F44AC0281B390B91
:1031F00024303105D8F58A819B816115710589F1EB
:10320000FB0193838283FE0111C0408151810281C1
:10321000138148175907E0F04817590799F4109798
:1032200061F012960C93129713961C933296CF016D
:10323000DF91CF911F910F91089500931703109381
:103240001803F4CF2115310551F04217530738F018
:10325000A901DB019A01BD01DF01F801C1CFEF0136
:10326000F9CF9093180380931703CDCFFE01E20F9F
:10327000F31F819391932250310939832883D7CF4B
:103280002091150330911603232B41F42091500116
:1032900030915101309316032093150320914E0174
:1032A00030914F012115310541F42DB73EB74091C2
:1032B000520150915301241B350BE0911503F091FD
:1032C0001603E217F307A0F42E1B3F0B281739074C
:1032D00078F0AC014E5F5F4F2417350748F04E0F72
:1032E0005F1F5093160340931503819391939FCFD3
:1032F000F0E0E0E09CCFCF93DF930097E9F0FC0192
:10330000329713821282A0911703B0911803ED0136
:1033100030E020E01097A1F420813181820F931FCB
:1033200020911503309116032817390709F061C061
:10333000F0931603E0931503DF91CF910895EA010E
:10334000CE17DF07E8F54A815B819E0141155105E3
:10335000B1F7E901FB83EA8349915991C40FD51F65
:10336000EC17FD0761F4808191810296840F951F0F
:10337000E90199838883828193819B838A83F0E02A
:10338000E0E012968D919C9113970097B9F52D91DD
:103390003C911197CD010296820F931F2091150346
:1033A000309116032817390739F6309751F51092E6
:1033B000180310921703B0931603A0931503BCCF04
:1033C000D383C28340815181840F951FC817D907C9
:1033D00061F44E5F5F4F88819981480F591F518377
:1033E00040838A819B81938382832115310509F073
:1033F000B0CFF0931803E09317039ECFFD01DC01DB
:10340000C0CF13821282D7CFB0E0A0E0EAE0FAE1A9
:103410000C94F5168C01009751F4CB010E94DF1833
:103420008C01C801CDB7DEB7E0E10C941117FC01A7
:10343000E60FF71F9C0122503109E217F30708F449
:103440009DC0D901CD91DC911197C617D70798F08F
:10345000C530D10530F3CE0104978617970708F3DE
:10346000C61BD70B2297C193D1936D937C93CF0149
:103470000E947B19D6CF5B01AC1ABD0A4C018C0EA1
:103480009D1EA0911703B0911803512C412CF12CD3
:10349000E12C109731F58091150390911603881552
:1034A000990509F05CC04616570608F058C080918F
:1034B0004E0190914F01009741F48DB79EB7409116
:1034C000520150915301841B950BE817F90708F03E
:1034D00055C0F0931603E0931503F90171836083DF
:1034E000A0CF8D919C91119712966C901297139684
:1034F0007C901397A815B90559F56C0142E0C40EEC
:10350000D11CCA14DB0420F1AC014A195B09DA01B1
:103510001296159780F06282738251834083D9019D
:103520006D937C93E114F10471F0D7011396FC9331
:10353000EE93129776CF22968C0F9D1FF9019183FF
:103540008083F301EFCFF0931803E093170369CF63
:103550004816590608F42C017D01D3019ACFCB01FE
:103560000E94DF187C01009749F0AE01B8010E946B
:10357000C11AC8010E947B19870153CF10E000E0F7
:1035800050CFFB01DC0102C001900D924150504030
:10359000D8F70895FB01DC0101900D920020E1F7BE
:1035A000089511E0C6E6D1E004C0FE010E942A178A
:0C35B0002196C736D107C9F7F894FFCF69
:1035BC00FFFFFFFF00E10000000000008F028F0200
:1035CC008F028F028F020000FFFF0000000000003E
:1035DC0000000000000000000000000005000000DA
:1035EC00B44400000C4258E95B4332000000003F39
:1035FC00CDCCCC3D0000000000000000A005000078
:10360C001903800000C1808100000000000000F45C
:10361C0003550382034004B3039103A50300000088
:10362C0000E50460040605FB044C050A05280500AA
:10363C00000000B3060D0A00506F736974696F6E59
:10364C002F7800506F736974696F6E2F7900506F0B
:10365C00736974696F6E2F7468657461002F73657C
:06366C00747570282900AE
:00000001FF
